:100000000C94B4030C94A40E0C947D0E0C94DC039D
:100010000C94DC030C94DC030C94DC030C94DC03E4
:100020000C94DC030C94DC030C94DC030C94DC03D4
:100030000C94DC030C94DC030C94DC030C94DC03C4
:100040000C94330E0C94DC030C94F10E0C94CB0E38
:100050000C94DC030C94DC030C94DC030C94DC03A4
:100060000C94DC030C94DC034E414E494E49545928
:10007000494E46CDCCCC3D0AD7233C17B7D1387773
:10008000CC2B329595E6241FB14F0A000020410089
:1000900000C84200401C4620BCBE4CCA1B0E5AAED3
:1000A000C59D74554E4B4E4F574E20434F4D4D41BD
:1000B0004E4400434F4E464947004144442C31339F
:1000C0002C5649525455414C5F504F5745522C5570
:1000D000382C52572C5669727475616C20506F77AA
:1000E00065722C415443207669727475616C20707E
:1000F0006F7765722030206F7220312C504552533B
:100100004953543D31004144442C31322C42414347
:100110004B4C494748545F4252492C55382C525752
:100120002C4261636B6C696768742042726967680E
:10013000746E6573732C4154432070616E656C203E
:100140006261636B6C696768742062726967687466
:100150006E6573732066726F6D203020746F20326D
:1001600035352C504552534953543D310041444498
:100170002C31312C444953504C41595F4252492C47
:1001800055382C52572C446973706C617973204236
:1001900072696768746E6573732C53717561776BE0
:1001A00020646967697473206272696768746E6538
:1001B00073732066726F6D203020746F2031352C80
:1001C000504552534953543D3100494E5055542CDB
:1001D000302C434F4E4649475552455F50414E459E
:1001E0004C5F5354415455532C53595354454D2C43
:1001F000535041445F5649525455414C5F504F57FC
:1002000045522C55495F545950453D332C43555365
:10021000544F4D5F545950453D504F57455200493A
:100220004E5055542C323230312C495F4154435F8B
:1002300052494748542C50555348425554544F4EF8
:100240002C535041445F50555348425554544F4EDF
:100250002C55495F545950453D322C4F524445521C
:100260003D31302C55492E524F573D312C48494491
:1002700044454E3D312C524F555445544F3D455FFA
:100280004154435F524947485400494E5055542CFD
:10029000333030312C455F4154435F524947485415
:1002A0002C454E434F4445522C535041445F444FDC
:1002B00055424C455F454E434F4445522C4F5244A6
:1002C00045523D392C55492E524F573D3100494E2C
:1002D0005055542C323030322C495F4154435F49E1
:1002E00044454E542C50555348425554544F4E2C6F
:1002F000535041445F50555348425554544F4E2C2F
:1003000055495F545950453D322C4E4F5F4C414248
:10031000454C3D312C4F524445523D382C55492EC9
:10032000524F573D3100494E5055542C32323032E5
:100330002C495F4154435F4C4546542C505553481B
:10034000425554544F4E2C535041445F50555348DE
:10035000425554544F4E2C55495F545950453D32E7
:100360002C4F524445523D372C55492E524F573D44
:10037000312C48494444454E3D312C524F5554454B
:10038000544F3D455F4154435F4C45465400494EF0
:100390005055542C333030302C455F4154435F4C22
:1003A0004546542C454E434F4445522C53504144EE
:1003B0005F444F55424C455F454E434F4445522C98
:1003C0004F524445523D362C55492E524F573D31E0
:1003D00000494E5055542C323030302C495F415436
:1003E000435F414C54534F555243452C5357495446
:1003F00043482C2C4F524445523D352C55492E52E2
:100400004F573D3100494E5055542C323230332C29
:10041000495F4154435F544341535F4D4F44452C22
:10042000524F544152592C535041445F454E434F13
:100430004445525F4E4F4143432C504F535F4E4112
:100440004D45533D5354425923414C54205250542E
:1004500047204F46462358504E4452235441204F84
:100460004E4C592354412F52412C504F535F56410B
:100470004C5545533D3023312332233323342C5004
:100480004F535F554956414C5545533D2D36232D0D
:1004900034232D32233023322C4F524445523D34E5
:1004A0002C55492E524F573D30004F5554505554FE
:1004B0002C313030302C445F4154435F535155410F
:1004C000574B2C444953504C41592C535041445F95
:1004D000444953504C41592C4C454E4754483D34A7
:1004E0002C524F573D312C57494454483D38392CF4
:1004F0004845494748543D34302C464F52454752B1
:100500004F554E443D234646464646462C4F5244A0
:1005100045523D332C55492E524F573D30004F55D3
:10052000545055542C302C4C5F4154435F58504E1E
:1005300044524641494C2C4C45442C535041445F55
:100540004C45442C55495F464143453D302C4E4F68
:100550005F4C4142454C3D312C4F524445523D3257
:100560002C55492E524F573D3000494E5055542C72
:10057000323030312C495F4154435F58504E445221
:100580002C5357495443482C2C4F524445523D312B
:100590002C55492E524F573D30004E4F5F44495322
:1005A000504C41595F434C4541523D3100565053E8
:1005B0005550504F52543D310050414745535550CE
:1005C000504F52543D3000495347454E45524943E0
:1005D0003D31004F5054494F4E00504F4E4700534D
:1005E000544154455343414E0053544154455343A1
:1005F000414E005049443D434654373337415443FC
:100600005637005649443D314C325000415554480C
:100610004F523D33363062383132656631306433A3
:1006200033653534353765653762343132383435C2
:100630003336660043465420373337204154432035
:1006400056372050414E454C007B62643965303648
:1006500062362D373136622D343735342D613531E0
:10066000662D3239386361303432646332637D0021
:100670005350414400415454414348494E4720435C
:10068000414C4C4241434B532100000000002400E8
:1006900027002A0000000000250028002B00000091
:1006A00000002300260029000404040404040404B8
:1006B000020202020202030303030303010204080D
:1006C00010204080010204081020010204081020BC
:1006D0000000000800020100000304070000000001
:1006E000000000007E306D79335B5F707F7B771F89
:1006F0000D3D4F470000000000000000000000001A
:1007000000000000000000000000000000000000E9
:10071000800180007E306D79335B5F707F7B0000ED
:100720000000000000771F0D3D4F4700370000001C
:100730000E00000067000000000000000000000044
:100740000000000800771F0D3D4F470037000000F4
:100750000E00151D670000000000000000000000F2
:1007600000000000230F481611241FBECFEFD8E071
:10077000DEBFCDBF26E0ACEEB1E001C01D92A437D4
:10078000B207E1F711E0A0E0B1E0E0E7F8E302C072
:1007900005900D92AC3EB107D9F713E0C3EBD3E05F
:1007A00004C02197FE010E942A1AC23BD107C9F753
:1007B0000E9449110C942B1C0C940000AC01109267
:1007C000B7039091070680910606FA01BF01641BEA
:1007D000750B2091B70330813093B703931304C096
:1007E000921302C01092B7033081311104C09217E6
:1007F00021F0CB0108953817D1F33196E7CF0F934D
:100800001F93CF93DF938091FB05882309F446C0A3
:10081000D0E0C0E0813029F482E08093FB05CBEB8F
:10082000D3E08091FC05882341F1209721F4C09109
:100830000006D09101068E01CE010E94DE03892BB5
:1008400029F42196F80180818111F5CFF80180818A
:10085000882309F1C8010E94DE03F801E80FF91F9F
:100860008081882311F010823196F0930106E09385
:1008700000061093FF050093FE058091FE05909100
:10088000FF05892B59F081E08093FC05DF91CF9122
:100890001F910F91089510E000E0EBCF80E0F6CFBC
:1008A000833081F028F4813099F08230A9F00895E6
:1008B0008730A9F08830C9F08430B1F4809180008D
:1008C0008F7D03C0809180008F7780938000089592
:1008D00084B58F7784BD089584B58F7DFBCF8091DB
:1008E000B0008F778093B00008958091B0008F7D25
:1008F000F9CFCF93DF93282F30E0F901E053F94F80
:100900008491F901E454F94FD491F901E855F94F74
:10091000C491CC23A1F081110E945004EC2FF0E08F
:10092000EE0FFF1FE256F94FA591B491EC91ED2324
:1009300081E090E009F480E0DF91CF91089580E0BC
:1009400090E0FACF1F93CF93DF93282F30E0F90187
:10095000E053F94F8491F901E454F94FD491F9012E
:10096000E855F94FC491CC23A9F0162F81110E94AC
:100970005004EC2FF0E0EE0FFF1FEC56F94FA5915D
:10098000B4918FB7F894EC91111108C0D095DE2383
:10099000DC938FBFDF91CF911F910895DE2BF8CFAD
:1009A000CF93DF9390E0FC01E454F94F24918855F4
:1009B000994FFC0184918823C9F090E0880F991F1A
:1009C000FC01E657F94FA591B491FC01EC56F94FA3
:1009D000C591D49161110DC09FB7F8948C91209569
:1009E00082238C938881282328839FBFDF91CF9116
:1009F0000895623051F49FB7F8943C91822F80950E
:100A000083238C93E8812E2BEFCF8FB7F894EC9152
:100A10002E2B2C938FBFEACF1F93CF93DF93182FEA
:100A2000EB0161E00E94D004209739F460E0812F4F
:100A3000DF91CF911F910C94A204CF3FD10511F407
:100A400061E0F5CFE12FF0E0E053F94FE491E330BE
:100A500031F140F4E130B1F0E230E1F0C038D105DD
:100A60007CF7E4CFE73029F1E83059F1E430B1F711
:100A700080918000806280938000D0938B00C0932F
:100A80008A0004C084B5806884BDC7BDDF91CF9162
:100A90001F91089584B5806284BDC8BDF7CF809151
:100AA0008000806880938000D0938900C093880084
:100AB000EDCF8091B00080688093B000C093B30008
:100AC000E5CF8091B00080628093B000C093B40005
:100AD000DDCF8E3008F08E508770806480937C006C
:100AE00080917A00806480937A0080917A0086FDFC
:100AF000FCCF809178009091790008950F931F9317
:100B0000CF9387FD26C090915A02891711F1082FC3
:100B1000082E000C110B90915B029017110691F1B9
:100B20008CF180935A02C0E080916402C81788F467
:100B3000EC2FF0E0B8010C2E02C0759567950A9471
:100B4000E2F76170E65AFD4F82810E94A204CF5FF6
:100B5000EBCF8091690290916A02009729F001978A
:100B600051F08EEF9FEF10C080916702CF911F91DF
:100B70000F910C94690580916702CF911F910F919D
:100B80000C9479048DEF9FEFCF911F910F910895F1
:100B90003FB7F8948091FE019091FF01A09100026F
:100BA000B091010226B5A89B05C02F3F19F0019610
:100BB000A11DB11D3FBFBA2FA92F982F8827BC01B7
:100BC000CD01620F711D811D911D42E0660F771FDF
:100BD000881F991F4A95D1F708958F929F92AF92DF
:100BE000BF92CF92DF92EF92FF924B015C010E9485
:100BF000C8056B017C010E94C8056C197D098E092E
:100C00009F09683E734081059105A8F321E0821A8F
:100C10009108A108B10888EEC80E83E0D81EE11C37
:100C2000F11C81149104A104B10429F7FF90EF9005
:100C3000DF90CF90BF90AF909F908F9008952FB787
:100C4000F8946091FA017091FB018091FC01909100
:100C5000FD012FBF08950895DC01ED91FC910190F5
:100C6000F081E02D0994EF92FF920F931F93CF93A1
:100C7000DF932091B2032223E9F08C0160910606F4
:100C800080910306909104060E942C06E0900306D2
:100C9000F0900406E801FE016491662359F0D70143
:100CA000ED91FC910190F081E02DC701099521960D
:100CB000892B89F7DF91CF911F910F91FF90EF90D2
:100CC0000895AF92BF92CF92DF92EF92FF920F936F
:100CD0001F93CF93DF936C017B018B01040F151FD2
:100CE000EB015E01AE18BF08C017D10759F069913A
:100CF000D601ED91FC910190F081E02DC60109959E
:100D0000892B79F7C501DF91CF911F910F91FF904A
:100D1000EF90DF90CF90BF90AF900895FC01538D7E
:100D2000448D252F30E0842F90E0821B930B5417C5
:100D300010F0CF96089501970895FC01918D828D52
:100D4000981761F0A28DAE0FBF2FB11D5D968C91EB
:100D5000928D9F5F9F73928F90E008958FEF9FEF2A
:100D60000895FC01918D828D981731F0828DE80FE6
:100D7000F11D858D90E008958FEF9FEF0895FC01A0
:100D8000918D228D892F90E0805C9F4F821B91096D
:100D90008F739927089585E193E00E94BF0621E0B3
:100DA000892B09F420E0822F089580E090E0892BC0
:100DB00029F00E94CB0681110C9400000895FC01DB
:100DC000A48DA80FB92FB11DA35ABF4F2C91848DAC
:100DD00090E001968F739927848FA689B7892C9309
:100DE000A089B1898C91837080648C93938D848D5C
:100DF000981306C00288F389E02D80818F7D80835F
:100E00000895EF92FF920F931F93CF93DF93EC011E
:100E100081E0888F9B8D8C8D98131AC0E889F989A1
:100E2000808185FF15C09FB7F894EE89FF896083A4
:100E3000E889F98980818370806480839FBF81E025
:100E400090E0DF91CF911F910F91FF90EF90089567
:100E5000F62E0B8D10E00F5F1F4F0F731127E02E42
:100E60008C8D8E110CC00FB607FCFACFE889F9897A
:100E7000808185FFF5CFCE010E94DF06F1CFEB8D9B
:100E8000EC0FFD2FF11DE35AFF4FF0829FB7F8944E
:100E90000B8FEA89FB8980818062CFCFCF93DF936C
:100EA000EC01888D8823B9F0AA89BB89E889F98982
:100EB0008C9185FD03C0808186FD0DC00FB607FCB7
:100EC000F7CF8C9185FFF2CF808185FFEDCFCE01EA
:100ED0000E94DF06E9CFDF91CF910895DC01ED910B
:100EE000FD918081ED91FD919081ED91FD916C914D
:100EF00063708E2309F064609F2309F06860EBE85B
:100F0000F7E0E60FF11D659565956D936D917D9107
:100F10008D919D91099423C01AC012C016C010C0B3
:100F20001EC009C014C013C006C019C009C00DC03E
:100F300007C00DC014C062507040804090400BC08C
:100F4000615070408040904006C06E5F01C06F5F8E
:100F50007F4F8F4F9F4F9E938E937E936E930895F6
:100F60008091EE019091EF010C946E078091EC015D
:100F70009091ED010C946E07CF92DF92EF92FF9269
:100F80000F931F93CF93DF9300D0CDB7DEB7698364
:100F90004A83880F991F0091580210915902000F3F
:100FA000111FE2E0F2E09F0122503240201731078A
:100FB00014F41192F8CF2981FC01EE5FFD4F2183DB
:100FC0008A81808360E0809156020E94A2041016FC
:100FD000110604F501501109F801EE5FFD4FE080A4
:100FE000D0905402C090520288E0F82E6E2D661FF9
:100FF0006627661F8C2D0E94A204EE0C61E08D2DE9
:101000000E94A20460E08D2D0E94A204FA94F110C7
:10101000EDCFDDCF61E0809156020F900F90DF9110
:10102000CF911F910F91FF90EF90DF90CF900C9494
:10103000A2042091580230915902121613064CF462
:101040008031910530F4482F6AE090E080E00C9404
:10105000BC070895209158023091590212161306C8
:101060008CF4603178F4E62FF0E0EC51F94F4491C4
:10107000FC01EE5FFD4F408B61E0680F90E080E087
:101080000C94BC0708952091580230915902121611
:10109000130684F4E62F660FFF0BEC51F94F4491D1
:1010A000FC01EE5FFD4F408B61E0680F90E080E057
:1010B0000C94BC0708951F93CF93DF93EC01C031CC
:1010C00087E2D807B8F060E283E090E00E9443082E
:1010D00060E282E090E00E94430860E281E090E0FC
:1010E0000E94430860E290E080E0DF91CF911F9181
:1010F0000C944308CE016AE070E00E94E019182FBA
:10110000C83E83E0D80724F1CE0168EE73E00E9468
:10111000E01983E090E00E942A08CE0164E670E0C6
:101120000E94E019CB016AE070E00E94E019682F8C
:1011300082E090E00E942A082AE030E0CE01B90166
:101140000E94E019CB01B9010E94E019682F11C07B
:1011500060E083E090E00E942A08C436D105ECF6F6
:1011600060E082E090E00E942A0860E0CA30D10589
:101170001CF781E090E00E942A08612F90E080E057
:10118000DF91CF911F910C942A08EF92FF921F9349
:10119000CF93DF9320915802309159028217930721
:1011A000B4F4EC0123E0880F991F2A95E1F79C0124
:1011B0002E5E3D4F790111E0F70111927F0140E071
:1011C000612FCE010E94BC071F5F1930A9F7DF9184
:1011D000CF911F91FF90EF90089580E008950F93B5
:1011E0001F93CF93DF93EC01062F142F62E0802F23
:1011F0000E94D00462E0812F0E94D004802F90E0F2
:10120000FC01E855F94FE491F0E0EE0FFF1FE256C4
:10121000F94FA591B491B983A883FC01E454F94F27
:1012200024912C83812F90E0FC01E855F94FE49143
:10123000F0E0EE0FFF1FE256F94F459154915B83AA
:101240004A83FC01E454F94FE491ED831F82188630
:1012500019861A868BE39FE10197F1F78C91282379
:1012600091E009F490E0DA018C91E82309F09260B2
:101270009E83BE01802F0E94ED08082FBE01812FA2
:101280000E94ED08800F8B87DF91CF911F910F9106
:1012900008950E94FF03882359F081E08093FC05A4
:1012A0008093FD058091FE059091FF050C94CD176C
:1012B0001092FD0560E070E0CB0108950E9449099D
:1012C0000C944909CF92DF92EF92FF920E94490954
:1012D0006B010E944909672B682B692B81F08AE01A
:1012E0008C9DF0018D9DF00D1124E55FFC4F61E0B8
:1012F0008081FF90EF90DF90CF900C94A2048AE061
:101300008C9DF0018D9DF00D1124E55FFC4F60E098
:10131000EFCFCF92DF92EF92FF920E9449096B01CB
:101320007C0180E1C816D104E104F10428F4C6016F
:101330000E941908C0920401FF90EF90DF90CF90B7
:101340000895CF92DF92EF92FF920E9449096B01BC
:101350007C018FEFC816D104E104F10409F030F4E8
:10136000B60189E00E940C05C0920501FF90EF9044
:10137000DF90CF9008950E944909672B682B692B55
:1013800029F470E060E089E00C940C05609105019F
:10139000062E000C770BF7CFFC018081918100971E
:1013A00011F00C94CC1A0895FB0101900020E9F78C
:1013B0003197AF01461B570BDC01ED91FC91028088
:1013C000F381E02D09948091B2038823A1F060910C
:1013D000050680910306909104060E942C068091D8
:1013E000BA03882341F068E571E08091030690918B
:1013F00004060E94D4091092B9031092B20380E04F
:1014000008958F929F92AF92BF92EF92FF920F93A7
:101410001F93CF93DF93CDB7DEB7A1970FB6F894A4
:10142000DEBF0FBECDBF7C01FA01CB0119A2223075
:1014300008F42AE08E010F5D1F4F822E912CB12CF3
:10144000A12CBF01A50194010E94F419F901CA0160
:101450006A300CF5605DD8016E938D01232B242B2F
:10146000252B79F790E080E0109721F0BD01C701AE
:101470000E94D409A1960FB6F894DEBF0FBECDBF6F
:10148000DF91CF911F910F91FF90EF90BF90AF90A0
:101490009F908F900895695CDECFCF92DF92EF929C
:1014A000FF920F931F93CF93DF9377FF1DC06A01C5
:1014B0007B01EC016DE20E942C068C01442755272C
:1014C000BA014C195D096E097F092AE0CE010E941C
:1014D000010A800F911FDF91CF911F910F91FF9013
:1014E000EF90DF90CF9008952AE0DF91CF911F9188
:1014F0000F91FF90EF90DF90CF900C94010ACF9363
:101500009091B2039923A9F0C82F609106068091AB
:101510000306909104060E942C064C2FCC0F550B0D
:10152000660B770B8091030690910406CF910C9483
:101530004D0ACF910895CF93DF932091B2032223D8
:10154000A9F0EC01609106068091030690910406D3
:101550000E942C06AE01DD0F660B770B809103060F
:1015600090910406DF91CF910C944D0ADF91CF91B9
:1015700008959091B203911110C091E09093B2033D
:101580009093B903482F50E070E060E02AE080912A
:101590000306909104060C94010A0895CF93DF93FB
:1015A0009091B20391110AC0EB010E94B90ACE01D9
:1015B0000E943306DF91CF910C94E30980E0DF9124
:1015C000CF91089563EA70E083E00C94CE0ACF9245
:1015D000DF92EF92FF920F931F93CF93DF930E94BE
:1015E000FF03882309F48EC081E08093FC0580937B
:1015F000FD05C091FE05D091FF056BE571E0CE01C0
:101600000E941B1C892B09F082C080E00E94B90A4D
:1016100062E370E080E090E00E94ED0580E796E0F4
:101620000E94330662E370E080E090E00E94ED05E6
:1016300089E496E00E94330662E370E080E090E087
:101640000E94ED0584E396E00E94330662E370E0B9
:1016500080E090E00E94ED0582E090E00E949B0A0D
:1016600087E090E00E949B0A8CE096E00E9433069F
:1016700062E370E080E090E00E94ED0583E096E098
:101680000E94330662E370E080E090E00E94ED0586
:1016900083EF95E00E94330662E370E080E090E023
:1016A0000E94ED050E94E30968EC70E089E00E9469
:1016B0000C0564E670E080E090E00E94ED0570E0CB
:1016C00060E089E00E940C0564E670E080E090E054
:1016D0000E94ED0568EC70E089E00E940C0564E66C
:1016E00070E080E090E00E94ED0570E060E089E04D
:1016F000DF91CF911F910F91FF90EF90DF90CF90EE
:101700000C940C051092FD05D0E0C0E076CF60E6A9
:1017100071E0CE010E941B1C892B09F093C080E070
:101720000E94B90A89EE95E00E94330681E090E0BC
:101730000E949B0A0E94E309C6E0D1E086E3E82EFE
:1017400081E0F82E88818130C1F48A819B818B39B8
:10175000984099F489810E947E058C01892B61F45F
:1017600088E00E94B90A8A819B810E949B0A8C8131
:101770000E947F0A0E94E3090D832696EC16FD065F
:1017800009F7809136010E94790480933A01811112
:101790003CC088E00E94B90A8091370190913801DD
:1017A0000E949B0A81E090E00E949B0A0E94E3094C
:1017B00080910D010E947E05EC0188E0209789F55B
:1017C0000E94B90A80910E0190910F010E949B0A1C
:1017D00081E090E00E949B0A0E94E30910921101AF
:1017E00080E00E94B90A8FED95E00E94330682E006
:1017F00090E00E949B0ADF91CF911F910F91FF9083
:10180000EF90DF90CF900C94E30988E00E94B90A32
:1018100080913701909138010E949B0A90E080E00E
:10182000C3CF0E94B90A80910E0190910F010E94CE
:101830009B0A90E080E00E949B0A0E94E309C0930B
:101840001101CECF6AE671E0CE010E941B1C892BEC
:1018500059F50E941F066093F1017093F201809385
:10186000F3019093F40180E00E94B90A8AED95E0BB
:101870000E9433060E9449096B017C018091B203EA
:10188000882309F4B8CF60910606809103069091F1
:1018900004060E942C06B701A601809103069091D0
:1018A00004060E944D0AA7CF6FE671E0CE010E94A8
:1018B0001B1C892B99F470E060E089E00E940C0504
:1018C0001092050190E080E0DF91CF911F910F9180
:1018D000FF90EF90DF90CF900C94C50863E771E024
:1018E000CE010E941B1C892B09F0C0C080E00E9421
:1018F000B90A83ED95E00E94330687EC95E00E94DB
:10190000330689EB95E00E9433068DEA95E00E944C
:1019100033068AE995E00E9433060E94E3096AE6ED
:1019200075E080E00E94CE0A62E370E080E090E023
:101930000E94ED056EE175E080E00E94CE0A62E350
:1019400070E080E090E00E94ED056AEA74E080E0DB
:101950000E94CE0A62E370E080E090E00E94ED0514
:1019600065E074E080E00E94CE0A62E370E080E00F
:1019700090E00E94ED0561ED73E080E00E94CE0AE8
:1019800062E370E080E090E00E94ED056EE873E0B5
:1019900080E00E94CE0A62E370E080E090E00E9466
:1019A000ED0566E273E080E00E94CE0A62E370E03B
:1019B00080E090E00E94ED056EEC72E080E00E9415
:1019C000CE0A62E370E080E090E00E94ED056AE8F4
:1019D00072E080E00E94CE0A62E370E080E090E076
:1019E0000E94ED056FE172E080E00E94CE0A62E3A2
:1019F00070E080E090E00E94ED056AEC71E080E02C
:101A00000E94CE0A62E370E080E090E00E94ED0563
:101A10006DE671E081E00E94CE0A62E370E080E052
:101A200090E00E94ED0566E071E081E00E94CE0A40
:101A300062E370E080E090E00E94ED056AEB70E008
:101A400081E00E94CE0A62E370E080E090E00E94B4
:101A5000ED0563EB70E080E0DF91CF911F910F9176
:101A6000FF90EF90DF90CF900C94CE0ADF91CF9152
:101A70001F910F91FF90EF90DF90CF900895CF933B
:101A8000DF930E94FF03882339F181E08093FC05F6
:101A90008093FD05C091FE05D091FF056AE771E0D6
:101AA000CE010E941B1C892BE1F481E08093F001A0
:101AB0008BE00E94B90A809104010E947F0A0E9473
:101AC000E3098CE00E94B90A809105010E947F0A17
:101AD000DF91CF910C94E3091092FD05D0E0C0E0B6
:101AE000DDCF60E871E0CE010E941B1C892B39F02C
:101AF00065E871E0CE010E941B1C892B81F41092D5
:101B0000F00190E080E00E94C50870E060E089E0AC
:101B10000E940C0510920501DF91CF9108956FE6A8
:101B200071E0CE010E941B1C892BB1F7E8CFEF9228
:101B3000FF920F931F93CF93DF93EC017B011982E8
:101B400018821B821A821D821C82FB0101900020D8
:101B5000E9F731978F01061B170BB8016F5F7F4FB5
:101B600090E080E00E94551B0097B9F0998388832C
:101B70001B830A832C813D81232B11F4FC011082ED
:101B80001D830C83B70188819981DF91CF911F91CB
:101B90000F91FF90EF900C94241C888199810097FD
:101BA00011F00E94CC1A198218821D821C821B829D
:101BB0001A82DF91CF911F910F91FF90EF900895BE
:101BC0008F929F92AF92BF92CF92DF92EF92FF924D
:101BD0000E9449094B015C010E9449090E94490980
:101BE0006B017C010E94FF03882339F181E080931F
:101BF000FC058093FD0570E060E08091FE0590910A
:101C0000FF050E945F1628EE821623E09206A104CB
:101C1000B10401F522E0C216D104E104F10499F403
:101C20000E94AA19CB01FF90EF90DF90CF90BF9058
:101C3000AF909F908F900C945B081092FD0560E030
:101C400070E0CB01E0CFCD28CE28CF2819F48FEF5C
:101C50009FEFE9CFFF90EF90DF90CF90BF90AF90D4
:101C60009F908F9008951F920F920FB60F9211249C
:101C70002F933F938F939F93AF93BF938091FA01DC
:101C80009091FB01A091FC01B091FD013091F9010F
:101C900023E0230F2D3758F50196A11DB11D209388
:101CA000F9018093FA019093FB01A093FC01B0939A
:101CB000FD018091FE019091FF01A0910002B09181
:101CC00001020196A11DB11D8093FE019093FF01B9
:101CD000A0930002B0930102BF91AF919F918F91A9
:101CE0003F912F910F900FBE0F901F90189526E8EF
:101CF000230F0296A11DB11DD2CF1F920F920FB6D6
:101D00000F9211242F933F934F935F936F937F9381
:101D10008F939F93AF93BF93EF93FF93E091020153
:101D2000F09103010995FF91EF91BF91AF919F91C0
:101D30008F917F916F915F914F913F912F910F9074
:101D40000FBE0F901F9018951F920F920FB60F9213
:101D500011242F933F934F935F936F937F938F93B0
:101D60009F93AF93BF93EF93FF93E0910001F091A6
:101D700001010995FF91EF91BF91AF919F918F91D3
:101D80007F916F915F914F913F912F910F900FBE77
:101D90000F901F9018951F920F920FB60F9211245B
:101DA0002F933F934F935F936F937F938F939F9363
:101DB000AF93BF93EF93FF9385E193E00E94DF061B
:101DC000FF91EF91BF91AF919F918F917F916F9113
:101DD0005F914F913F912F910F900FBE0F901F90E9
:101DE00018951F920F920FB60F9211242F938F9375
:101DF0009F93EF93FF93E0912503F0912603808159
:101E0000E0912B03F0912C0382FD1BC09081809107
:101E10002E038F5F8F7320912F03821741F0E09183
:101E20002E03F0E0EB5EFC4F958F80932E03FF9125
:101E3000EF919F918F912F910F900FBE0F901F9058
:101E400018958081F4CFCF92DF92EF92FF920F939B
:101E50001F93CF93DF93CDB7DEB76B970FB6F89490
:101E6000DEBF0FBECDBF109218031092170388EE8D
:101E700093E0A0E0B0E08093190390931A03A0933D
:101E80001B03B0931C038AE491E0909316038093A4
:101E9000150385EC90E0909322038093210384EC5A
:101EA00090E0909324038093230380EC90E0909340
:101EB00026038093250381EC90E090932803809380
:101EC000270382EC90E090932A038093290386EC09
:101ED00090E090932C0380932B0310922E0310928A
:101EE0002F031092300310923103109209061092C2
:101EF000080685E193E09093040680930306109210
:101F0000BA038CE2809306068BE3809305068FE28A
:101F10008093070680E48093B5038FE38093B60334
:101F20001092B4031092FF051092FE051092010664
:101F30001092000681E08093FC05EAE0F6E08EE670
:101F400096E0119211928E179F07D9F71092B9035C
:101F500083E190E090930C0380930B0360E971E0C0
:101F60008DE093E00E94970D8FEF9FEF9093140305
:101F7000809313034DE06CE08FEF92E00E94EF0836
:101F80004AE06BE083EF92E00E94EF0847E068E0F0
:101F900087EE92E00E94EF0845E066E08BED92E06C
:101FA0000E94EF088CE0EFEFF2E0ABE6B2E00190C8
:101FB0000D928A95E1F769E971E087E792E00E9466
:101FC000970D29E1C22E2CEFD22EEE24EA94FE2C9E
:101FD000C0927D02D0927E02E0927F02F092800257
:101FE00068EA71E081E892E00E94970D8CE0E3EFEF
:101FF000F2E0A7E8B2E001900D928A95E1F76CEB70
:1020000071E083E992E00E94970DC0929902D0920C
:102010009A02E0929B02F0929C0268EA71E08DE9DC
:1020200092E00E94970D8CE0E7EEF2E0A3EAB2E0C6
:1020300001900D928A95E1F76BEC71E08FEA92E0E6
:102040000E94970DC092B502D092B602E092B702FC
:10205000F092B80268EA71E089EB92E00E94970D75
:102060008CE0EBEDF2E0AFEBB2E001900D928A95DF
:10207000E1F76BED71E08BEC92E00E94970DC0925E
:10208000D102D092D202E092D302F092D40268EA56
:1020900071E085ED92E00E94970D8EE08B8B8FE0D2
:1020A0008C8B80E18D8B8FEF8E8B8F8B888F898FC0
:1020B0008A8FFE01739690E080E0219127FD05C094
:1020C000019688309105C9F788E08B8F89E0FE0181
:1020D0007396DE011A9601900D928A95E1F789E0D8
:1020E000FE013A96DE01119601900D928A95E1F774
:1020F0008FEF80935A0299E0FE013196ACE5B2E091
:1021000001900D929A95E1F791E09093650280938A
:102110006602809367029093680281E090E090935A
:102120006A02809369020AE512E098012A5532405A
:102130008091640290E00F5F1F4F2817390734F435
:1021400061E0F80181810E94D004EFCF91E001C0ED
:10215000990F8A95EAF790935B028091670287FD59
:102160000EC0813161F090916802913019F460E005
:102170000E94A20460E0809167020E94D00481E185
:102180008093670210926802EE24E394F12CF0929F
:102190006A02E092690260E00E94A2046091680213
:1021A000809167020E94D00403E010E01093530274
:1021B0000093520282E090E0909355028093540283
:1021C00084E090E09093570280935602F092590277
:1021D000E092580261E083E00E94D00461E08091C7
:1021E00054020E94D00461E0809156020E94D00403
:1021F00061E0809156020E94A20410935302009362
:102200005202E2E1F2E082E592E011928E179F071E
:10221000E1F710E000E08091580290915902081710
:10222000190744F540E06FE0C8010E94BC078091A7
:10223000580290915902081719072CF447E06BE0F7
:10224000C8010E94BC0740E069E0C8010E94BC07C9
:10225000C8010E94C5088091580290915902081740
:1022600019072CF440E06CE0C8010E94BC070F5F26
:102270001F4FD1CF6B960FB6F894DEBF0FBECDBF08
:10228000DF91CF911F910F91FF90EF90DF90CF9052
:102290000895789484B5826084BD84B5816084BDDE
:1022A00085B5826085BD85B5816085BD80916E00F4
:1022B000816080936E001092810080918100826025
:1022C0008093810080918100816080938100809162
:1022D00080008160809380008091B1008460809351
:1022E000B1008091B00081608093B00080917A004D
:1022F000846080937A0080917A00826080937A0073
:1023000080917A00816080937A0080917A00806861
:1023100080937A001092C1000E941F066093F10121
:102320007093F2018093F3019093F4016093F501AF
:102330007093F6018093F7019093F80162E0809129
:1023400036010E94D00461E089E00E94D00461E07F
:1023500080910B030E94D004809158029091590201
:102360001816190634F444E06BE090E080E00E9417
:10237000BC0780915802909159021816190634F43E
:1023800041E06CE090E080E00E94BC078091040195
:10239000082E000C990B0E94190888EB92E20E940B
:1023A0005B0868EE73E080E090E00E94ED0590E04D
:1023B00080E00E94C5086CED75E080E090E00E942E
:1023C000ED05E0912503F091260382E08083E09102
:1023D0002103F09122031082E0912303F091240362
:1023E00080E1808310922D03E0912903F0912A036C
:1023F00086E08083E0912703F0912803808180614B
:102400008083E0912703F091280380818860808396
:10241000E0912703F0912803808180688083E09118
:102420002703F091280380818F7D808365E776E024
:1024300083E00E94CE0A87EE9AE090930B06809389
:102440000A068FE39DE090930F0680930E0682EEBE
:102450009AE090931106809310068EE599E0909390
:1024600015068093140682E699E0909317068093F0
:10247000160680EE9DE0909319068093180689E871
:1024800099E0909321068093200681EA99E0909349
:102490002306809322068BEB99E090932506809388
:1024A000240660910501062E000C770B89E00E943E
:1024B0000C0570E0C72E70E0D72E55245394EFE042
:1024C0006E2E7724739450E4352E65E0462E4BE64D
:1024D000E42E42E0F42ED0E0C0E0D7011B968C91B0
:1024E0008230B8F5F894C7010E946E07F701878122
:1024F0009085A185B285789432E0B595A79597959A
:1025000087953A95D1F742895389648975898701FE
:10251000045E1F4F481759076A077B070CF08CC0F1
:10252000828B938BA48BB58B8091F001882309F467
:1025300067C088E0209779F40E94B90A88EB9BE095
:102540000E949B0A81E090E00E949B0A0E94E3099E
:10255000CBC0F894CBCFC130D10549F40E94B90A61
:1025600088EB9BE00E949B0A84E690E0EDCFC230AE
:10257000D105D9F40E94B90A89EB9BE00E949B0A1D
:1025800081E090E00E949B0A0E94E3098091130180
:102590000E947E05892B09F077C3809104018F5F2B
:1025A0008031B4F58093040135C00E94B90A89EBEB
:1025B0009BE00E949B0A84E690E00E949B0A0E9496
:1025C000E309809113010E947E05892B09F08CC0DC
:1025D00060910501685F60930501062E000C770B82
:1025E00089E00E940C058091F001882309F47CC0E9
:1025F0008CE00E94B90A809105010E947F0AA6CF53
:10260000C330D105F1F2C230D10509F06DC0BECFA3
:102610006092040180910401082E000C990B0E9425
:1026200019088091F001882309F42EC38BE00E94E1
:10263000B90A80910401E1CF84179507A607B7076F
:102640000CF052C0828B938BA48BB58B8091F001E0
:10265000882309F422C288E0209749F40E94B90A2D
:1026600088EB9BE00E949B0A8FEF9FEF6DCFC130FC
:10267000D10549F40E94B90A88EB9BE00E949B0AAD
:102680008CE99FEF61CFC230D105D9F40E94B90A1D
:1026900089EB9BE00E949B0A8FEF9FEF0E949B0AB1
:1026A0000E94E309809113010E947E05892B09F0A5
:1026B000EBC280910401815087FF74CF1092040116
:1026C000A9CF0E94B90A89EB9BE00E949B0A8CE982
:1026D0009FEF0E949B0A0E94E309809113010E94D0
:1026E0007E05892B09F4E2C121967801C430D10519
:1026F00009F0F3CE0E941F060091F5011091F6013A
:102700002091F7013091F801601B710B820B930B44
:10271000653671058105910508F4F3C08091F001DB
:10272000882309F46DC0809136010E947904EC0180
:1027300080913A01082E000C990BC817D907A1F017
:10274000209709F0C0C188E00E94B90A8091370142
:10275000909138010E949B0A81E090E00E949B0AC0
:102760000E94E309C0933A01C0913B018C2F0E9463
:102770006905803891050CF0B6C180913F0188232E
:1027800009F4B1C188E00E94B90A80913C0190919E
:102790003D010E949B0A81E090E00E949B0A0E94FA
:1027A000E30910923F018091F001882349F1C6E0CE
:1027B000D1E010E000E088818130E1F489810E945D
:1027C0007E057C018D81082E000C990BE816F90618
:1027D00089F0E114F10409F0A3C188E00E94B90A6C
:1027E0008A819B810E949B0A8C810E947F0A0E94A1
:1027F000E309ED820F5F1F4F269608301105D9F6C9
:10280000C0913B018C2F0E946905D0911301803843
:1028100091050CF095C18D2F0E947E05892B09F042
:102820008FC188EB92E20E945B0868EE73E080E063
:1028300090E00E94ED0561E383E090E00E94430890
:102840006CE482E090E00E94430862E381E090E063
:102850000E94430860E590E080E00E94430868EE33
:1028600073E080E090E00E94ED0565E383E090E096
:102870000E94430860E582E090E00E94430861E422
:1028800081E090E00E94430864E490E080E00E94D0
:10289000430868EE73E080E090E00E94ED058091CF
:1028A0005802909159021816190644F440921502E4
:1028B00045E064E090E080E00E94BC0760E382E0D5
:1028C00090E00E94430863E381E090E00E944308A7
:1028D00062E690E080E00E94430868EE73E080E0EA
:1028E00090E00E94ED0590E080E00E94C5080E9403
:1028F0001F066093F5017093F6018093F7019093A2
:10290000F8010E941F060091F1011091F20120913F
:10291000F3013091F401601B710B820B930B613E4C
:10292000734984409105C0F090E080E00E94C508A2
:1029300060E080910B030E94A20470E060E089E0F7
:102940000E940C050E941F066093F1017093F20132
:102950008093F3019093F4018091B903811182C1B6
:102960008091030690910406DC01ED91FC910084B6
:10297000F185E02D0995892B09F474C18091030636
:1029800090910406DC01ED91FC910084F185E02D2D
:102990000995E12C22E0F22E8115924064F4809199
:1029A000030690910406DC01ED91FC910084F18511
:1029B000E02D09957C01C0910306D09104069BEFA0
:1029C000892E93E0992E540110E000E0E016F10604
:1029D00009F00DC1D0E0C0E0EC16FD0609F4BCCF53
:1029E000F40191914F011092FB053091070620915F
:1029F000B8039093B803931304C0921302C01092CB
:102A0000B8038091B403E82FF0E040910506EE543E
:102A1000FC4F94130FC1321709F40CC1118688239F
:102A200021F07092FB051092B8031092B40310923B
:102A3000FF051092FE05109201061092000670929A
:102A4000FC051091FB05113009F00AC10E94FF033B
:102A5000882309F4F9C01093FC051093FD058091BB
:102A6000FE059091FF050E94AF178093B303823358
:102A700008F0EFC02091FD05222309F4EAC0FC0113
:102A8000FF27EE0FFF1FE65FF94F0190F081E02D69
:102A9000309709F4DEC00995E3C0C330D10509F4CD
:102AA0001CCEC230D10509F01FCEFCCD80910501AE
:102AB000885087FD05C080930501609105018DCD8B
:102AC00010920501FACFC130D10509F04BCE88E054
:102AD0000E94B90A80913701909138010E949B0AA7
:102AE00090E080E03BCE8C2F0E94690581389340B6
:102AF0000CF459CE80913F01811155CE88E00E949F
:102B0000B90A80913C0190913D010E949B0A90E09E
:102B100080E00E949B0A0E94E30950923F0143CE4D
:102B2000033011050CF065CE88E00E94B90A8A8155
:102B30009B810E949B0A90E080E00E949B0A57CEF6
:102B40008D2F0E947E05892B59F18C2F0E946905DB
:102B5000803891050CF0CBCE809107010E947E0554
:102B6000892B09F0C4CEC5E0D0E060E870E089E0D0
:102B70000E940C0564E670E080E090E00E94ED05A4
:102B800070E060E089E00E940C0564E670E080E09F
:102B900090E00E94ED05219741F70C940000A7CE2C
:102BA000809107010E947E05892B79F680910501AD
:102BB00081111AC03092050160910501062E000CAA
:102BC000770B89E00E940C058CE00E94B90A809185
:102BD00005010E947F0A0E94E30964EF71E080E032
:102BE00090E00E94ED0583CE10920501E5CF0E9492
:102BF0001F06688779878A879B87E881F981028425
:102C0000F385E02DCE01099597FF38C00E941F067D
:102C1000288539854A855B85621B730B840B950B70
:102C20002C813D814E815F81621773078407950770
:102C300020F3D0CE91878F5F8093B4039091B60339
:102C4000891708F0F2CEFDCE1092FD0590E080E0ED
:102C50000CCFE0910806F0910906309709F01BCFE0
:102C60002196BACEC114D10409F431CC0E94CB060E
:102C7000882309F428CC0E94000025CCD5018D932F
:102C80005D010F5F1F4FA2CEC3E0D0E0780125CCDD
:102C9000CF93DF93CBEDD2E06C97CE0146960E94A6
:102CA000CC09CE010C960E94CC0982E0CB36D80725
:102CB00099F78DE093E0DF91CF910C94CC09B0E0CF
:102CC000A0E0E5E6F6E10C946A195C017B01611570
:102CD000710519F0DB018D939C9385010F5F1F4FE8
:102CE000F501D0818D2F90E00E94F4176C01892BA3
:102CF000B9F5DD32B9F50F5F1F4FD5011196DC91A3
:102D0000C1E05801F1E0AF1AB10843E050E060E7DC
:102D100070E0C5010E94FD17892B69F5680182E00A
:102D2000C80ED11C45E050E06BE670E0C6010E9481
:102D3000FD17892B21F4680197E0C90ED11CE1141D
:102D4000F10419F0D701CD92DC9260E070E080E8E8
:102D50009FEFC111FFC060E070E080E89FE7FAC01C
:102D60005801BBCFDB3229F485010E5F1F4FF501FF
:102D7000D181C0E0C6CF43E050E068E670E0C50115
:102D80000E94FD17892BE9F0F80110E000E020E037
:102D900030E0A9015F01B0ED8B2E8D0E89E0881522
:102DA000C8F19C2E689491F88C2F8870C2FF16C0D1
:102DB000811102C00F5F1F4F3196D501DC91C92DE3
:102DC000E9CFE114F10429F00E5F1F4FF7011183E1
:102DD000008360E070E080EC9FE7BCC0882311F0C6
:102DE00001501109A5E0B0E00E9459199B01AC0106
:102DF000220F331F441F551F280D311D411D511D2A
:102E0000283999E93907490799E15907A8F2C660B5
:102E10009C2ED2CFAEEF8A1206C0C3FD3CC09C2EC2
:102E2000689493F8C9CFDF7DD534A9F580818D32C0
:102E300039F4C061DF011296818162E070E006C062
:102E4000DF018B32C1F3119661E070E080535D01C8
:102E5000A61AB70A8A30F8F4E0E8CE16ECE0DE06EF
:102E60005CF4B601660F771F660F771FC60ED71E7C
:102E7000CC0CDD1CC80ED11C5D01FFEFAF1ABF0AE0
:102E80008C9180538A30A8F1C4FF03C0D194C194BF
:102E9000D1080C0D1D1DC1FF09C0E114F10431F072
:102EA00081E0A81AB108D701AD92BC92CA01B9015C
:102EB0000E943718C370C33009F490584B015C016D
:102EC00020E030E0A9010E943218882309F440C0B4
:102ED000CFE9D0E017FF05C0119501951109C7E8AA
:102EE000D0E06E01B8E1CB1AD10880E2E82EF12CD7
:102EF0000FC0D501B1CFFE01259135914591549177
:102F00000E191F09C501B4010E9498184B015C01FC
:102F1000D501C4010E151F0574F72497F594E794A5
:102F2000CC16DD06A9F78A2F880F8B2F881F8F3FBD
:102F300049F020E030E0A901C501B4010E94321837
:102F4000811106C082E290E090936F0680936E0636
:102F5000C501B401CDB7DEB7ECE00C948619FC01D5
:102F600088279927E89421912032E9F3293010F03D
:102F70002E30C8F32B3241F02D3239F4689404C05E
:102F80000E942A18820F911D219120532A30C0F3EC
:102F90001EF4909581959F4F08951F93FC019927EA
:102FA0008827BC01E89411911032E9F3193010F030
:102FB0001E30C8F31B3251F01D3249F4689406C02C
:102FC0000E941518610F711D811D911D11911053E3
:102FD0001A30B0F33EF490958095709561957F4FCF
:102FE0008F4F9F4F1F91089591110C9405198032B6
:102FF00019F089508550C8F70895FB01DC01415054
:10300000504088F08D9181341CF08B350CF4805E3B
:10301000659161341CF06B350CF4605E861B6111A8
:1030200071F3990B0895881BFCCF592F482F372F28
:10303000262F660F771F881F991F660F771F881F1F
:10304000991F620F731F841F951F660F771F881FBC
:10305000991F08957AE0979F902D879F802D910D5D
:10306000112408950E94741808F481E00895E894EA
:1030700009C097FB3EF490958095709561957F4FC0
:103080008F4F9F4F9923A9F0F92F96E9BB2793956E
:10309000F695879577956795B795F111F8CFFAF47E
:1030A000BB0F11F460FF1BC06F5F7F4F8F4F9F4FAF
:1030B00016C0882311F096E911C0772321F09EE80D
:1030C000872F762F05C0662371F096E8862F70E073
:1030D00060E02AF09A95660F771F881FDAF7880F4D
:1030E0009695879597F90895990F0008550FAA0BA3
:1030F000E0E8FEEF16161706E807F907C0F012160B
:103100001306E407F50798F0621B730B840B950B0D
:1031100039F40A2661F0232B242B252B21F4089562
:103120000A2609F4A140A6958FEF811D811D0895FF
:103130000E94AB180C941F190E94111938F00E94BC
:10314000181920F0952311F00C9408190C940E19FD
:1031500011240C9453190E94301970F3959FC1F3F8
:10316000950F50E0551F629FF001729FBB27F00D35
:10317000B11D639FAA27F00DB11DAA1F649F66278A
:10318000B00DA11D661F829F2227B00DA11D621FD9
:10319000739FB00DA11D621F839FA00D611D221F93
:1031A000749F3327A00D611D231F849F600D211D77
:1031B000822F762F6A2F11249F5750409AF0F1F0FA
:1031C00088234AF0EE0FFF1FBB1F661F771F881F63
:1031D00091505040A9F79E3F510580F00C9408197A
:1031E0000C9453195F3FE4F3983ED4F3869577959A
:1031F0006795B795F795E7959F5FC1F7FE2B880F09
:10320000911D9695879597F9089599278827089590
:1032100097F99F6780E870E060E008959FEF80EC89
:10322000089500240A94161617061806090608952C
:1032300000240A9412161306140605060895092E92
:103240000394000C11F4882352F0BB0F40F4BF2B01
:1032500011F460FF04C06F5F7F4F8F4F9F4F089541
:1032600057FD9058440F551F59F05F3F71F0479537
:10327000880F97FB991F61F09F3F79F0879508951C
:10328000121613061406551FF2CF4695F1DF08C03B
:10329000161617061806991FF1CF86957105610558
:1032A00008940895E894BB2766277727CB0197F900
:1032B00008950E949B19A59F900DB49F900DA49F07
:1032C000800D911D112408952F923F924F925F928D
:1032D0006F927F928F929F92AF92BF92CF92DF9226
:1032E000EF92FF920F931F93CF93DF93CDB7DEB78B
:1032F000CA1BDB0B0FB6F894DEBF0FBECDBF09941F
:103300002A88398848885F846E847D848C849B8475
:10331000AA84B984C884DF80EE80FD800C811B8183
:10332000AA81B981CE0FD11D0FB6F894DEBF0FBEB2
:10333000CDBFED010895A29FB001B39FC001A39F2F
:10334000700D811D1124911DB29F700D811D1124DE
:10335000911D08950E94B1196894B1110C945319EC
:1033600008950E94381988F09F5798F0B92F99272F
:10337000B751B0F0E1F0660F771F881F991F1AF060
:10338000BA95C9F714C0B13091F00E945219B1E05A
:1033900008950C945219672F782F8827B85F39F059
:1033A000B93FCCF3869577956795B395D9F73EF4F9
:1033B00090958095709561957F4F8F4F9F4F0895A1
:1033C00097FB072E16F4009407D077FD09D00E94D2
:1033D000161A07FC05D03EF4909581959F4F0895ED
:1033E000709561957F4F0895A1E21A2EAA1BBB1B11
:1033F000FD010DC0AA1FBB1FEE1FFF1FA217B307C1
:10340000E407F50720F0A21BB30BE40BF50B661FD6
:10341000771F881F991F1A9469F76095709580959A
:1034200090959B01AC01BD01CF010895AA1BBB1B68
:1034300051E107C0AA1FBB1FA617B70710F0A61BB4
:10344000B70B881F991F5A95A9F780959095BC01D5
:10345000CD010895EE0FFF1F0590F491E02D099422
:103460000F931F93CF93DF938230910510F482E086
:1034700090E0E0917206F091730630E020E0B0E059
:10348000A0E0309799F42115310509F44AC0281BB2
:10349000390B24303105D8F58A819B81611571057E
:1034A00089F1FB0193838283FE0111C04081518128
:1034B0000281138148175907E0F04817590799F41A
:1034C000109761F012960C93129713961C933296F4
:1034D000CF01DF91CF911F910F9108950093720654
:1034E00010937306F4CF2115310551F0421753079D
:1034F00038F0A901DB019A01BD01DF01F801C1CF5C
:10350000EF01F9CF9093730680937206CDCFFE0141
:10351000E20FF31F8193919322503109398328835D
:10352000D7CF2091700630917106232B41F4209162
:10353000420130914301309371062093700620912F
:103540004001309141012115310541F42DB73EB7BD
:103550004091440150914501241B350BE0917006C8
:10356000F0917106E217F307A0F42E1B3F0B28170A
:10357000390778F0AC014E5F5F4F2417350748F0EC
:103580004E0F5F1F50937106409370068193919385
:103590009FCFF0E0E0E09CCFCF93DF930097E9F07E
:1035A000FC01329713821282A0917206B0917306C9
:1035B000ED0130E020E01097A1F420813181820FED
:1035C000931F20917006309171062817390709F072
:1035D00061C0F0937106E0937006DF91CF9108957A
:1035E000EA01CE17DF07E8F54A815B819E014115AC
:1035F0005105B1F7E901FB83EA8349915991C40F61
:10360000D51FEC17FD0761F4808191810296840F2C
:10361000951FE90199838883828193819B838A83A3
:10362000F0E0E0E012968D919C9113970097B9F528
:103630002D913C911197CD010296820F931F2091FD
:103640007006309171062817390739F6309751F511
:103650001092730610927206B0937106A0937006D2
:10366000BCCFD383C28340815181840F951FC8177B
:10367000D90761F44E5F5F4F88819981480F591FC8
:10368000518340838A819B819383828321153105F5
:1036900009F0B0CFF0937306E09372069ECFFD0160
:1036A000DC01C0CF13821282D7CFB0E0A0E0EBE5FF
:1036B000FBE10C9466198C01009751F4CB010E9438
:1036C000301A8C01C801CDB7DEB7E0E10C94821945
:1036D000FC01E60FF71F9C0122503109E217F307A6
:1036E00008F49DC0D901CD91DC911197C617D70779
:1036F00098F0C530D10530F3CE01049786179707AF
:1037000008F3C61BD70B2297C193D1936D937C937B
:10371000CF010E94CC1AD6CF5B01AC1ABD0A4C0176
:103720008C0E9D1EA0917206B0917306512C412CF7
:10373000F12CE12C109731F5809170069091710673
:103740008815990509F05CC04616570608F058C060
:103750008091400190914101009741F48DB79EB74F
:103760004091440150914501841B950BE817F907DE
:1037700008F055C0F0937106E0937006F90171836B
:103780006083A0CF8D919C91119712966C901297A7
:1037900013967C901397A815B90559F56C0142E072
:1037A000C40ED11CCA14DB0420F1AC014A195B0918
:1037B000DA011296159780F06282738251834083FA
:1037C000D9016D937C93E114F10471F0D701139644
:1037D000FC93EE93129776CF22968C0F9D1FF901E2
:1037E00091838083F301EFCFF0937306E093720629
:1037F00069CF4816590608F42C017D01D3019ACFF0
:10380000CB010E94301A7C01009749F0AE01B8014B
:103810000E94121CC8010E94CC1A870153CF10E0ED
:1038200000E050CFFB01DC0102C001900D9241503D
:103830005040D8F70895FB01DC018D91019080196B
:103840000110D9F3990B0895FB01DC0101900D9251
:103850000020E1F7089513E0C3EBD3E004C0FE01BC
:103860000E942A1A2196C43BD107C9F7F894FFCFCA
:103870002B062B0608400100990801FF0101D10722
:1038800001FF0102D20701FF01079B0800FF0106AB
:103890009B0801FF01059B0802FF01049B0803FF31
:1038A00001039B0804FF12D00701FF149A0801FFCF
:1038B00000007406800000000000010761068E060B
:1038C0004E07BF069D06B1060D0A00494E49540039
:1038D0005343414E53544154450050494E470045CF
:1038E0004E4400434F4E4649470053544152540002
:1038F00053544F5000444953434F4E4E4543540098
:103900004641494C5F4C4544004C4546545F494E46
:103910004E45525F454E4300535041445F444F551E
:10392000424C455F454E434F444552004C4546543A
:103930005F4F555445525F454E43005249474854E6
:103940005F494E4E45525F454E43005249474854E9
:0C3950005F4F555445525F454E43000048
:00000001FF
