:100000000C94DB000C9403010C9403010C94030189
:100010000C9403010C9403010C9403010C94030150
:100020000C9403010C9403010C9403010C94030140
:100030000C9403010C9403010C9403010C94030130
:100040000C94790C0C9403010C94470C0C94210C27
:100050000C9403010C9403010C9403010C94030110
:100060000C9403010C9403014F5554505554004F08
:1000700055545055540053544154455343414E0038
:100080004E4F5F444953504C41595F434C45415298
:100090003D3100444154415F434F4F4C444F574E14
:1000A0003D30004F55545F434F4F4C444F574E3DEA
:1000B000300050414745535550504F52543D310048
:1000C00055495F545950453D3000495347454E45C9
:1000D0005249433D3100415554484F523D643932F5
:1000E000333739343366373539363864383165312A
:1000F0003261666631326138356132343000330046
:10010000434F52452D4154435F7633006562366458
:10011000626336642D613137392D343631392D38EB
:100120003261612D6630373930363230396663647A
:10013000005350414400494E50555400494E5055CB
:10014000540000000000240027002A0000000000E6
:10015000250028002B0000000000230026002900B5
:10016000040404040404040402020202020203035D
:100170000303030301020408102040800102040865
:1001800010200102040810200000000800020100F5
:100190000003040700000000000000004154544127
:1001A0004348494E472043414C4C4241434B532125
:1001B0000000C30C071211241FBECFEFD8E0DEBF32
:1001C000CDBF27E0A8E5B3E001C01D92A630B2077D
:1001D000E1F713E0A0E0B1E0E8E4FAE202C0059044
:1001E0000D92A835B107D9F710E0CAEDD0E004C0F0
:1001F0002197FE010E940713C93DD107C9F70E944C
:10020000090E0C9417150C940000AC0110924B04CD
:1002100090919B0680919A06FA01BF01641B750BB1
:1002200020914B04308130934B04931304C09213FC
:1002300002C010924B043081311104C0921721F09A
:10024000CB0108953817D1F33196E7CF0F931F9361
:10025000CF93DF9380918F06882309F446C0D0E0C6
:10026000C0E0813029F482E080938F06CFE4D4E0AF
:1002700080919006882341F1209721F4C091940643
:10028000D09195068E01CE010E940501892B29F49B
:100290002196F80180818111F5CFF80180818823B2
:1002A00009F1C8010E940501F801E80FF91F8081DA
:1002B000882311F010823196F0939506E09394060E
:1002C0001093930600939206809192069091930664
:1002D000892B59F081E080939006DF91CF911F9197
:1002E0000F91089510E000E0EBCF80E0F6CFDC0145
:1002F000ED91FC910190F081E02D0994EF92FF9235
:100300000F931F93CF93DF93209146042223E9F0AC
:100310008C0160919A0680919706909198060E94B0
:100320007701E0909706F0909806E801FE0164914D
:10033000662359F0D701ED91FC910190F081E02DF9
:10034000C70109952196892B89F7DF91CF911F91DC
:100350000F91FF90EF900895CF93DF932091460483
:100360002223D1F0EC0160919A068091970690913A
:1003700098060E94770180919706909198064C818B
:100380005D8168817981DC01ED91FC910280F381CE
:10039000E02DDF91CF910994DF91CF910895AF9235
:1003A000BF92CF92DF92EF92FF920F931F93CF9362
:1003B000DF936C017B018B01040F151FEB015E01C4
:1003C000AE18BF08C017D10759F06991D601ED9159
:1003D000FC910190F081E02DC6010995892B79F7F8
:1003E000C501DF91CF911F910F91FF90EF90DF90AA
:1003F000CF90BF90AF900895FC01538D448D252F71
:1004000030E0842F90E0821B930B541710F0CF96AE
:10041000089501970895FC01918D828D981761F0E0
:10042000A28DAE0FBF2FB11D5D968C91928D9F5FF7
:100430009F73928F90E008958FEF9FEF0895FC01D6
:10044000918D828D981731F0828DE80FF11D858D89
:1004500090E008958FEF9FEF0895FC01918D228D1C
:10046000892F90E0805C9F4F821B91098F739927A1
:10047000089589EA93E00E942D0221E0892B09F476
:1004800020E0822F089580E090E0892B29F00E94DF
:10049000390281110C9400000895FC01A48DA80F6D
:1004A000B92FB11DA35ABF4F2C91848D90E00196B6
:1004B0008F739927848FA689B7892C93A089B189D6
:1004C0008C91837080648C93938D848D981306C077
:1004D0000288F389E02D80818F7D80830895EF92DB
:1004E000FF920F931F93CF93DF93EC0181E0888FEE
:1004F0009B8D8C8D98131AC0E889F989808185FFBE
:1005000015C09FB7F894EE89FF896083E889F9895F
:1005100080818370806480839FBF81E090E0DF9161
:10052000CF911F910F91FF90EF900895F62E0B8DB4
:1005300010E00F5F1F4F0F731127E02E8C8D8E116F
:100540000CC00FB607FCFACFE889F989808185FFD6
:10055000F5CFCE010E944D02F1CFEB8DEC0FFD2FB8
:10056000F11DE35AFF4FF0829FB7F8940B8FEA8991
:10057000FB8980818062CFCFCF93DF93EC01888DA0
:100580008823B9F0AA89BB89E889F9898C9185FD0E
:1005900003C0808186FD0DC00FB607FCF7CF8C919C
:1005A00085FFF2CF808185FFEDCFCE010E944D0205
:1005B000E9CFDF91CF910895833081F028F4813025
:1005C00099F08230A9F008958730A9F08830C9F0F9
:1005D0008430B1F4809180008F7D03C080918000D1
:1005E0008F7780938000089584B58F7784BD0895B8
:1005F00084B58F7DFBCF8091B0008F778093B00062
:1006000008958091B0008F7DF9CFCF93DF93282F8D
:1006100030E0F901E857FE4F8491F901EC58FE4FA4
:10062000D491F901E05AFE4FC491CC23A1F081117D
:100630000E94DC02EC2FF0E0EE0FFF1FEA5AFE4FA3
:10064000A591B491EC91ED2381E090E009F480E074
:10065000DF91CF91089580E090E0FACF1F93CF9380
:10066000DF93282F30E0F901E857FE4F8491F9011C
:10067000EC58FE4FD491F901E05AFE4FC491CC23BF
:10068000A9F0162F81110E94DC02EC2FF0E0EE0F92
:10069000FF1FE45BFE4FA591B4918FB7F894EC91E6
:1006A000111108C0D095DE23DC938FBFDF91CF916D
:1006B0001F910895DE2BF8CFCF93DF9390E0FC01DC
:1006C000EC58FE4F2491805A9E4FFC018491882360
:1006D000C9F090E0880F991FFC01EE5BFE4FA591D9
:1006E000B491FC01E45BFE4FC591D49161110DC042
:1006F0009FB7F8948C91209582238C93888128232E
:1007000028839FBFDF91CF910895623051F49FB746
:10071000F8943C91822F809583238C93E8812E2B33
:10072000EFCF8FB7F894EC912E2B2C938FBFEACF9D
:100730003FB7F89480915B0390915C03A0915D03B7
:10074000B0915E0326B5A89B05C02F3F19F0019616
:10075000A11DB11D3FBFBA2FA92F982F8827BC011B
:10076000CD01620F711D811D911D42E0660F771F43
:10077000881F991F4A95D1F708958F929F92AF9243
:10078000BF92CF92DF92EF92FF924B015C010E94E9
:1007900098036B017C010E9498036C197D098E09F6
:1007A0009F09683E734081059105A8F321E0821AF4
:1007B0009108A108B10888EEC80E83E0D81EE11C9C
:1007C000F11C81149104A104B10429F7FF90EF906A
:1007D000DF90CF90BF90AF909F908F9008950F9330
:1007E0001F93CF9390919203891711F1082F082E30
:1007F000000C110B9091930390171106C9F0C4F0EF
:1008000080939203C0E080919C03C81788F4EC2F7A
:10081000F0E0B8010C2E02C0759567950A94E2F7D6
:100820006170EE56FC4F82810E942E03CF5FEBCFAA
:1008300081E1CF911F910F910C9405030F931F93AA
:10084000CF93DF93082F162FD42FC8E06D2F661F8C
:100850006627661F802F0E942E03DD0F61E0812F27
:100860000E942E0360E0812F0E942E03C15071F779
:10087000DF91CF911F910F9108950F931F93CF9305
:10088000DF9300D0CDB7DEB789836A8303EA13E034
:1008900060E0F80182810E942E034981F8016081A5
:1008A00084810E941E044A81F801608184810E9433
:1008B0001E0461E0F80182810F900F90DF91CF91CB
:1008C0001F910F910C942E03CF93C1E060E08C2F09
:1008D0000E943D04CF5FC930C9F7CF9108950E94AF
:1008E0002601882359F081E0809390068093910639
:1008F00080919206909193060C9435121092910675
:1009000060E070E0CB010895CF930E946F04C62F82
:100910000E946F04672B682B692B29F061E08C2FF4
:10092000CF910C942E0360E0FACF9F92AF92BF92CA
:10093000CF92DF92EF92FF920F931F93CF93DF93AB
:10094000CDB7DEB7E0970FB6F894DEBF0FBECDBFD0
:100950001AA219A2FE01B3962EE0DF011D922A957C
:10096000E9F7FC0101900020E9F79F0121503109CE
:10097000281B390B2131310510F020E130E0DC017A
:1009800010E000E041E050E0BD01681B790B621708
:1009900073072CF56D916E3269F4F8013197EE0F03
:1009A000FF1F61E070E06C0F7D1FE60FF71F5183A2
:1009B0004083EACFE1E2F0E0EC0FFD1FE00FF11F12
:1009C0006083F801EE0FFF1F61E070E06C0F7D1F88
:1009D000E60FF71F118210820F5F1F4FD5CF09302E
:1009E000110514F008E010E099249A94900ECE01BD
:1009F00001967C015E0191E2A90EB11C6501C60160
:100A00008A199B09801791079CF5D7012D913D917B
:100A10007D01F60141916F018DED840F8A3000F167
:100A200091E080E0232B09F490E0292F382FE8E4AF
:100A3000F1E090E080E050815523C1F032965413EC
:100A400013C0880F991FFC01E85BFE4F6181232BC7
:100A500009F0606881E0890D0E943D049A94CFCF2F
:100A6000435F21E030E0E3CF0196E5CF60E0F2CFD5
:100A7000E0960FB6F894DEBF0FBECDBFDF91CF91E9
:100A80001F910F91FF90EF90DF90CF90BF90AF90AC
:100A90009F900895FB0101900020E9F73197AF0185
:100AA000461B570BDC01ED91FC910280F381E02D98
:100AB0000994809146048823A1F060919906809161
:100AC0009706909198060E94770180914E048823A2
:100AD00041F066EC71E080919706909198060E9433
:100AE0004A0510924D041092460480E008958F92BA
:100AF0009F92AF92BF92EF92FF920F931F93CF936B
:100B0000DF93CDB7DEB7A1970FB6F894DEBF0FBE67
:100B1000CDBF7C01FA01CB0119A2223008F42AE0F2
:100B20008E010F5D1F4F822E912CB12CA12CBF0185
:100B3000A50194010E94E512F901CA016A300CF581
:100B4000605DD8016E938D01232B242B252B79F723
:100B500090E080E0109721F0BD01C7010E944A0596
:100B6000A1960FB6F894DEBF0FBECDBFDF91CF9137
:100B70001F910F91FF90EF90BF90AF909F908F903B
:100B80000895695CDECFCF92DF92EF92FF920F93D0
:100B90001F93CF93DF9377FF1DC06A017B01EC01A8
:100BA0006DE20E9477018C0144275527BA014C1948
:100BB0005D096E097F092AE0CE010E947705800F4A
:100BC000911FDF91CF911F910F91FF90EF90DF90D8
:100BD000CF9008952AE0DF91CF911F910F91FF9060
:100BE000EF90DF90CF900C947705CF93DF93209117
:100BF00046042223A9F0EC0160919A0680919706A1
:100C0000909198060E947701AE01DD0F660B770B7D
:100C10008091970690919806DF91CF910C94C3052F
:100C2000DF91CF91089590914604911110C091E009
:100C30009093460490934D04482F50E070E060E09C
:100C40002AE080919706909198060C947705089574
:100C5000CF93DF9320914604222391F0EC01609121
:100C60009A0680919706909198060E947701BE019E
:100C70008091970690919806DF91CF910C944A0548
:100C8000DF91CF910895CF93DF9390914604911116
:100C90000AC0EB010E941306CE010E942806DF91D4
:100CA000CF910C94590580E0DF91CF91089569ECC4
:100CB00071E083E00C944306FC0124813581232BF1
:100CC00049F069ED71E0808191810E94F81421E082
:100CD000892B09F020E0822F0895CF93DF930E94A3
:100CE00026018823B1F081E08093900680939106DD
:100CF000C0919206D09193066DED71E0CE010E94F5
:100D0000F814892B59F481E080937903DF91CF9116
:100D1000089510929106D0E0C0E0EECF69ED71E049
:100D2000CE010E94F814892B89F710927903EECF37
:100D30000F931F93CF93DF93EC01888199810097E4
:100D400059F02A813B812617370730F081E0DF9187
:100D5000CF911F910F9108958B016F5F7F4F0E947C
:100D60003214009759F0998388831B830A832C815E
:100D70003D81232B59F7FC011082E8CF80E0E7CFBB
:100D8000CF93DF93EC0188819981009711F00E9445
:100D9000A913198218821D821C821B821A82DF917C
:100DA000CF910895EF92FF920F931F93CF93DF930C
:100DB000EC017B018A01BA010E94980681110BC0E7
:100DC000CE010E94C006CE01DF91CF911F910F91FD
:100DD000FF90EF9008951D830C83B701888199815E
:100DE0000E940115F0CFEF92FF920F931F93CF93C4
:100DF000DF93CDB7DEB762970FB6F894DEBF0FBEB4
:100E0000CDBF8C01FC0111821082138212821582E7
:100E100014824AE0CE0101967C01BC0182E190E09F
:100E20000E945C12F70101900020E9F73197AF01B1
:100E30004E195F09B701C8010E94D20662960FB62B
:100E4000F894DEBF0FBECDBFDF91CF911F910F9100
:100E5000FF90EF900895FB01DC0111961C921E9209
:100E600013961C921E92129715961C921E9214971E
:100E70008617970749F0608171816115710521F02E
:100E8000448155810C94D2060895FC011182108290
:100E900013821282158214826115710551F0FB01D3
:100EA00001900020E9F73197AF01461B570B0C94D6
:100EB000D2060895FC0180819181009711F00C9475
:100EC000A91308958F929F92AF92BF92CF92DF9213
:100ED000EF92FF920F931F93CF93DF9300D000D038
:100EE00000D0CDB7DEB74B015C016A01790180E02B
:100EF0000E9413068CE391E00E947E0180914604DB
:100F0000882381F060919A068091970690919806C7
:100F10000E947701B501A4018091970690919806EF
:100F20000E94C305B601CE0101960E942B07CE0197
:100F300001960E94AC01CE0101960E945A07B701AA
:100F4000CE0101960E942B07CE0101960E94AC01B2
:100F5000CE0101960E945A07B801CE0101960E9467
:100F60002B07CE0101960E94AC01CE0101960E9492
:100F70005A070E94590526960FB6F894DEBF0FBE99
:100F8000CDBFDF91CF911F910F91FF90EF90DF9038
:100F9000CF90BF90AF909F908F900895AF92BF92E7
:100FA000CF92DF92EF92FF920F931F93CF93DF9335
:100FB00000D000D000D0CDB7DEB75C016B017A0164
:100FC000890180E00E94130686E391E00E947E0181
:100FD000C5010E94F505B601CE0101960E942B07BE
:100FE000CE0101960E94AC01CE0101960E945A07E3
:100FF000B701CE0101960E942B07CE0101960E94F7
:10100000AC01CE0101960E945A07B801CE010196AB
:101010000E942B07CE0101960E94AC01CE010196E1
:101020000E945A070E94590526960FB6F894DEBF13
:101030000FBECDBFDF91CF911F910F91FF90EF9029
:10104000DF90CF90BF90AF900895BF92CF92DF9284
:10105000EF92FF920F931F93CF93DF93CDB7DEB73D
:101060006A970FB6F894DEBF0FBECDBF0E9426016F
:10107000882361F181E0809390068093910600912E
:1010800092061091930663EE71E0C8010E94F81475
:10109000892B09F580E00E94130681E391E00E940C
:1010A0007E018CE091E00E947E0180E091E00E9450
:1010B0007E0182E090E00E94F5058EEF90E00E94B4
:1010C0007E0186ED90E00E947E012BC01092910679
:1010D00010E000E0D8CF68EE71E0C8010E94F8147B
:1010E000892B89F580E00E9413068DEE91E00E9425
:1010F00028060E946F046B017C01809146048823BE
:1011000081F060919A0680919706909198060E94CE
:101110007701B701A60180919706909198060E94E9
:10112000C3050E9459056A960FB6F894DEBF0FBE3C
:10113000CDBFDF91CF911F910F91FF90EF90DF9086
:10114000CF90BF90089562EF71E0C8010E94F8143B
:10115000892B09F0BEC280E00E94130689EF91E05E
:101160000E9428068AEC90E00E947E0180EC90E0CC
:101170000E947E0182EB90E00E947E0183EA90E073
:101180000E947E0183E990E00E947E0180E890E069
:101190000E947E010E94590560E072E0CE010F9628
:1011A0000E9445076DE372E0CE0109960E94450753
:1011B00062E172E09E012F5F3F4F7901C9010E94F9
:1011C00045079E01215F3F4FAE01475F5F4FB7016B
:1011D00083E090E00E94CE07C7010E945A07CE012B
:1011E00009960E945A07CE010F960E945A0760E0A6
:1011F00072E0CE010F960E9445076DE372E0CE01CA
:1012000009960E94450767E172E0C7010E94450701
:101210009E01215F3F4FAE01475F5F4FB70184E002
:1012200090E00E94CE07C7010E945A07CE0109969E
:101230000E945A07CE010F960E945A0760E072E0A2
:10124000CE010F960E9445076DE372E0CE0109962C
:101250000E94450764E272E0C7010E9445079E01B3
:10126000215F3F4FAE01475F5F4FB70185E090E0E0
:101270000E94CE07C7010E945A07CE0109960E941C
:101280005A07CE010F960E945A0760E072E0CE0125
:101290000F960E9445076DE372E0CE0109960E9409
:1012A00045076AE272E0C7010E9445079E01215F7F
:1012B0003F4FAE01475F5F4FB70186E090E00E946D
:1012C000CE07C7010E945A07CE0109960E945A070D
:1012D000CE010F960E945A0760E072E0CE010F9691
:1012E0000E9445076DE372E0CE0109960E94450712
:1012F00062E372E0C7010E9445079E01215F3F4FF4
:10130000AE01475F5F4FB70187E090E00E94CE07D4
:10131000C7010E945A07CE0109960E945A07CE01C2
:101320000F960E945A0768E372E0CE010F960E9462
:1013300045076DE372E0CE0109960E94450764E41B
:1013400072E0C7010E9445079E01215F3F4FAE0139
:10135000475F5F4FB70181E090E00E94CE07C70171
:101360000E945A07CE0109960E945A07CE010F9695
:101370000E945A0768E372E0CE010F960E9445076B
:101380006DE372E0CE0109960E94450761E572E0C7
:10139000C7010E9445079E01215F3F4FAE01475F95
:1013A0005F4FB70182E090E00E94CE07C7010E9424
:1013B0005A07CE0109960E945A07CE010F960E9445
:1013C0005A07109259031092580326E0D22E8091AA
:1013D000580390915903D89E8001D99E100D112475
:1013E00004571C4FC8010E945C06811136C060E0A2
:1013F00072E0CE010F960E9445076DE372E0CE01C8
:1014000009960E944507B801C7010E942B079E015B
:10141000215F3F4FAE01475F5F4FB70182E190E030
:101420000E94CE07C7010E945A07CE0109960E946A
:101430005A07CE010F960E945A0780915803909147
:1014400059030196909359038093580365E070E027
:1014500080E090E00E94BD03BACF10925903109231
:10146000580396E0B92E0091580310915903B09E8D
:10147000C001B19E900D11249C0126583C4F69017A
:10148000C9010E945C06811164C063E672E0CE016E
:1014900045960E94450768E672E0CE010F960E94CD
:1014A0004507B601CE0109960E942B07000F111FB8
:1014B000F801E45DFE4F0081118180E00E94130677
:1014C00088E690E00E947E01C8010E94F505BE01F9
:1014D000675F7F4FC7010E942B07C7010E94AC01C5
:1014E000C7010E945A07BE01615F7F4FC7010E947A
:1014F0002B07C7010E94AC01C7010E945A07BE0119
:101500006B5E7F4FC7010E942B07C7010E94AC0191
:10151000C7010E945A070E945905CE0109960E94F0
:101520005A07CE010F960E945A07CE0145960E9497
:101530005A0780915803909159030196909359034B
:101540008093580365E070E080E090E00E94BD0366
:101550008ACF6CE672E0CE010F960E94450768E7DD
:1015600072E0CE0109960E94450760E872E0C7016B
:101570000E9445078E01015F1F4F9E01275F3F4F6D
:10158000A70165E670E080E090E00E946207C70175
:101590000E945A07CE0109960E945A07C8010E946C
:1015A0005A076CE672E0C8010E94450768E772E0DE
:1015B000CE0109960E9445076AE872E0C7010E94C1
:1015C00045079E01275F3F4FA70166E670E080E078
:1015D00090E00E946207C7010E945A07CE01099657
:1015E0000E945A07C8010E945A0764E972E0C801C4
:1015F0000E94450780E00E9413068FE690E00E945B
:101600007E0181E090E00E94F505B801C7010E94CB
:101610002B07C7010E94AC01C7010E945A0782EA4A
:1016200092E00E9428068DE992E00E9428066AEA6C
:1016300072E0CE0109960E9445074AE0B70184E0B6
:1016400090E00E945C12F70101900020E9F73197C9
:10165000EE19FF09B1F00D851E850E0F1F1FB80191
:10166000CE0109960E949806882359F029853A856B
:101670008D859E85B701820F931F0E9401151E87DD
:101680000D87BE01675F7F4FC7010E942B07C7010F
:101690000E94AC01C7010E945A0782EB92E00E94AF
:1016A000280689EB92E00E94280683EC92E00E94D3
:1016B00028060E945905CE0109960E945A07CE01BC
:1016C0000F960E945A0762EF71E080E00E94430685
:1016D00028CD6DEC72E0C8010E94F814892B49F402
:1016E00081E08093790380E00E94130686E790E012
:1016F000EACC69ED71E0C8010E94F814892B09F069
:1017000012CD109279030FCD0F931F93CF93DF93D8
:1017100000D000D000D0CDB7DEB78C0188E00E94A9
:101720001306B801CE0101960E942B078091460452
:101730008823B9F060919A06809197069091980657
:101740000E94770180919706909198064D815E8165
:1017500069817A81DC01ED91FC910280F381E02DB9
:101760000995CE0101960E945A070E9459052696B6
:101770000FB6F894DEBF0FBECDBFDF91CF911F91A2
:101780000F910895CF92DF92EF92FF920F931F93E4
:10179000CF93DF9300D000D000D0CDB7DEB70E944A
:1017A0006F046B017C010E946F040E946F040E9411
:1017B0002601882381F181E0809390068093910631
:1017C0006091920670919306CE0101960E944507A2
:1017D0000D811E810115110519F510925F03CA9440
:1017E000CD28CE28CF2821F48FE593E00E949504E0
:1017F000CE0101960E945A0726960FB6F894DEBFD6
:101800000FBECDBFDF91CF911F910F91FF90EF9051
:10181000DF90CF9008951092910670E060E0D4CFF1
:101820000331110510F003E110E069817A81A8010C
:101830008FE593E00E940815F801E15AFC4F1082F1
:10184000CECF1F920F920FB60F9211242F933F937A
:101850004F935F936F937F938F939F93AF93BF93B8
:10186000EF93FF9389EA93E00E944D02FF91EF917D
:10187000BF91AF919F918F917F916F915F914F91A8
:101880003F912F910F900FBE0F901F9018951F92B0
:101890000F920FB60F9211242F938F939F93EF9374
:1018A000FF93E091B903F091BA038081E091BF0307
:1018B000F091C00382FD1BC090818091C2038F5FB5
:1018C0008F732091C303821741F0E091C203F0E0CF
:1018D000E755FC4F958F8093C203FF91EF919F9145
:1018E0008F912F910F900FBE0F901F9018958081B0
:1018F000F4CF1F920F920FB60F9211242F933F93A4
:101900008F939F93AF93BF938091750390917603CC
:10191000A0917703B091780330915A0323E0230F0D
:101920002D3758F50196A11DB11D20935A038093C0
:10193000750390937603A0937703B0937803809117
:101940005B0390915C03A0915D03B0915E030196EF
:10195000A11DB11D80935B0390935C03A0935D0375
:10196000B0935E03BF91AF919F918F913F912F9163
:101970000F900FBE0F901F90189526E8230F029628
:10198000A11DB11DD2CF0F931F93CF93DF93CDB77E
:10199000DEB76B970FB6F894DEBF0FBECDBF1092C7
:1019A000AC031092AB0388EE93E0A0E0B0E080932C
:1019B000AD039093AE03A093AF03B093B00388EB55
:1019C00091E09093AA038093A90385EC90E0909313
:1019D000B6038093B50384EC90E09093B8038093B2
:1019E000B70380EC90E09093BA038093B90381EC45
:1019F00090E09093BC038093BB0382EC90E09093C3
:101A0000BE038093BD0386EC90E09093C003809367
:101A1000BF031092C2031092C3031092C40310922A
:101A2000C50310929D0610929C0689EA93E090935C
:101A300098068093970610924E048CE280939A0643
:101A40008BE3809399068FE280939B0680E48093DA
:101A500049048FE380934A0410924804109293063D
:101A600010929206109295061092940681E080934F
:101A70009006EEE9F6E01192119287E0E230F80765
:101A8000D1F710924D0483E090E09093A8038093E7
:101A9000A70384E090E09093A6038093A50382E0DF
:101AA00090E09093A4038093A30361E083E00E94FD
:101AB0005C0361E08091A5030E945C0361E080917A
:101AC000A3030E945C038EE08B8B8FE08C8B80E104
:101AD0008D8B8FEF8E8B8F8B888F898F8A8FFE01F6
:101AE000739690E080E0219127FD05C00196883033
:101AF0009105C9F788E08B8F89E0FE017396DE01BE
:101B00001A9601900D928A95E1F789E0FE013A96C6
:101B1000DE01119601900D928A95E1F78FEF809387
:101B2000920399E0FE013196A4E9B3E001900D9291
:101B30009A95E1F791E090939D0380939E038093A3
:101B40009F039093A00381E090E09093A203809381
:101B5000A10302E913E098012259334080919C03CC
:101B600090E00F5F1F4F2817390734F461E0F80148
:101B700081810E945C03EFCF91E001C0990F8A95AB
:101B8000EAF79093930380919F0387FD0EC0813104
:101B900061F09091A003913019F460E00E942E034F
:101BA00060E080919F030E945C0381E180939F032A
:101BB0001092A0031092A2031092A10360E00E9471
:101BC0002E036091A00380919F030E945C0369ED46
:101BD00071E08CE893E00E94450767ED72E08AE7C8
:101BE00093E00E94450761EE72E080E893E00E9476
:101BF000450769ED71E086E893E06B960FB6F894BF
:101C0000DEBF0FBECDBFDF91CF911F910F910C941E
:101C10004507CF93DF93CDB7DEB762970FB6F89441
:101C2000DEBF0FBECDBF789484B5826084BD84B51D
:101C3000816084BD85B5826085BD85B5816085BDC7
:101C400080916E00816080936E001092810080917F
:101C50008100826080938100809181008160809307
:101C60008100809180008160809380008091B1002C
:101C700084608093B1008091B00081608093B00057
:101C800080917A00846080937A0080917A008260EB
:101C900080937A0080917A00816080937A008091AD
:101CA0007A00806880937A001092C10062E081E13E
:101CB0000E945C03109274031092730316E0F12EDD
:101CC0000091730310917403F09EC001F19E900D7A
:101CD000112484579C4F0E945C06811111C060E062
:101CE00082E10E945C030F5F1F4F10937403009307
:101CF000730365E070E080E090E00E94BD03E0CFF8
:101D00001092740310927303B6E0EB2E00917303EC
:101D100010917403E09EC001E19E900D112486583D
:101D20009C4F0E945C0681111BC0F801EE0FFF1F43
:101D3000E45DFE4FF08061E08F2D0E945C0361E066
:101D40008F2D0E942E030F5F1F4F1093740300937B
:101D5000730365E070E080E090E00E94BD03D6CFA1
:101D600061E08091A5030E942E0367E08BE00E9452
:101D70003D0460E089E00E943D0461E08CE00E9447
:101D80003D0460E08FE00E943D040E9464046FE027
:101D90008AE00E943D040E94640463E08AE00E949D
:101DA0003D0486EE92E00E9495048FE593E00E9448
:101DB000950400E011E0D801EC9060E08E2D0E94C7
:101DC0005C03F801F18060E08F2D0E945C0361E00C
:101DD0008E2D0E942E0361E08F2D0E942E03095F3D
:101DE0001F4FF1E00C311F0731F7E091B903F0917B
:101DF000BA0382E08083E091B503F091B6031082CC
:101E0000E091B703F091B8038FEC80831092C10387
:101E1000E091BD03F091BE0386E08083E091BB03B7
:101E2000F091BC03808180618083E091BB03F091DD
:101E3000BC03808188608083E091BB03F091BC0388
:101E4000808180688083E091BB03F091BC03808136
:101E50008F7D808380914604811109C083E00E94B8
:101E600013068CE991E00E947E010E94590587E5E6
:101E700096E090939D0680939C0625E238E030938F
:101E80009F0620939E062DE636E03093A30620930E
:101E9000A2069093A5068093A40684E894E090930C
:101EA000AB068093AA0682EC9BE09093AD068093EC
:101EB000AC0655245394E0E08E2EE0E09E2E8091F7
:101EC0007903882309F426C160E0C62E61E0D62E8E
:101ED00010E000E077E0B72ED60111968C910E94B9
:101EE00005037C01F60180810E940503B09ED001AC
:101EF000B19EB00D1124A050BF4F1696EC911697CD
:101F0000EF70EE0CFF1CE82A24E0E29FF0011124A0
:101F1000E05DFE4FEE0DF11D808116968C931697B5
:101F200016968C918073803109F061C06BEE72E07F
:101F30000115110561F063EF72E00130110539F010
:101F400069EF72E00230110511F061E073E088E0A2
:101F50000E94430665E070E080E090E00E94BD03CF
:101F60000F5F1F4F87E0C80ED11C0430110509F028
:101F7000B3CF3CE8C32E33E0D32E4CE1A42E41E096
:101F8000B42EC6010E945C06811191C082E10E94BC
:101F900005037C01D5018D919C91E816F90609F4A1
:101FA00071C0CE010D96E114F104C9F10E94F3064F
:101FB000BE01635F7F4FCE0107960E942B070B8502
:101FC0001C850E5F1F4FB801CE0107960E94980630
:101FD0008823C9F12F8138858B859C8568E273E061
:101FE000820F931F0E9401151C870B8730C080321F
:101FF00009F0B6CF67E073E00115110509F4A7CF2A
:1020000060E173E00130110509F4A1CF67E173E0ED
:102010000230110509F49BCF60E273E098CF0E9473
:10202000F306BE01635F7F4FCE0107960E942B0728
:102030000B851C850E5F1F4FB801CE0107960E94CD
:10204000980681112DC0CE0107960E94C006BE01E0
:10205000695F7F4FCE0101960E942B078091460455
:10206000811104C0CE0101960E94840BCE0101961D
:102070000E945A07CE0107960E945A07CE010D967C
:102080000E945A07F501E192F1925F0169E170E067
:1020900080E090E00E94BD03F6E0CF0ED11C71CF2E
:1020A0002F8138858B859C8566EF72E099CF87E01C
:1020B00090E00E94EF03892B09F0CDC081E090E011
:1020C0009093250180932401809124019091250112
:1020D000209122013091230128173907D9F081304E
:1020E000910509F0EFC067E273E088E00E944306C3
:1020F0006BE273E088E00E9443066FE273E088E0E1
:102100000E94430680912401909125019093230120
:102110008093220180914D04811166C180919706C0
:1021200090919806DC01ED91FC910084F185E02D01
:102130000995892B09F458C18091970690919806CA
:10214000DC01ED91FC910084F185E02D0995C12C15
:1021500022E0D22E8115924064F4809197069091EE
:102160009806DC01ED91FC910084F185E02D099544
:102170006C0100919706109198069FE8A92E94E0B3
:10218000B92E3501F12CE12CCE14DF0409F0DBC0AF
:1021900010E000E0C016D10609F4BCCFD5019D9136
:1021A0005D0110928F0630919B0620914C04909314
:1021B0004C04931304C0921302C010924C048091FB
:1021C0004804E82FF0E040919906EA5BFB4F941336
:1021D000F2C0321709F4EFC01186882321F0509223
:1021E0008F0610924C04109248041092930610929D
:1021F0009206109295061092940650929006F090D6
:102200008F06B1E0FB12EDC00E942601882309F47D
:10221000DCC0F0929006F092910680919206909127
:1022200093060E94171280934704823308F0D2C0AD
:1022300020919106222309F4CDC0FC01FF27EE0F67
:10224000FF1FE256F94F0190F081E02D309709F41D
:10225000C1C00995C6C086E090E00E94EF03892BBB
:1022600019F482E090E02CCF85E090E00E94EF032B
:10227000892B19F483E090E023CF84E090E00E9462
:10228000EF03892B19F484E090E01ACF83E090E00B
:102290000E94EF03892B19F485E090E011CF82E0D2
:1022A00090E00E94EF03892B19F486E090E008CFBC
:1022B00081E090E00E94EF03892B09F005CF87E0D1
:1022C00090E0FECE8230910569F463E373E088E02C
:1022D0000E94430667E373E088E00E9443066BE3D5
:1022E00073E00DCF8330910569F46BE273E088E011
:1022F0000E9443066FE373E088E00E94430663E4B4
:1023000073E0FDCE8430910569F467E373E088E003
:102310000E94430667E473E088E00E9443066BE492
:1023200073E0EDCE8530910541F46FE373E088E012
:102330000E9443066FE473E0E2CE079709F0E2CE15
:1023400063E573E0DCCE2FB7F8948091750390912C
:102350007603A0917703B09178032FBFF8018087AF
:102360009187A287B387D801ED91FC910284F38510
:10237000E02DC801099597FF43C02FB7F8948091CD
:10238000750390917603A0917703B09178032FBFE6
:10239000F8014085518562857385841B950BA60BDA
:1023A000B70B448155816681778184179507A6070D
:1023B000B707C8F2EDCE91878F5F80934804909164
:1023C0004A04891708F00FCF1ACF1092910690E0B7
:1023D00080E029CFE0919C06F0919D06309709F0AE
:1023E00038CF0F5F1F4FD6CE8114910409F467CD0B
:1023F0000E943902882309F45ECD0E9400005BCD63
:10240000F30181933F01FFEFEF1AFF0ABDCE86E88B
:1024100093E00E945A0780E893E00E945A078AE7F7
:1024200093E00E945A078CE893E00C945A07FC0151
:1024300088279927E89421912032E9F3293010F078
:102440002E30C8F32B3241F02D3239F4689404C099
:102450000E947C12820F911D219120532A30C0F3DB
:102460001EF4909581959F4F08951F93FC01992725
:102470008827BC01E89411911032E9F3193010F06B
:102480001E30C8F31B3251F01D3249F4689406C067
:102490000E946712610F711D811D911D11911053D2
:1024A0001A30B0F33EF490958095709561957F4F0A
:1024B0008F4F9F4F1F910895BB274A3031F49923C6
:1024C00022F4BDE2909581959F4F0C948512592F6F
:1024D000482F372F262F660F771F881F991F660FEB
:1024E000771F881F991F620F731F841F951F660F28
:1024F000771F881F991F08957AE0979F902D879FD7
:10250000802D910D11240895BB27FB015527AA2783
:10251000880F991FAA1FA41710F0A41B8395505170
:10252000B9F7A05DAA3308F0A95DA193009779F7E8
:10253000B111B1931192CB010C949E12DC01FC01FC
:10254000672F71917723E1F7329704C07C916D93E7
:1025500070836291AE17BF07C8F308952F923F9220
:102560004F925F926F927F928F929F92AF92BF92A3
:10257000CF92DF92EF92FF920F931F93CF93DF934F
:10258000CDB7DEB7CA1BDB0B0FB6F894DEBF0FBEAC
:10259000CDBF09942A88398848885F846E847D84F9
:1025A0008C849B84AA84B984C884DF80EE80FD80FB
:1025B0000C811B81AA81B981CE0FD11D0FB6F89471
:1025C000DEBF0FBECDBFED010895A1E21A2EAA1BFA
:1025D000BB1BFD010DC0AA1FBB1FEE1FFF1FA217D3
:1025E000B307E407F50720F0A21BB30BE40BF50BD0
:1025F000661F771F881F991F1A9469F76095709559
:10260000809590959B01AC01BD01CF010895EE0F1F
:10261000FF1F0590F491E02D09940F931F93CF9322
:10262000DF938230910510F482E090E0E09104079E
:10263000F091050730E020E0B0E0A0E0309799F499
:102640002115310509F44AC0281B390B2430310506
:10265000D8F58A819B816115710589F1FB0193830E
:102660008283FE0111C0408151810281138148178C
:102670005907E0F04817590799F4109761F012963E
:102680000C93129713961C933296CF01DF91CF9142
:102690001F910F9108950093040710930507F4CF3D
:1026A0002115310551F04217530738F0A901DB011C
:1026B0009A01BD01DF01F801C1CFEF01F9CF90937D
:1026C000050780930407CDCFFE01E20FF31F81932E
:1026D00091932250310939832883D7CF2091020763
:1026E00030910307232B41F42091280130912901D7
:1026F0003093030720930207209126013091270190
:102700002115310541F42DB73EB740912A01509172
:102710002B01241B350BE0910207F0910307E21710
:10272000F307A0F42E1B3F0B2817390778F0AC01F4
:102730004E5F5F4F2417350748F04E0F5F1F5093D1
:10274000030740930207819391939FCFF0E0E0E06D
:102750009CCFCF93DF930097E9F0FC01329713826F
:102760001282A0910407B0910507ED0130E020E04E
:102770001097A1F420813181820F931F20910207CD
:10278000309103072817390709F061C0F093030758
:10279000E0930207DF91CF910895EA01CE17DF079A
:1027A000E8F54A815B819E0141155105B1F7E901C8
:1027B000FB83EA8349915991C40FD51FEC17FD079C
:1027C00061F4808191810296840F951FE9019983BC
:1027D0008883828193819B838A83F0E0E0E0129674
:1027E0008D919C9113970097B9F52D913C9111977C
:1027F000CD010296820F931F2091020730910307AB
:102800002817390739F6309751F5109205071092BD
:102810000407B0930307A0930207BCCFD383C283FE
:1028200040815181840F951FC817D90761F44E5F0D
:102830005F4F88819981480F591F518340838A8156
:102840009B81938382832115310509F0B0CFF093EA
:102850000507E09304079ECFFD01DC01C0CF138282
:102860001282D7CFB0E0A0E0E8E3F4E10C94B0121C
:102870008C01009751F4CB010E940D138C01C8010B
:10288000CDB7DEB7E0E10C94CC12FC01E60FF71FE8
:102890009C0122503109E217F30708F49DC0D901C9
:1028A000CD91DC911197C617D70798F0C530D105A7
:1028B00030F3CE0104978617970708F3C61BD70B92
:1028C0002297C193D1936D937C93CF010E94A9135A
:1028D000D6CF5B01AC1ABD0A4C018C0E9D1EA09197
:1028E0000407B0910507512C412CF12CE12C1097D5
:1028F00031F580910207909103078815990509F039
:102900005CC04616570608F058C080912601909189
:102910002701009741F48DB79EB740912A0150914D
:102920002B01841B950BE817F90708F055C0F093AD
:102930000307E0930207F90171836083A0CF8D91B3
:102940009C91119712966C90129713967C90139706
:10295000A815B90559F56C0142E0C40ED11CCA1482
:10296000DB0420F1AC014A195B09DA0112961597D4
:1029700080F06282738251834083D9016D937C938E
:10298000E114F10471F0D7011396FC93EE931297C2
:1029900076CF22968C0F9D1FF90191838083F301DE
:1029A000EFCFF0930507E093040769CF4816590667
:1029B00008F42C017D01D3019ACFCB010E940D13A5
:1029C0007C01009749F0AE01B8010E94EF14C801E4
:1029D0000E94A913870153CF10E000E050CFFB0104
:1029E000DC0102C001900D9241505040D8F708958B
:1029F000FB01DC018D91019080190110D9F3990B35
:102A00000895FB01DC0101900D920020E1F708958B
:102A1000FB01DC014150504048F001900D92002034
:102A2000C9F701C01D9241505040E0F7089510E0F1
:102A3000CAEDD0E004C0FE010E9407132196CB3DF1
:082A4000D107C9F7F894FFCF9C
:102A48000A0B00000000000D0C0000000000050645
:102A5800000000000007080000000000FFFFFFFF63
:102A6800FFFFFFFF020000000607800009001500B5
:102A78000302010013000100230200000305040003
:102A880003030420030503104177427F434E447E2D
:102A9800454F4647475E483749304A3C4C0E4E76CC
:102AA8004F7E50675205535B540F553E59275B4E76
:102AB8005D785F086177621F630D643D654F664707
:102AC800675E681769106A3C6C0E6E156F7E7067DA
:102AD8007205735B740F751C79272D012000307EF9
:102AE8003130326D33793433355B365F3770387F48
:102AF800397B3000000000006F02CF01FC01BC02EE
:102B08002D020B021F020D0A00554E4B4E4F574E19
:102B180020434F4D4D414E4400454E4400535441CF
:102B2800525400494E49540050494E4700504F4EA8
:102B38004700434F4E464947004F5054494F4E00B7
:102B4800535041445F53494D504C45425554544F9E
:102B58004E005354425900414C545F525054475F01
:102B68004F46460058504E44520054415F4F4E4C19
:102B7800590054415F524100535041445F535749F3
:102B8800544348005850444E525F544F47474C45B1
:102B980000414C545F534F555243455F544F47478C
:102BA8004C4500535041445F4C4544005350414408
:102BB8005F444F55424C455F454E434F4445520094
:102BC8004C5F454E434F44455200525F454E434F7C
:102BD800444552004154435F467265710053504169
:102BE800445F444953504C4159004C454E47544862
:102BF8003D00524F57533D310057494454483D31E9
:102C08003333004845494748543D34300053434125
:102C18004E5354415445004241434B4C4947485454
:102C2800004641494C00434F5245003130312C3168
:102C38003030003130312C31003130322C313030ED
:102C4800003130322C31003130312C2D3130300010
:102C58003130312C2D31003130322C2D31303000D3
:102C68003130322C2D3100322C3000342C300033EE
:102C78002C3100332C3000352C3000342C31003608
:102C88002C3000352C3100372C3000362C310037F1
:082C98002C3100382C31000042
:00000001FF
