:100000000C948A010C9461070C943A070C94B20189
:100010000C94B2010C94B2010C94B2010C94B20194
:100020000C94B2010C94B2010C94B2010C94B20184
:100030000C94B2010C94B2010C94B2010C94B20174
:100040000C94F0060C94B2010C94BE060C94980625
:100050000C94B2010C94B2010C94B2010C94B20154
:100060000C94B2010C94B2014E414E494E49545980
:10007000494E46CDCCCC3D0AD7233C17B7D1387773
:10008000CC2B329595E6241FB14F0A000020410089
:1000900000C84200401C4620BCBE4CCA1B0E5AAED3
:1000A000C59D7400000000240027002A0000000005
:1000B00000250028002B0000000000230026002956
:1000C0000004040404040404040202020202020301
:1000D000030303030301020408102040800102040B
:1000E000081020010204081020000000080002018E
:1000F000000003040700000000000000006C616DB8
:10010000696E61722F423733382F6B6E6F622F74B6
:1001100072616E73706F6E6465725F74617261009C
:100120006C616D696E61722F423733382F6B6E6F61
:10013000622F7472616E73706F6E6465725F74614A
:10014000006C616D696E61722F423733382F6B6EB0
:100150006F622F7472616E73706F6E6465725F612F
:100160006C746F6E006C616D696E61722F42373313
:10017000382F6B6E6F622F7472616E73706F6E6466
:1001800065725F616C746F6666006C616D696E614B
:10019000722F423733382F6B6E6F622F7472616E1D
:1001A00073706F6E6465725F737462790073696DEA
:1001B0002F7472616E73706F6E6465722F747261EA
:1001C0006E73706F6E6465725F6964656E74006CE7
:1001D000616D696E61722F423733382F6B6E6F62BB
:1001E0002F7472616E73706F6E6465725F6D6F6491
:1001F000655F646E006C616D696E61722F423733AA
:10020000382F6B6E6F622F7472616E73706F6E64D5
:1002100065725F6D6F64655F7570006C616D696EAE
:1002200061722F423733382F6B6E6F622F78706E8A
:1002300064725F315F646E006C616D696E61722F14
:10024000423733382F6B6E6F622F78706E64725F37
:10025000315F7570006C616D696E61722F4237336A
:10026000382F6B6E6F622F78706E64725F31305F03
:100270007570006C616D696E61722F423733382F73
:100280006B6E6F622F78706E64725F31305F646E78
:10029000006C616D696E61722F423733382F6B6E5F
:1002A0006F622F78706E64725F313030305F646ED1
:1002B000006C616D696E61722F423733382F6B6E3F
:1002C0006F622F78706E64725F313030305F75709E
:1002D000006C616D696E61722F423733382F6B6E1F
:1002E0006F622F78706E64725F3130305F757000AE
:1002F0006C616D696E61722F423733382F6B6E6F90
:10030000622F78706E64725F3130305F646E00000F
:10031000A007651311241FBECFEFD8E0DEBFCDBF0D
:1003200026E0AEE7B2E001C01D92A239B207E1F7C4
:1003300012E0A0E0B1E0E4ECF9E302C005900D9218
:10034000AE37B107D9F711E0C9E8D1E004C0219771
:10035000FE010E942E18C838D107C9F70E94E20892
:100360000C94D51C0C940000FC012481358162178B
:10037000730720F480819181009729F410928B02F9
:100380008BE892E00895860F971F08950895AF9225
:10039000BF92CF92DF92EF92FF920F931F93CF9372
:1003A000DF936C017B018B01040F151FEB015E01D4
:1003B000AE18BF08C017D10759F06991D601ED9169
:1003C000FC910190F081E02DC6010995892B79F708
:1003D000C501DF91CF911F910F91FF90EF90DF90BA
:1003E000CF90BF90AF900895FC01538D448D252F81
:1003F00030E0842F90E0821B930B541710F0CF96BF
:10040000089501970895FC01918D828D981761F0F0
:10041000A28DAE0FBF2FB11D5D968C91928D9F5F07
:100420009F73928F90E008958FEF9FEF0895FC01E6
:10043000918D828D981731F0828DE80FF11D858D99
:1004400090E008958FEF9FEF0895FC01918D228D2C
:10045000892F90E0805C9F4F821B91098F739927B1
:1004600008958BE193E00E94250221E0892B09F495
:1004700020E0822F089580E090E0892B29F00E94EF
:10048000310281110C9400000895FC01A48DA80F85
:10049000B92FB11DA35ABF4F2C91848D90E00196C6
:1004A0008F739927848FA689B7892C93A089B189E6
:1004B0008C91837080648C93938D848D981306C087
:1004C0000288F389E02D80818F7D80830895EF92EB
:1004D000FF920F931F93CF93DF93EC0181E0888FFE
:1004E0009B8D8C8D98131AC0E889F989808185FFCE
:1004F00015C09FB7F894EE89FF896083E889F98970
:1005000080818370806480839FBF81E090E0DF9171
:10051000CF911F910F91FF90EF900895F62E0B8DC4
:1005200010E00F5F1F4F0F731127E02E8C8D8E117F
:100530000CC00FB607FCFACFE889F989808185FFE6
:10054000F5CFCE010E944502F1CFEB8DEC0FFD2FD0
:10055000F11DE35AFF4FF0829FB7F8940B8FEA89A1
:10056000FB8980818062CFCFCF93DF93EC01888DB0
:100570008823B9F0AA89BB89E889F9898C9185FD1E
:1005800003C0808186FD0DC00FB607FCF7CF8C91AC
:1005900085FFF2CF808185FFEDCFCE010E9445021D
:1005A000E9CFDF91CF910895833081F028F4813035
:1005B00099F08230A9F008958730A9F08830C9F009
:1005C0008430B1F4809180008F7D03C080918000E1
:1005D0008F7780938000089584B58F7784BD0895C8
:1005E00084B58F7DFBCF8091B0008F778093B00072
:1005F00008958091B0008F7DF9CFCF93DF93282F9E
:1006000030E0F901E751FF4F8491F901EB52FF4FC0
:10061000D491F901EF53FF4FC491CC23A1F0811184
:100620000E94D402EC2FF0E0EE0FFF1FE954FF4FC1
:10063000A591B491EC91ED2381E090E009F480E084
:10064000DF91CF91089580E090E0FACF1F93CF9390
:10065000DF93282F30E0F901E751FF4F8491F90132
:10066000EB52FF4FD491F901EF53FF4FC491CC23CC
:10067000A9F0162F81110E94D402EC2FF0E0EE0FAA
:10068000FF1FE355FF4FA591B4918FB7F894EC91FC
:10069000111108C0D095DE23DC938FBFDF91CF917D
:1006A0001F910895DE2BF8CF0F931F93CF93909156
:1006B000D402981711F1082F082E000C110B9091FD
:1006C000D50290171106F1F0ECF08093D402C0E04F
:1006D0008091DE02C81788F4EC2FF0E0B8010C2EF0
:1006E00002C0759567950A94E2F76170EC52FD4F70
:1006F00082810E942603CF5FEBCF80E0CF911F91D4
:100700000F9108958DEFFACFCF93DF9390E0FC0126
:10071000EB52FF4F24918F539F4FFC01849188230C
:10072000C9F090E0880F991FFC01ED55FF4FA5918E
:10073000B491FC01E355FF4FC591D49161110DC0F7
:100740009FB7F8948C91209582238C9388812823DD
:1007500028839FBFDF91CF910895623051F49FB7F6
:10076000F8943C91822F809583238C93E8812E2BE3
:10077000EFCF8FB7F894EC912E2B2C938FBFEACF4D
:10078000E82FF0E0E751FF4FE491E33029F150F416
:10079000E130C1F0E230D9F060387105BCF560E0BD
:1007A0000C942603E73011F1E83041F1E430A1F771
:1007B0008091800080628093800070938B006093B2
:1007C0008A00089584B5806884BD67BD089584B5A6
:1007D000806284BD68BD08958091800080688093A8
:1007E0008000709389006093880008958091B00024
:1007F00080688093B0006093B30008958091B0004A
:1008000080628093B0006093B400089561E0C8CF27
:100810002FB7F894609187027091880280918902C5
:1008200090918A022FBF089508950E94540381E198
:100830000C94FD02DC01ED91FD918081ED91FD9123
:100840009081ED91FD916C9163708E2309F064604D
:100850009F2309F06860E7E3F4E0E60FF11D65957A
:1008600065956D936D917D918D919D91099423C0B6
:100870001AC012C016C010C01EC009C014C013C0D8
:1008800006C019C009C00DC007C00DC014C0625019
:100890007040804090400BC061507040804090405C
:1008A00006C06E5F01C06F5F7F4F8F4F9F4F9E935B
:1008B0008E937E936E930895809180029091810231
:1008C0000C941A0480917E0290917F020C941A0479
:1008D000CF93DF93EC018B85823060F4F894CE01E6
:1008E0000E941A046F81788589859A857894DF91B2
:1008F000CF910895F894F6CF0F931F93CF93DF9382
:10090000082F162FD42FC8E06D2F661F6627661F8D
:10091000802F0E942603DD0F61E0812F0E942603B5
:1009200060E0812F0E942603C15071F7DF91CF91C3
:100930001F910F9108950F931F93CF93DF9300D0D2
:10094000CDB7DEB789836A8305E113E060E0F80183
:1009500082810E9426034981F801608184810E947E
:100960007C044A81F801608184810E947C0461E0FA
:10097000F80182810F900F90DF91CF911F910F911D
:100980000C9426039DED960F50E09A3018F4635FA7
:1009900041E050E0E2E2F1E030E020E09081992394
:1009A00091F0329696130CC0220F331FF901EE5DC1
:1009B000FE4F6181452B09F060688F5F0C949B04AA
:1009C0002F5F3F4FEBCF60E0F8CFCF93C1E060E007
:1009D0008C2F0E949B04CF5FC930C9F7CF91089537
:1009E00080E008950F931F93CF93DF93EC01062FC0
:1009F000142F62E0802F0E94840362E0812F0E9406
:100A00008403802F90E0FC01EF53FF4FE491F0E06E
:100A1000EE0FFF1FE954FF4FA591B491B983A8834E
:100A2000FC01EB52FF4F24912C83812F90E0FC01BD
:100A3000EF53FF4FE491F0E0EE0FFF1FE954FF4F3B
:100A4000459154915B834A83FC01EB52FF4FE49143
:100A5000ED831F82188619861A868BE39FE1019722
:100A6000F1F78C91282391E009F490E0DA018C9160
:100A7000E82309F092609E83BE01802F0E94F0045B
:100A8000082FBE01812F0E94F004800F8B87DF9119
:100A9000CF911F910F910895FB0101900020E9F77C
:100AA0003197AF01461B570BDC01ED91FC910280A1
:100AB000F381E02D099462E574E08091B803909190
:100AC000B9030E944C05E2E5F4E001900020E9F74B
:100AD000E359F44041F460EA71E08091B8039091E9
:100AE000B9030C944C0508950F931F93CF93DF9394
:100AF000C0918806D0918906C436D1056CF58C0169
:100B000080E190E00E943418FC01DE01AA0FBB1FB7
:100B1000A254BA4FED93FC9315830483138212827F
:100B20001386128681E090E0958784878FEF9FEF90
:100B30009183808397878687CE010196909389065B
:100B40008093880610928B0610928A06CE01DF9160
:100B5000CF911F910F910895CFEFDFEFF7CF880F5F
:100B6000991FFC01E254FA4F0190F081E02D30977B
:100B700049F18081918197FD22C01F922EE32F932E
:100B80001F9221E02F939F938F931F928BE68F9359
:100B90001F928CE38F9382EA91E09F938F9382E57B
:100BA00094E09F938F930E94341A0E945B058DB747
:100BB0009EB70E960FB6F8949EBF0FBE8DBF90E005
:100BC00080E008958FEF9FEF08950C94AF0577FDB7
:100BD0001EC01F922EE32F937F936F939F938F934B
:100BE0001F928CE38F9380EB91E09F938F9382E52C
:100BF00094E09F938F930E94341A8DB79EB70C9602
:100C00000FB6F8949EBF0FBE8DBF0C945B05089580
:100C10001F93CF93DF93C8EBD3E01F811F828CEB30
:100C200093E00E9471131F83DF91CF911F9108956C
:100C3000FC0180819181009711F00C94D0180895E7
:100C40000F931F93CF93DF938C01EB01FC01808105
:100C500091810097E1F06881798161157105A9F0B2
:100C6000428153812C813D814217530770F00E94CD
:100C70001F1A8C819D81F801958384831D821C82BB
:100C8000DF91CF911F910F9108950E94D018888114
:100C90009981F801918380838A819B8193838283E8
:100CA0008C819D8195838483198218821B821A828C
:100CB000E5CFEF92FF920F931F93CF93DF93EC0159
:100CC0007B018A0188819981009729F02A813B81E3
:100CD0002417350788F4B8016F5F7F4F0E945919B8
:100CE000009791F0998388831B830A832C813D812F
:100CF000232B11F4FC0110821D830C83B701888122
:100D000099810E941F1A0CC088819981009711F067
:100D10000E94D018198218821D821C821B821A829E
:100D2000CE01DF91CF911F910F91FF90EF90089529
:100D30001F920F920FB60F9211242F933F934F9350
:100D40005F936F937F938F939F93AF93BF93EF9333
:100D5000FF938BE193E00E944502FF91EF91BF91D9
:100D6000AF919F918F917F916F915F914F913F9143
:100D70002F910F900FBE0F901F9018951F920F92FA
:100D80000FB60F9211242F938F939F93EF93FF939E
:100D9000E0912B03F0912C038081E0913103F091DD
:100DA000320382FD1BC09081809134038F5F8F736B
:100DB00020913503821741F0E0913403F0E0E55EC5
:100DC000FC4F958F80933403FF91EF919F918F910A
:100DD0002F910F900FBE0F901F9018958081F4CF28
:100DE0001F920F920FB60F9211242F933F938F9360
:100DF0009F93AF93BF938091870290918802A091B7
:100E00008902B0918A023091860223E0230F2D37A8
:100E100058F50196A11DB11D20938602809387028B
:100E200090938802A0938902B0938A0280918202F3
:100E300090918302A0918402B09185020196A11D38
:100E4000B11D8093820290938302A0938402B09399
:100E50008502BF91AF919F918F913F912F910F90FC
:100E60000FBE0F901F90189526E8230F0296A11D24
:100E7000B11DD2CF1F920F920FB60F9211242F9354
:100E80003F934F935F936F937F938F939F93AF9312
:100E9000BF93EF93FF93E0910201F0910301099555
:100EA000FF91EF91BF91AF919F918F917F916F9142
:100EB0005F914F913F912F910F900FBE0F901F9018
:100EC00018951F920F920FB60F9211242F933F93F4
:100ED0004F935F936F937F938F939F93AF93BF9342
:100EE000EF93FF93E0910001F09101010995FF91CB
:100EF000EF91BF91AF919F918F917F916F915F9192
:100F00004F913F912F910F900FBE0F901F9018950A
:100F1000FB0105900020E9F7609570956E0F7F1F2B
:100F2000CB010895FA01DC012150304030F08D9161
:100F30000590801919F40020B9F7881B990B0895C2
:100F40000F931F93CF93DF93CDB7DEB76B970FB699
:100F5000F894DEBF0FBECDBF10921E0310921D038A
:100F600082E991E090931C0380931B0385EC90E051
:100F7000909328038093270384EC90E090932A03B6
:100F80008093290380EC90E090932C0380932B03B3
:100F900081EC90E090932E0380932D0382EC90E0FF
:100FA0009093300380932F0386EC90E0909332036C
:100FB000809331031092340310923503109236035C
:100FC000109237038BE193E09093B9038093B803B9
:100FD00084EF91E0A0E0B0E080931F0390932003A2
:100FE000A0932103B093220383E090E090931A032F
:100FF0008093190384E090E0909318038093170383
:1010000082E090E0909316038093150361E083E003
:101010000E94840361E0809117030E94840361E0D1
:10102000809115030E9484034CE06DE089E093E019
:101030000E94F2044BE06AE08DEF92E00E94F2041D
:1010400048E067E081EF92E00E94F20446E065E04C
:1010500085EE92E00E94F2048EE08B8B8FE08C8B09
:1010600080E18D8B8FEF8E8B8F8B888F898F8A8F0E
:10107000FE01739690E080E0219127FD05C0019666
:1010800088309105C9F788E08B8F89E0FE0173965F
:10109000DE011A9601900D928A95E1F789E0FE0132
:1010A0003A96DE01119601900D928A95E1F78FEF45
:1010B0008093D40299E0FE013196A6EDB2E0019052
:1010C0000D929A95E1F791E09093DF028093E00210
:1010D0008093E1029093E20281E090E09093E40239
:1010E0008093E30204ED12E09801245D3240809188
:1010F000DE0290E00F5F1F4F2817390734F461E0DC
:10110000F80181810E948403EFCF91E001C0990F23
:101110008A95EAF79093D5028091E10287FD0EC08F
:10112000813161F09091E202913019F460E00E9407
:10113000260360E08091E1020E94840381E18093B4
:10114000E1021092E2021092E4021092E30260E0E7
:101150000E9426036091E2028091E1020E948403D2
:101160001092CF021092CE021092D1021092D002B1
:101170001092D3021092D20250E040E061EA71E096
:101180008EEC92E00E9459061092C9021092C80299
:101190001092CB021092CA021092CD021092CC0291
:1011A00050E040E061EA71E088EC92E06B960FB6A7
:1011B000F894DEBF0FBECDBFDF91CF911F910F918D
:1011C0000C945906CF93DF93CDB7DEB7E6970FB6F1
:1011D000F894DEBF0FBECDBF789484B5826084BD25
:1011E00084B5816084BD85B5826085BD85B581602B
:1011F00085BD80916E00816080936E0010928100A9
:101200008091810082608093810080918100816063
:101210008093810080918000816080938000809124
:10122000B10084608093B1008091B00081608093B0
:10123000B00080917A00846080937A0080917A0077
:10124000826080937A0080917A00816080937A0036
:1012500080917A00806880937A001092C10061E0EA
:1012600085E10E94840361E089E00E94840361E0DB
:1012700089E00E94840366E970E089E00E94C0036F
:1012800062E081E10E948403F894109210031092AE
:10129000110310921203109213037894F894109291
:1012A000040310920503109206031092070378942A
:1012B000F8941092F8021092F9021092FA02109229
:1012C000FB027894F8941092EC021092ED021092C6
:1012D000EE021092EF02789461E0809117030E9471
:1012E000260367E08BE00E949B0460E089E00E9497
:1012F0009B0461E08CE00E949B0460E08FE00E9410
:101300009B040E94E5046FE08AE00E949B040E9417
:10131000E50463E08AE00E949B041CA21BA2FE017C
:10132000B5968EE0DF011D928A95E9F7ACEBB1E04E
:1013300010E000E0B4977F0121E030E08D918E3223
:1013400081F5F8013197EE0FFF1FEE0DFF1D318380
:101350002083F1E0A03CBF0789F70930110514F0A4
:1013600008E010E047011E0123E2220E311C680153
:10137000510131E0C31AD108C501821993098017C0
:10138000910704F5D4018D919D914D01F501619175
:101390005F0141E0892B09F440E0C6010E94C204CC
:1013A000E8CFE3E2F0E0EC0FFD1FE00FF11F8083D8
:1013B000F801EE0FFF1FEE0DFF1D118210820F5F6F
:1013C0001F4FC7CFE0912B03F0912C0382E0808365
:1013D000E0912703F09128031082E0912903F09116
:1013E0002A0380E1808310923303E0912F03F09170
:1013F000300386E08083E0912D03F0912E038081FD
:1014000080618083E0912D03F0912E0380818860BC
:101410008083E0912D03F0912E038081806880838A
:10142000E0912D03F0912E0380818F7D808381ECEC
:1014300091E09093F5048093F4041092EB041092E1
:10144000EA04109289061092880610928B06109278
:101450008A061092BA0384E290E00E943418FC01DC
:101460009093F7048093F604178A168A8CEC91E027
:10147000958B848B01E010E01383028380E090E081
:10148000A0E8BFE386839783A087B187A4E68A2E6E
:10149000912CA12CB12C84869586A686B7861583BF
:1014A00004838CE892E0918F808F128E138E148EBD
:1014B000158E13A212A2CC24CA94DC2CD182C08235
:1014C00084E290E00E943418FC019093F904809328
:1014D000F804178A168A80EF91E0958B848B13832A
:1014E000028382E090E09583848320EC32E0318FA8
:1014F000208F168E178E10A211A284869586A6863E
:10150000B786168217821086118623E030E033A357
:1015100022A3D182C082909387068093860680EFB3
:1015200092E00E9474059093AF028093AE0281ED29
:1015300092E00E9474059093AD028093AC0281EB1F
:1015400092E00E9474059093A9028093A80281E919
:1015500092E00E9474059093AB028093AA0283E705
:1015600092E00E9474059093A7028093A60285E5FD
:1015700092E00E9474059093A5028093A40288E3F0
:1015800092E00E9474059093A1028093A0028BE1E7
:1015900092E00E9474059093A3028093A20285EFCB
:1015A00091E00E9474058FEC91E00E9474058DEA31
:1015B00091E00E94740590939102809390028AE8D2
:1015C00091E00E94740590939B0280939A0285E6B5
:1015D00091E00E947405909399028093980281E4AF
:1015E00091E00E947405909397028093960280E2A6
:1015F00091E00E94740590939502809394028DEF80
:1016000090E00E947405909393028093920214E0FC
:10161000412E512C612C712C8091B8039091B9030B
:10162000DC01ED91FC910084F185E02D099520917C
:10163000BA03892B81F02C3381F08091B80390910B
:10164000B903DC01ED91FC910284F385E02D09954D
:101650008093BA03E1CF2C33C9F5C090B803D09082
:10166000B9037BEBA72E73E0B72E10E000E00E94D9
:101670000804F6016087718782879387D601ED9110
:10168000FC910284F385E02DC601099597FFECC714
:101690000E940804F6012085318542855385621B2E
:1016A000730B840B950B248135814681578162171A
:1016B00073078407950710F31093510400935004A7
:1016C0000115110509F06CC01092BA0380918A06C9
:1016D00090918B06892B09F45CC448EB53E05EAB18
:1016E0004DAB1CAA1BAA8091860690918706ABA9D8
:1016F000BCA9A817B9070CF4E4C20EEB15E0D12C75
:10170000C12C8091880690918906C816D9060CF0E4
:1017100040C4D801ED91FC918081918197FD3AC040
:101720000E940804D801ED91FC9186809780A084E6
:10173000B184681979098A099B096D327140810564
:10174000910540F18685978597FDF7C30E94FD02BC
:101750005C01D801ED91FC9184859585A816B906A8
:10176000C9F060817181B1E0AB16B10409F0E0C34A
:101770008AE690E00E94E7050E940804D801ED91F6
:10178000FC916683778380879187D801ED91FC91E6
:10179000B586A486BFEFCB1ADB0A0E5F1F4FB1CF11
:1017A000F801E854FC4F2EE323830E5F1F4F109384
:1017B00051040093500408541C4FF8011282809188
:1017C000BB03813609F44FC074F4833309F499C024
:1017D000843309F4ECC0823309F076CF1092EB0425
:1017E0001092EA0471CF853609F4EFC1863611F103
:1017F000843609F069CFE6EFF4E090E080E02091D4
:10180000860630918706821793070CF05DCFA19171
:10181000B19112962D913C911397225031092230AB
:10182000310530F421E030E01B963C932E931A975B
:101830000196E5CF2091860630918706E6EFF4E029
:1018400090E080E0821793070CF077C18436910511
:1018500009F473C101911191D8014D915C9157FD2B
:10186000FCC00196EFCF8091F4049091F5040097AD
:10187000D9F01F922F939F938F931F9280E38F93A2
:101880001F928CE38F9327E132E03F932F9382E501
:1018900094E09F938F930E94341A0E945B050FB6C9
:1018A000F894DEBF0FBECDBF21E030E03093EB04F3
:1018B0002093EA04E6EFF4E090E080E020918606D1
:1018C0003091870682179307A4F0EEEBF5E090E0E5
:1018D00080E02091880630918906821793070CF0EA
:1018E000F3CEA191B1912FEF3FEF2D933C93019651
:1018F000F0CFA191B1914FEF5FEF4D935C930196C3
:10190000DDCF10E000E080918606909187060817F1
:1019100019070CF0D9CEF801EE0FFF1FEA50FB4F6C
:10192000C080D180D60154966D917C91611571056E
:10193000F9F0FB0101900020E9F73197AF01461B58
:10194000570B8FEB93E00E94261A892B71F4F60156
:1019500080819181019649F40E940806D6018D93F9
:101960009C9300918606109187060F5F1F4FCBCF87
:10197000F60186889788092C000CAA08BB08C501C7
:10198000B4010E9488079C01B501A4018FEB93E08C
:101990000E949207892B49F7D6018D919C9101965F
:1019A00021F70E940806F60191838083DACF10E0C8
:1019B00000E08091880690918906081719070CF0BD
:1019C00083CEF801EE0FFF1FE254FA4FC080D180A2
:1019D000D60112966D917C9161157105F9F0FB01AC
:1019E00001900020E9F73197AF01461B570B8FEBB1
:1019F00093E00E94261A892B71F4F601808191816F
:101A0000019649F40E940806D6018D939C9300919B
:101A10008806109189060F5F1F4FCBCFF601848097
:101A20009580092C000CAA08BB08C501B4010E94CE
:101A300088079C01B501A4018FEB93E00E949207F7
:101A4000892B49F7D6018D919C91019621F70E942F
:101A50000806F60191838083DACFF801C488D5881F
:101A600086809780A084B18420E030E048EC52E486
:101A7000C501B4010E9410160E948F17CB0164E6C5
:101A800070E00E94C5178BAB9DABC501B4010E94ED
:101A90008F17D80192962C91929793963C91939799
:101AA00012968C91129713969C911397C114D1049E
:101AB00039F11F924EE34F93DF92CF92BDA9BF93AE
:101AC000EBA9EF937F936F933F932F939F938F9304
:101AD0001F9282E68F931F928CE38F9380E292E0B5
:101AE0009F938F9322E534E03F932F930E94341A03
:101AF0000FB6F894DEBF0FBECDBF0E945B05E4CDEC
:101B00001F924EE34F9357964C9157974F9356968B
:101B10004C914F93BDA9BF93EBA9EF937F936F9324
:101B20003F932F939F938F931F9282E68F931F92E1
:101B30008CE38F938CE392E0D3CFAEEBB5E090E0F3
:101B400080E02091880630918906821793070CF077
:101B50009AC58436910509F496C5ED91FD912081D1
:101B6000318137FD02C00196ECCF828193810097CD
:101B7000B1F01F922EE32F939F938F931F928DE6C8
:101B80008F931F928CE38F93A7E1B2E0BF93AF9343
:101B900022E534E03F932F930E94341AA9CF1F927D
:101BA0008EE38F9385818F9384818F931F928DE62F
:101BB0008F931F928CE38F9388E592E09F938F938E
:101BC000A2E5B4E0BF93AF93E7CF0E9408065C01A3
:101BD00090E080E020918606309187068217930777
:101BE0000CF072CD8C0101561F4F9801220F331F4C
:101BF000A90148545C4F6A01DA01ED91FC91208102
:101C00003181A216B30609F05AC0228133812D7F9B
:101C10002130310509F053C084819581019709F580
:101C2000808C918CB091C903BBAB1092C9038FEB30
:101C300093E00E948F13F401608371838283938306
:101C4000FBA9F093C903D601ED91FC91A08DB18D54
:101C50008D919D910D90BC91A02D828F938FA48F1B
:101C6000B58F000F111F08541C4FD801ED91FC9146
:101C7000848195810297F9F4C08CD18C9090C9032E
:101C80001092C9038FEB93E00E946D13F6016083FD
:101C90007183828393839092C903D801ED91FC9163
:101CA000A08DB18D8D919D910D90BC91A02D868FB1
:101CB000978FA0A3B1A38091860690918706019685
:101CC00089CF0DA91EA9025C1E4FD801ED91FC9190
:101CD0008081918197FD0DC0828193810297029747
:101CE00040F4848195818130910579F0029709F45F
:101CF00089C0EBA9FCA93196FCABEBAB2DA93EA9A1
:101D00002E5F3F4F3EAB2DABEECCA08DB18D4D91F4
:101D10005D916D917C91828D938DA48DB58D4817C9
:101D200059076A077B0729F30E940804D801ED913F
:101D3000FC9180889188A288B388AB01BC014819C6
:101D400059096A097B0984859585A685B78521E0AF
:101D5000892B8A2B8B2B29F482859385892B09F477
:101D600020E0822F90E0B0E0A0E084179507A6075E
:101D7000B70708F0BECF8081918197FD23C01F92E5
:101D8000BEE3BF93008CF18DE02D21812F93208144
:101D90002F939F938F931F92E5E6EF931F92FCE39F
:101DA000FF9322EA31E03F932F9382E594E09F93E3
:101DB0008F930E94341A0E945B050FB6F894DEBF21
:101DC0000FBECDBFD801ED91FC91A08DB18D8D914D
:101DD0009D910D90BC91A02D828F938FA48FB58F74
:101DE000F801C080D1800E940804D60150966D93FE
:101DF0007D938D939C935397D801ED91FC9113861D
:101E0000128677CFA08DB18D268D378D40A151A13F
:101E10006D917D918D919C910E94AA15811170C048
:101E2000D801ED91FC9182859385892B09F461CFCE
:101E3000D801ED91FC91C080D180D7FC52C0008CBC
:101E4000F18DE02D80809180A280B3801F92BEE34F
:101E5000BF9320E030E048EC52E4C501B4010E9499
:101E600010160E948F17CB0164E670E00E94C51720
:101E700097FF03C09195819591099F938F93C50119
:101E8000B4010E948F179B0177FF04C022273327DC
:101E9000261B370B3F932F93DF92CF921F92E5E6DD
:101EA000EF931F92FCE3FF9321E632E03F932F93E1
:101EB00082E594E09F938F930E94341A0FB6F894B2
:101EC000DEBF0FBECDBF20E030E0A901C501B401E7
:101ED0000E94AA1587FF03C0FDE2F09357040E94F9
:101EE0005B05D801ED91FC91A08DB18D8D919D91F7
:101EF0000D90BC91A02D868F978FA0A3B1A370CF1A
:101F00000E940804D801ED91FC9180889188A288F4
:101F1000B388681979098A099B0984849584A68401
:101F2000B78486169706A806B90608F079CF80CF41
:101F300089E690E00E94E70528CCA285B38510973A
:101F400009F428CC8D919C912485358582179307BF
:101F500009F420CC6081718118161906BCF48AE658
:101F600090E00E94E705D801ED91FC91A285B38530
:101F70008D919C91958784870E940804D801ED91EA
:101F8000FC91668377838087918704CC89E690E013
:101F9000E8CF80918A0690918B06892B09F464C260
:101FA0008090C0029090C102A090C202B090C30283
:101FB000A50194016091C4027091C5028091C6028E
:101FC0009091C7020E94AA15882309F44AC020E014
:101FD00030E046E153E4C501B4010E94101620E050
:101FE00030E0A9010E9423170E948F174B018B013B
:101FF00061E089E00E94840360E08114910429F08B
:102000000F3F110509F03DC261E089E00E942603FF
:1020100020E030E040E450E46091C0027091C102E1
:102020008091C2029091C3020E94101620E030E01D
:10203000A9010E9423170E948F176F708AE00E94E7
:102040009B048091C0029091C102A091C202B09104
:10205000C3028093C4029093C502A093C602B093BA
:10206000C70289E093E00E946804A30192010E94E4
:10207000D91749015A018092BC029092BD02A092E8
:10208000BE02B092BF028DEF92E00E946804A301ED
:1020900092010E94D9172093B8023093B90240935D
:1020A000BA025093BB0281EF92E00E946804A30140
:1020B00092010E94D9172093B4023093B502409345
:1020C000B6025093B70285EE92E00E946804A30125
:1020D00092010E94D9172093B0023093B10240932D
:1020E000B2025093B3028091180190911901A0910E
:1020F0001A01B0911B0188169906AA06BB06E1F0E9
:1021000088159905AA05BB050CF0C0C18091AE02E7
:102110009091AF020E94AF058091BC029091BD02E8
:10212000A091BE02B091BF02809318019093190153
:10213000A0931A01B0931B014091B8025091B902CB
:102140006091BA027091BB028091140190911501C7
:10215000A0911601B0911701481759076A077B072C
:10216000E1F084179507A607B7070CF094C180919A
:10217000AA029091AB020E94AF058091B8029091A3
:10218000B902A091BA02B091BB028093140190935E
:102190001501A0931601B09317014091B40250911C
:1021A000B5026091B6027091B702809110019091D2
:1021B0001101A0911201B0911301481759076A0744
:1021C0007B07E1F084179507A607B7070CF068C1F5
:1021D0008091A6029091A7020E94E5058091B40229
:1021E0009091B502A091B602B091B7028093100110
:1021F00090931101A0931201B09313014091B0028A
:102200005091B1026091B2027091B30280910C01C1
:1022100090910D01A0910E01B0910F01481759073F
:102220006A077B07E1F084179507A607B7070CF04C
:102230003CC18091A2029091A3020E94E505809189
:10224000B0029091B102A091B202B091B30280931A
:102250000C0190930D01A0930E01B0930F010E9409
:10226000080400919C0210919D0220919E023091E1
:102270009F02601B710B820B930B65367105810504
:10228000910508F4F1C00E94080460939C027093C9
:102290009D0280939E0290939F0287E00E945403C8
:1022A00081E10E94FD02892B09F004C1E1E0F0E028
:1022B000F0930901E09308018091080190910901D0
:1022C00020910A0130910B012817390791F08130D4
:1022D000910509F01AC180919A0290919B020E9487
:1022E000E505809108019091090190930B0180937D
:1022F0000A0190E080E00E941504892B31F480915E
:102300009002909191020E94AF0540918C025091F1
:102310008D0260918E0270918F02809104019091E4
:102320000501A0910601B0910701481759076A07F6
:102330007B0709F499C01CA21BA21EA21DA218A60D
:102340001FA24AE0B7018AE090E00E94B613F701AD
:1023500001900020E9F73197AF014E195F09B701ED
:10236000C1010E945906B1018EEC92E00E94200644
:10237000C1010E94180660918C0270918D028091BB
:102380008E0290918F021CA21BA21EA21DA218A653
:102390001FA22AE0A7010E94C113F70101900020AB
:1023A000E9F73197AF014E195F09B701C1010E94EA
:1023B0005906B10188EC92E00E942006C1010E94FA
:1023C000180680918C0290918D02A0918E02B0919E
:1023D0008F02883EF3E09F07A105B1050CF4B5C05C
:1023E00070E060E088EC92E00E94B40140E0DC0123
:1023F0006C9183E090E00E94C20461E070E088ECA0
:1024000092E00E94B40140E0FC01608182E090E033
:102410000E94C20462E070E088EC92E00E94B40185
:1024200040E0DC016C9181E090E00E94C20463E036
:1024300070E088EC92E00E94B40140E0FC01608111
:1024400090E080E00E94C20480918C0290918D0205
:10245000A0918E02B0918F028093040190930501A8
:10246000A0930601B093070180E090E0892B09F466
:10247000D3C80E943102882309F4CEC80E9400000C
:10248000CBC8B40189E00E94C003C2CD8091AC02E8
:102490009091AD023FCE8091A8029091A9026BCE9F
:1024A0008091A4029091A50297CE8091A002909174
:1024B000A102C3CE86E090E00E941504892B39F476
:1024C00082E090E09093090180930801F5CE85E0C9
:1024D00090E00E941504892B19F483E090E0F2CF7C
:1024E00084E090E00E941504892B19F484E090E0C8
:1024F000E9CF83E00E94540381E10E94FD02892B11
:1025000009F0DACE85E090E0DDCF8230910529F444
:102510008091980290919902E2CE8330910529F43E
:102520008091960290919702DACE8430910529F439
:102530008091940290919502D2CE059709F0D1CE68
:102540008091920290919302CACEAC01BD01445693
:10255000510961097109443853406105710550F50D
:1025600061E070E08EEC92E00E94B40140E0DC019A
:102570006C9183E090E00E94C20470E060E088EC1F
:1025800092E00E94B40140E0FC01608182E090E0B2
:102590000E94C20461E070E088EC92E00E94B40105
:1025A00040E0DC016C9181E090E00E94C20462E0B6
:1025B00070E03FCF0A97A109B10961E070E08A3568
:1025C0009105A105B10540F58EEC92E00E94B401A1
:1025D00040E0DC016C9183E090E00E94C20461E085
:1025E00070E08EEC92E00E94B40140E0FC0160815A
:1025F00082E090E00E94C20470E060E088EC92E02B
:102600000E94B40140E0DC016C9181E090E00E9406
:10261000C20461E070E00DCF8EEC92E00E94B40144
:1026200040E0DC016C9183E090E00E94C20461E034
:1026300070E08EEC92E00E94B40140E0FC01608109
:1026400082E090E00E94C20461E070E08EEC92E0D3
:102650000E94B40140E0DC016C9181E090E00E94B6
:10266000C20470E060E0E5CE8E33910509F424C821
:10267000D5018D935D010F5F1F4F0539110511F0D5
:102680000C94370B19C821E030E030938B0620936F
:102690008A061F928EE38F931F9283E68F931F9279
:1026A0008CE38F9386E792E09F938F9342E554E00B
:1026B0005F934F930E94341A0E945B050FB6F89403
:1026C000DEBF0FBECDBF0C94640B88EC92E00E947D
:1026D00018068EEC92E00C941806662777270C9467
:1026E0002914FC0188279927E89421912032E9F3E5
:1026F000293010F02E30C8F32B3241F02D3239F44E
:10270000689404C00E94E513820F911D219120530B
:102710002A30C0F31EF4909581959F4F08951F9322
:10272000FC0199278827BC01E89411911032E9F344
:10273000193010F01E30C8F31B3251F01D3249F42D
:10274000689406C00E94D013610F711D811D911DF8
:10275000119110531A30B0F33EF490958095709516
:1027600061957F4F8F4F9F4F1F910895BB274A3030
:1027700031F4992322F4BDE2909581959F4F0C94FA
:102780001014BB272A3051F4992342F4BDE29095EE
:102790008095709561957F4F8F4F9F4F0C94EE13EE
:1027A000592F482F372F262F660F771F881F991F05
:1027B000660F771F881F991F620F731F841F951F55
:1027C000660F771F881F991F08957AE0979F902DB5
:1027D000879F802D910D11240895BB27FA01A62F04
:1027E0006217710581059105330B30FB66F0AA274E
:1027F000660F771F881F991FAA1FA21710F0A21B30
:1028000063953850A9F7A05DAA3308F0A95DA1939C
:1028100036F7B111B1931082CA010C949A15BB27F7
:10282000FB015527AA27880F991FAA1FA41710F08C
:10283000A41B83955051B9F7A05DAA3308F0A95D98
:10284000A193009779F7B111B1931192CB010C9438
:102850009A15B0E0A0E0EFE2F4E10C94E2165C011E
:102860007B016115710519F0DB018D939C93850146
:102870000F5F1F4FF501D0818D2F90E00E947915D9
:102880006C01892BB9F5DD32B9F50F5F1F4FD5010A
:102890001196DC91C1E05801F1E0AF1AB10843E0B4
:1028A00050E060E770E0C5010E948215892B69F550
:1028B000680182E0C80ED11C45E050E06BE670E094
:1028C000C6010E948215892B21F4680197E0C90E88
:1028D000D11CE114F10419F0D701CD92DC9260E033
:1028E00070E080E89FEFC111FFC060E070E080E819
:1028F0009FE7FAC05801BBCFDB3229F485010E5F98
:102900001F4FF501D181C0E0C6CF43E050E068E63B
:1029100070E0C5010E948215892BE9F0F80110E0F2
:1029200000E020E030E0A9015F01B0ED8B2E8D0EBC
:1029300089E08815C8F19C2E689491F88C2F8870D6
:10294000C2FF16C0811102C00F5F1F4F3196D50123
:10295000DC91C92DE9CFE114F10429F00E5F1F4F7E
:10296000F7011183008360E070E080EC9FE7BCC05A
:10297000882311F001501109A5E0B0E00E94D116A2
:102980009B01AC01220F331F441F551F280D311D21
:10299000411D511D283999E93907490799E159071E
:1029A000A8F2C6609C2ED2CFAEEF8A1206C0C3FD3D
:1029B0003CC09C2E689493F8C9CFDF7DD534A9F52F
:1029C00080818D3239F4C061DF011296818162E02D
:1029D00070E006C0DF018B32C1F3119661E070E058
:1029E00080535D01A61AB70A8A30F8F4E0E8CE16E3
:1029F000ECE0DE065CF4B601660F771F660F771F0A
:102A0000C60ED71ECC0CDD1CC80ED11C5D01FFEF1D
:102A1000AF1ABF0A8C9180538A30A8F1C4FF03C05B
:102A2000D194C194D1080C0D1D1DC1FF09C0E11442
:102A3000F10431F081E0A81AB108D701AD92BC923F
:102A4000CA01B9010E94AF15C370C33009F4905890
:102A50004B015C0120E030E0A9010E94AA15882307
:102A600009F440C0CFE9D0E017FF05C011950195EA
:102A70001109C7E8D0E06E01B8E1CB1AD10880E2B5
:102A8000E82EF12C0FC0D501B1CFFE012591359173
:102A9000459154910E191F09C501B4010E941016E9
:102AA0004B015C01D501C4010E151F0574F7249775
:102AB000F594E794CC16DD06A9F78A2F880F8B2FA3
:102AC000881F8F3F49F020E030E0A901C501B40123
:102AD0000E94AA15811106C082E290E090938D06B3
:102AE00080938C06C501B401CDB7DEB7ECE00C9441
:102AF000FE1691110C947D16803219F08950855084
:102B0000C8F70895FB01DC014150504088F08D91D9
:102B100081341CF08B350CF4805E659161341CF0BF
:102B20006B350CF4605E861B611171F3990B08958F
:102B3000881BFCCFDC01FC01672F71917723E1F743
:102B4000329704C07C916D9370836291AE17BF077A
:102B5000C8F308950E94EC1508F481E00895E89404
:102B600009C097FB3EF490958095709561957F4FD5
:102B70008F4F9F4F9923A9F0F92F96E9BB27939583
:102B8000F695879577956795B795F111F8CFFAF493
:102B9000BB0F11F460FF1BC06F5F7F4F8F4F9F4FC4
:102BA00016C0882311F096E911C0772321F09EE822
:102BB000872F762F05C0662371F096E8862F70E088
:102BC00060E02AF09A95660F771F881FDAF7880F62
:102BD0009695879597F90895990F0008550FAA0BB8
:102BE000E0E8FEEF16161706E807F907C0F0121620
:102BF0001306E407F50798F0621B730B840B950B23
:102C000039F40A2661F0232B242B252B21F4089577
:102C10000A2609F4A140A6958FEF811D811D089514
:102C20000E9423160C9497160E94891638F00E9471
:102C3000901620F0952311F00C9480160C948616B3
:102C400011240C94CB160E94A81670F3959FC1F323
:102C5000950F50E0551F629FF001729FBB27F00D4A
:102C6000B11D639FAA27F00DB11DAA1F649F66279F
:102C7000B00DA11D661F829F2227B00DA11D621FEE
:102C8000739FB00DA11D621F839FA00D611D221FA8
:102C9000749F3327A00D611D231F849F600D211D8C
:102CA000822F762F6A2F11249F5750409AF0F1F00F
:102CB00088234AF0EE0FFF1FBB1F661F771F881F78
:102CC00091505040A9F79E3F510580F00C9480161A
:102CD0000C94CB165F3FE4F3983ED4F3869577953A
:102CE0006795B795F795E7959F5FC1F7FE2B880F1E
:102CF000911D9695879597F90895992788270895A6
:102D000097F99F6780E870E060E008959FEF80EC9E
:102D1000089500240A941616170618060906089541
:102D200000240A9412161306140605060895092EA7
:102D30000394000C11F4882352F0BB0F40F4BF2B16
:102D400011F460FF04C06F5F7F4F8F4F9F4F089556
:102D500057FD9058440F551F59F05F3F71F047954C
:102D6000880F97FB991F61F09F3F79F08795089531
:102D7000121613061406551FF2CF4695F1DF08C050
:102D8000161617061806991FF1CF8695710561056D
:102D900008940895E894BB2766277727CB0197F915
:102DA00008950E941317A59F900DB49F900DA49FA6
:102DB000800D911D112408952F923F924F925F92A2
:102DC0006F927F928F929F92AF92BF92CF92DF923B
:102DD000EF92FF920F931F93CF93DF93CDB7DEB7A0
:102DE000CA1BDB0B0FB6F894DEBF0FBECDBF099434
:102DF0002A88398848885F846E847D848C849B848B
:102E0000AA84B984C884DF80EE80FD800C811B8198
:102E1000AA81B981CE0FD11D0FB6F894DEBF0FBEC7
:102E2000CDBFED010895A29FB001B39FC001A39F44
:102E3000700D811D1124911DB29F700D811D1124F3
:102E4000911D08955058BB27AA270E943A170C9449
:102E500097160E94891638F00E94901620F039F4D7
:102E60009F3F19F426F40C9486160EF4E095E7FBC8
:102E70000C948016E92F0E94A81658F3BA1762071F
:102E800073078407950720F079F4A6F50C94CA1609
:102E90000EF4E0950B2EBA2FA02D0B01B901900175
:102EA0000C01CA01A0011124FF27591B99F0593FB9
:102EB00050F4503E68F11A16F040A22F232F342F01
:102EC0004427585FF3CF469537952795A795F0404F
:102ED0005395C9F77EF41F16BA0B620B730B840B64
:102EE000BAF09150A1F0FF0FBB1F661F771F881F1C
:102EF000C2F70EC0BA0F621F731F841F48F4879574
:102F000077956795B795F7959E3F08F0B0CF939565
:102F1000880F08F09927EE0F9795879508950E94DE
:102F200096176894B1110C94CB1608950E94B016B0
:102F300088F09F5798F0B92F9927B751B0F0E1F07A
:102F4000660F771F881F991F1AF0BA95C9F714C02A
:102F5000B13091F00E94CA16B1E008950C94CA16DF
:102F6000672F782F8827B85F39F0B93FCCF3869563
:102F700077956795B395D9F73EF4909580957095C0
:102F800061957F4F8F4F9F4F089597FB072E16F443
:102F9000009407D077FD09D00E94F81707FC05D0F0
:102FA0003EF4909581959F4F0895709561957F4F60
:102FB0000895052E97FB1EF400940E94F01757FD0C
:102FC00007D00E940C1807FC03D04EF40C94F017A5
:102FD00050954095309521953F4F4F4F5F4F089545
:102FE00090958095709561957F4F8F4F9F4F089575
:102FF000AA1BBB1B51E107C0AA1FBB1FA617B7071F
:1030000010F0A61BB70B881F991F5A95A9F780953A
:103010009095BC01CD010895A1E21A2EAA1BBB1BFD
:10302000FD010DC0AA1FBB1FEE1FFF1FA217B30794
:10303000E407F50720F0A21BB30BE40BF50B661FAA
:10304000771F881F991F1A9469F76095709580956E
:1030500090959B01AC01BD01CF010895EE0FFF1FBC
:103060000590F491E02D09940F931F93CF93DF9374
:103070008230910510F482E090E0E0919006F091AA
:10308000910630E020E0B0E0A0E0309799F42115FF
:10309000310509F44AC0281B390B24303105D8F515
:1030A0008A819B816115710589F1FB01938382837C
:1030B000FE0111C0408151810281138148175907D7
:1030C000E0F04817590799F4109761F012960C93A5
:1030D000129713961C933296CF01DF91CF911F91D7
:1030E0000F9108950093900610939106F4CF211547
:1030F000310551F04217530738F0A901DB019A015D
:10310000BD01DF01F801C1CFEF01F9CF9093910626
:1031100080939006CDCFFE01E20FF31F8193919330
:103120002250310939832883D7CF20918E063091E0
:103130008F06232B41F420911E0130911F01309303
:103140008F0620938E0620911C0130911D012115C0
:10315000310541F42DB73EB7409120015091210136
:10316000241B350BE0918E06F0918F06E217F307D2
:10317000A0F42E1B3F0B2817390778F0AC014E5FE7
:103180005F4F2417350748F04E0F5F1F50938F068F
:1031900040938E06819391939FCFF0E0E0E09CCF27
:1031A000CF93DF930097E9F0FC01329713821282EC
:1031B000A0919006B0919106ED0130E020E01097CB
:1031C000A1F420813181820F931F20918E063091CE
:1031D0008F062817390709F061C0F0938F06E09336
:1031E0008E06DF91CF910895EA01CE17DF07E8F54B
:1031F0004A815B819E0141155105B1F7E901FB83CD
:10320000EA8349915991C40FD51FEC17FD0761F46A
:10321000808191810296840F951FE90199838883AB
:10322000828193819B838A83F0E0E0E012968D9106
:103230009C9113970097B9F52D913C911197CD0171
:103240000296820F931F20918E0630918F062817C9
:10325000390739F6309751F5109291061092900681
:10326000B0938F06A0938E06BCCFD383C2834081D8
:103270005181840F951FC817D90761F44E5F5F4FC6
:1032800088819981480F591F518340838A819B818E
:10329000938382832115310509F0B0CFF093910615
:1032A000E09390069ECFFD01DC01C0CF1382128215
:1032B000D7CFB0E0A0E0EFE5F9E10C94DE168C0189
:1032C000009751F4CB010E9434188C01C801CDB78E
:1032D000DEB7E0E10C94FA16FC01E60FF71F9C0143
:1032E00022503109E217F30708F49DC0D901CD91AE
:1032F000DC911197C617D70798F0C530D10530F388
:10330000CE0104978617970708F3C61BD70B2297A1
:10331000C193D1936D937C93CF010E94D018D6CFE7
:103320005B01AC1ABD0A4C018C0E9D1EA09190064B
:10333000B0919106512C412CF12CE12C109731F5D4
:1033400080918E0690918F068815990509F05CC0D2
:103350004616570608F058C080911C0190911D0137
:10336000009741F48DB79EB7409120015091210103
:10337000841B950BE817F90708F055C0F0938F06EA
:10338000E0938E06F90171836083A0CF8D919C91AB
:10339000119712966C90129713967C901397A8151C
:1033A000B90559F56C0142E0C40ED11CCA14DB0406
:1033B00020F1AC014A195B09DA011296159780F0E9
:1033C0006282738251834083D9016D937C93E114AF
:1033D000F10471F0D7011396FC93EE93129776CF18
:1033E00022968C0F9D1FF90191838083F301EFCF0B
:1033F000F0939106E093900669CF4816590608F4B9
:103400002C017D01D3019ACFCB010E9434187C019D
:10341000009749F0AE01B8010E94161AC8010E9437
:10342000D018870153CF10E000E050CFFB01DC0142
:1034300002C001900D9241505040D8F70895FB0111
:10344000DC0101900D920020E1F70895FB01DC0101
:103450004150504030F08D910190801919F40020B6
:10346000B9F7881B990B0895AEE0B0E0EAE3FAE102
:103470000C94EA160D891E8986E08C831A830983D1
:103480008FEF9FE79E838D83AE01475E5F4F6F890D
:10349000788DCE0101960E94571A2F813885020F30
:1034A000131FF80110822E96E4E00C940617ABE08F
:1034B000B0E0EDE5FAE10C94DC167C013B018A01F9
:1034C000FC0117821682838181FFC8C1CE0101965B
:1034D0005C01F7019381F30193FD859193FF819145
:1034E0003F01882309F453C1853239F493FD859156
:1034F00093FF81913F01853229F4B70190E00E944A
:10350000471CE7CF912C212C312CFFE1F31538F02B
:103510008B3211F190F4803209F1833229F137FCBA
:103520003CC020ED280F2A3050F536FE20C08AE03E
:10353000989E200D1124922E06C08D3291F080337A
:1035400071F7689430F8F30193FD859193FF8191B1
:103550003F018111DACF21C0689431F8689432F8C4
:10356000F2CF689433F8EFCF689434F8ECCFEAE008
:103570002E9E200D1124222E689435F8E4CF8E3231
:1035800029F436FC04C1689436F8DDCF8C3619F482
:10359000689437F8D8CF8836B1F2982F9F7D95542C
:1035A0009330E0F08336A1F18337C1F1833509F020
:1035B00063C02801F2E04F0E511CF801C080D18099
:1035C000692D70E036FC02C06FEF7FEFC6010E94EC
:1035D000311C4C01689437F882010AC00C5F1F4F00
:1035E000FFE3F98388248394912C6501E89437F8EC
:1035F00033FE2DC0522C8114910471F5552009F42D
:1036000068CFB70180E290E00E94471C5A94F6CF41
:10361000F801808189830E5F1F4FE4CF2801F2E01B
:103620004F0E511CF801C080D180692D70E036FC2E
:1036300002C06FEF7FEFC6010E943C1C4C0182016B
:10364000D5CFB70180E290E00E94471C2A9428144D
:10365000190409F0B0F7CECFF60137FC859137FE9B
:1036600081916F01B70190E00E94471C51105A945C
:10367000F1E08F1A9108BFCF843619F0893609F02E
:1036800077C0F80137FE6BC06081718182819381C0
:103690000C5F1F4FF32DFF763F2E97FF09C09095CB
:1036A0008095709561957F4F8F4F9F4F689437F845
:1036B0002AE030E0A5010E94771CC82ECA188C2C85
:1036C000432C36FE0CC0E89440F8C91440F434FE94
:1036D00005C032FC03C0F32DFE7E4F2E892C44FE24
:1036E00095C0FE01EC0DF11D8081803309F087C08B
:1036F000242D297E422E842D8870582E43FC95C09F
:1037000040FE8FC09C2C821418F42C0C922C98181C
:1037100044FE91C0B70180E390E00E94471C42FE46
:1037200009C088E790E041FE02C088E590E0B7015B
:103730000E94471CC91408F48AC0CA94D12C9FEF78
:10374000C91AD90ACA0CDB1CF60182916F01B701B4
:1037500090E00E94471CAC14BD04B1F74FCF6081CC
:103760007181072E000C880B990B0E5F1F4F92CFB3
:10377000D32CE894D4F82AE030E0853739F1232DB2
:10378000297FD22E8F3601F148F48835A9F0F70150
:10379000868197812B96E2E10C94F816803749F0E8
:1037A0008837A9F7D4FE02C06894D2F820E130E04F
:1037B0000DC06894D4F8F6CF34FE03C0822F866023
:1037C000D82E20E132E002C028E030E0F801D7FE38
:1037D0000FC060817181828193810C5F1F4FA501B1
:1037E0000E94771CC82ECA183D2CE89437F867CF82
:1037F0006081718190E080E00E5F1F4FF0CF42FC4E
:1038000002C0839478CF8394839475CF842D867877
:1038100009F471CFF6CFB70180E290E00E94471C17
:1038200083948214C0F3512C73CF522C58188214F5
:1038300008F46ECFF8CF842D867809F47BCF8BE225
:1038400041FE80E247FC8DE2B70190E071CFB70105
:1038500080E390E00E94471C9A946CCF8FEF9FEF1B
:1038600099CFFC010590615070400110D8F7809508
:1038700090958E0F9F1F0895FC016150704001903C
:103880000110D8F7809590958E0F9F1F08950F9384
:103890001F93CF93DF93182F092FEB018B8181FDAD
:1038A00009C01FEF0FEF812F902FDF91CF911F9154
:1038B0000F91089582FF14C02E813F818C819D81DC
:1038C000281739073CF4E881F981CF0101969983E3
:1038D000888310838E819F8101969F838E83E3CF9F
:1038E000E885F985812F0995892BA1F3DACFFA01B3
:1038F000AA27283051F1203181F1E8946F936E7F2F
:103900006E5F7F4F8F4F9F4FAF4FB1E03ED0B4E01F
:103910003CD0670F781F891F9A1FA11D680F791F60
:103920008A1F911DA11D6A0F711D811D911DA11D71
:1039300020D009F468943F912AE0269F1124301981
:10394000305D3193DEF6CF010895462F4770405D1C
:103950004193B3E00FD0C9F7F6CF462F4F70405DCB
:103960004A3318F0495D31FD4052419302D0A9F726
:10397000EACFB4E0A6959795879577956795BA9520
:10398000C9F700976105710508959B01AC010A2EE6
:1039900006945795479537952795BA95C9F7620FBD
:1039A000731F841F951FA01D089511E0C9E8D1E081
:1039B00004C0FE010E942E182196CA38D107C9F70B
:0439C000F894FFCFA9
:1039C40014041404FFFFFFFF0200FFFFFFFFFFFFCB
:1039D400FFFFFFFFFFFFFFFFFFFFFFFF0000920657
:1039E40080004177427F434E447E454F4647475EC1
:1039F400483749304A3C4C0E4E764F7E506752054C
:103A0400535B540F553E59275B4E5D785F086177D1
:103A1400621F630D643D654F6647675E68176910F2
:103A24006A3C6C0E6E156F7E70677205735B740F63
:103A3400751C79272D012000307E3130326D3379A9
:103A44003433355B365F3770387F397B30000000A4
:103A540000006702C701F401B40225020302170241
:103A640020002563256325332E33692569256300EA
:103A74002563256325332E3369256300434F52455F
:103A840000434F52452041544376330073696D2FF0
:103A9400636F636B7069742F726164696F732F74E1
:103AA40072616E73706F6E6465725F636F646500DC
:103AB4006C616D696E61722F423733382F656C65A6
:103AC40063747269632F70616E656C5F627269679B
:103AD40068746E657373002563256325732563001D
:103AE4002563256325312E316925322E326925302F
:103AF40035692E25303269257325630025632563D6
:103B040025312E316925322E3269253035692E252D
:103B140030326925532563002563256325532563C6
:103B2400002563256325332E3369253037692E2517
:0E3B3400303269256300256325632563000098
:00000001FF
