:100000000C948A010C94D0070C94A9070C94B201AB
:100010000C94B2010C94B2010C94B2010C94B20194
:100020000C94B2010C94B2010C94B2010C94B20184
:100030000C94B2010C94B2010C94B2010C94B20174
:100040000C945F070C94B2010C942D070C940707D5
:100050000C94B2010C94B2010C94B2010C94B20154
:100060000C94B2010C94B2014E414E494E49545980
:10007000494E46CDCCCC3D0AD7233C17B7D1387773
:10008000CC2B329595E6241FB14F0A000020410089
:1000900000C84200401C4620BCBE4CCA1B0E5AAED3
:1000A000C59D7400000000240027002A0000000005
:1000B00000250028002B0000000000230026002956
:1000C0000004040404040404040202020202020301
:1000D000030303030301020408102040800102040B
:1000E000081020010204081020000000080002018E
:1000F000000003040700000000000000006C616DB8
:10010000696E61722F423733382F6B6E6F622F74B6
:1001100072616E73706F6E6465725F74617261009C
:100120006C616D696E61722F423733382F6B6E6F61
:10013000622F7472616E73706F6E6465725F74614A
:10014000006C616D696E61722F423733382F6B6EB0
:100150006F622F7472616E73706F6E6465725F612F
:100160006C746F6E006C616D696E61722F42373313
:10017000382F6B6E6F622F7472616E73706F6E6466
:1001800065725F616C746F6666006C616D696E614B
:10019000722F423733382F6B6E6F622F7472616E1D
:1001A00073706F6E6465725F737462790073696DEA
:1001B0002F7472616E73706F6E6465722F747261EA
:1001C0006E73706F6E6465725F6964656E74006CE7
:1001D000616D696E61722F423733382F6B6E6F62BB
:1001E0002F7472616E73706F6E6465725F6D6F6491
:1001F000655F646E006C616D696E61722F423733AA
:10020000382F6B6E6F622F7472616E73706F6E64D5
:1002100065725F6D6F64655F7570006C616D696EAE
:1002200061722F423733382F6B6E6F622F78706E8A
:1002300064725F315F646E006C616D696E61722F14
:10024000423733382F6B6E6F622F78706E64725F37
:10025000315F7570006C616D696E61722F4237336A
:10026000382F6B6E6F622F78706E64725F31305F03
:100270007570006C616D696E61722F423733382F73
:100280006B6E6F622F78706E64725F31305F646E78
:10029000006C616D696E61722F423733382F6B6E5F
:1002A0006F622F78706E64725F313030305F646ED1
:1002B000006C616D696E61722F423733382F6B6E3F
:1002C0006F622F78706E64725F313030305F75709E
:1002D000006C616D696E61722F423733382F6B6E1F
:1002E0006F622F78706E64725F3130305F757000AE
:1002F0006C616D696E61722F423733382F6B6E6F90
:10030000622F78706E64725F3130305F646E00000F
:100310000F08EF1311241FBECFEFD8E0DEBFCDBF13
:1003200026E0A8E7B2E001C01D92AC38B207E1F7C1
:1003300012E0A0E0B1E0EEEFF9E302C005900D920B
:10034000A837B107D9F711E0C9E8D1E004C0219777
:10035000FE010E944B18C838D107C9F70E94510905
:100360000C94F21C0C940000FC012481358162176E
:10037000730720F480819181009729F410928502FF
:1003800085E892E00895860F971F08950895AF922B
:10039000BF92CF92DF92EF92FF920F931F93CF9372
:1003A000DF936C017B018B01040F151FEB015E01D4
:1003B000AE18BF08C017D10759F06991D601ED9169
:1003C000FC910190F081E02DC6010995892B79F708
:1003D000C501DF91CF911F910F91FF90EF90DF90BA
:1003E000CF90BF90AF900895FC01538D448D252F81
:1003F00030E0842F90E0821B930B541710F0CF96BF
:10040000089501970895FC01918D828D981761F0F0
:10041000A28DAE0FBF2FB11D5D968C91928D9F5F07
:100420009F73928F90E008958FEF9FEF0895FC01E6
:10043000918D828D981731F0828DE80FF11D858D99
:1004400090E008958FEF9FEF0895FC01918D228D2C
:10045000892F90E0805C9F4F821B91098F739927B1
:10046000089585E193E00E94250221E0892B09F49B
:1004700020E0822F089580E090E0892B29F00E94EF
:10048000310281110C9400000895FC01A48DA80F85
:10049000B92FB11DA35ABF4F2C91848D90E00196C6
:1004A0008F739927848FA689B7892C93A089B189E6
:1004B0008C91837080648C93938D848D981306C087
:1004C0000288F389E02D80818F7D80830895EF92EB
:1004D000FF920F931F93CF93DF93EC0181E0888FFE
:1004E0009B8D8C8D98131AC0E889F989808185FFCE
:1004F00015C09FB7F894EE89FF896083E889F98970
:1005000080818370806480839FBF81E090E0DF9171
:10051000CF911F910F91FF90EF900895F62E0B8DC4
:1005200010E00F5F1F4F0F731127E02E8C8D8E117F
:100530000CC00FB607FCFACFE889F989808185FFE6
:10054000F5CFCE010E944502F1CFEB8DEC0FFD2FD0
:10055000F11DE35AFF4FF0829FB7F8940B8FEA89A1
:10056000FB8980818062CFCFCF93DF93EC01888DB0
:100570008823B9F0AA89BB89E889F9898C9185FD1E
:1005800003C0808186FD0DC00FB607FCF7CF8C91AC
:1005900085FFF2CF808185FFEDCFCE010E9445021D
:1005A000E9CFDF91CF910895833081F028F4813035
:1005B00099F08230A9F008958730A9F08830C9F009
:1005C0008430B1F4809180008F7D03C080918000E1
:1005D0008F7780938000089584B58F7784BD0895C8
:1005E00084B58F7DFBCF8091B0008F778093B00072
:1005F00008958091B0008F7DF9CFCF93DF93282F9E
:1006000030E0F901E751FF4F8491F901EB52FF4FC0
:10061000D491F901EF53FF4FC491CC23A1F0811184
:100620000E94D402EC2FF0E0EE0FFF1FE954FF4FC1
:10063000A591B491EC91ED2381E090E009F480E084
:10064000DF91CF91089580E090E0FACF1F93CF9390
:10065000DF93282F30E0F901E751FF4F8491F90132
:10066000EB52FF4FD491F901EF53FF4FC491CC23CC
:10067000A9F0162F81110E94D402EC2FF0E0EE0FAA
:10068000FF1FE355FF4FA591B4918FB7F894EC91FC
:10069000111108C0D095DE23DC938FBFDF91CF917D
:1006A0001F910895DE2BF8CF0F931F93CF93909156
:1006B000CE02981711F1082F082E000C110B909103
:1006C000CF0290171106F1F0ECF08093CE02C0E05B
:1006D0008091D802C81788F4EC2FF0E0B8010C2EF6
:1006E00002C0759567950A94E2F76170E253FD4F79
:1006F00082810E942603CF5FEBCF80E0CF911F91D4
:100700000F9108958DEFFACFCF93DF9390E0FC0126
:10071000EB52FF4F24918F539F4FFC01849188230C
:10072000C9F090E0880F991FFC01ED55FF4FA5918E
:10073000B491FC01E355FF4FC591D49161110DC0F7
:100740009FB7F8948C91209582238C9388812823DD
:1007500028839FBFDF91CF910895623051F49FB7F6
:10076000F8943C91822F809583238C93E8812E2BE3
:10077000EFCF8FB7F894EC912E2B2C938FBFEACF4D
:100780001F93CF93DF93182FEB0161E00E94840346
:10079000209739F460E0812FDF91CF911F910C9465
:1007A0002603CF3FD10511F461E0F5CFE12FF0E052
:1007B000E751FF4FE491E33031F140F4E130B1F023
:1007C000E230E1F0C038D1057CF7E4CFE73029F121
:1007D000E83059F1E430B1F7809180008062809375
:1007E0008000D0938B00C0938A0004C084B58068D9
:1007F00084BDC7BDDF91CF911F91089584B58062FC
:1008000084BDC8BDF7CF8091800080688093800050
:10081000D0938900C0938800EDCF8091B0008068AC
:100820008093B000C093B300E5CF8091B0008062A8
:100830008093B000C093B400DDCF3FB7F8948091AF
:10084000810290918202A0918302B091840226B528
:10085000A89B05C02F3F19F00196A11DB11D3FBFF8
:10086000BA2FA92F982F8827BC01CD01620F711DC7
:10087000811D911D42E0660F771F881F991F4A95C1
:10088000D1F708958F929F92AF92BF92CF92DF924D
:10089000EF92FF920E941D044B015C018FE0C82E75
:1008A000D12CE12CF12C0E941D04681979098A09C8
:1008B0009B09683E734081059105A8F321E0C21AA7
:1008C000D108E108F10888EE880E83E0981EA11C8B
:1008D000B11CC114D104E104F10429F7FF90EF9099
:1008E000DF90CF90BF90AF909F908F9008952FB7DB
:1008F000F89460917D0270917E0280917F029091C8
:1009000080022FBF089508950E94540381E10C9442
:10091000FD02DC01ED91FD918081ED91FD919081D1
:10092000ED91FD916C9163708E2309F064609F23BB
:1009300009F06860E6EAF4E0E60FF11D659565955B
:100940006D936D917D918D919D91099423C01AC0F5
:1009500012C016C010C01EC009C014C013C006C00B
:1009600019C009C00DC007C00DC014C0625070404E
:10097000804090400BC0615070408040904006C065
:100980006E5F01C06F5F7F4F8F4F9F4F9E938E931F
:100990007E936E93089580917A0290917B020C94DD
:1009A000890480917802909179020C948904CF9304
:1009B000DF93EC018B85823060F4F894CE010E94C5
:1009C00089046F81788589859A857894DF91CF91A4
:1009D0000895F894F6CF0F931F93CF93DF93082FCA
:1009E000162FD42FC8E06D2F661F6627661F802F35
:1009F0000E942603DD0F61E0812F0E94260360E044
:100A0000812F0E942603C15071F7DF91CF911F9172
:100A10000F9108950F931F93CF93DF9300D0CDB71D
:100A2000DEB789836A830FE013E060E0F80182811A
:100A30000E9426034981F801608184810E94EB04B1
:100A40004A81F801608184810E94EB0461E0F80131
:100A500082810F900F90DF91CF911F910F910C9495
:100A600026039DED960F50E09A3018F4635F41E045
:100A700050E0E2E2F1E030E020E09081992391F053
:100A8000329696130CC0220F331FF901EE5DFE4F14
:100A90006181452B09F060688F5F0C940A052F5F18
:100AA0003F4FEBCF60E0F8CFCF93C1E060E08C2FF9
:100AB0000E940A05CF5FC930C9F7CF91089580E041
:100AC00008950F931F93CF93DF93EC01062F142FFC
:100AD00062E0802F0E94840362E0812F0E948403E1
:100AE000802F90E0FC01EF53FF4FE491F0E0EE0F18
:100AF000FF1FE954FF4FA591B491B983A883FC016E
:100B0000EB52FF4F24912C83812F90E0FC01EF5397
:100B1000FF4FE491F0E0EE0FFF1FE954FF4F4591C6
:100B200054915B834A83FC01EB52FF4FE491ED83C8
:100B30001F82188619861A868BE39FE10197F1F7C9
:100B40008C91282391E009F490E0DA018C91E8235C
:100B500009F092609E83BE01802F0E945F05082FDE
:100B6000BE01812F0E945F05800F8B87DF91CF919F
:100B70001F910F910895FB0101900020E9F7319733
:100B8000AF01461B570BDC01ED91FC910280F38114
:100B9000E02D09946CE474E08091B2039091B3036A
:100BA0000E94BB05ECE4F4E001900020E9F7ED5869
:100BB000F44041F460EA71E08091B2039091B30394
:100BC0000C94BB0508950F931F93CF93DF93C091AF
:100BD0008206D0918306C436D1056CF58C0180E184
:100BE00090E00E945118FC01DE01AA0FBB1FA8541F
:100BF000BA4FED93FC9315830483138212821386FC
:100C0000128681E090E0958784878FEF9FEF918334
:100C1000808397878687CE01019690938306809381
:100C200082061092850610928406CE01DF91CF9144
:100C30001F910F910895CFEFDFEFF7CF880F991F26
:100C4000FC01E854FA4F0190F081E02D309749F112
:100C50008081918197FD22C01F922EE32F931F92D6
:100C600021E02F939F938F931F928BE68F931F9278
:100C70008CE38F9382EA91E09F938F938CE494E0CE
:100C80009F938F930E94511A0E94CA058DB79EB7F9
:100C90000E960FB6F8949EBF0FBE8DBF90E080E019
:100CA00008958FEF9FEF08950C941E0677FD1EC0E8
:100CB0001F922EE32F937F936F939F938F931F9297
:100CC0008CE38F9380EB91E09F938F938CE494E07F
:100CD0009F938F930E94511A8DB79EB70C960FB6B3
:100CE000F8949EBF0FBE8DBF0C94CA0508951F9344
:100CF000CF93DF93C2EBD3E01F811F8286EB93E09B
:100D00000E94FB131F83DF91CF911F910895FC0177
:100D100080819181009711F00C94ED1808950F9344
:100D20001F93CF93DF938C01EB01FC0180819181B4
:100D30000097E1F06881798161157105A9F0428120
:100D400053812C813D814217530770F00E943C1A59
:100D50008C819D81F801958384831D821C82DF91A3
:100D6000CF911F910F9108950E94ED18888199816C
:100D7000F801918380838A819B81938382838C8114
:100D80009D8195838483198218821B821A82E5CF04
:100D9000EF92FF920F931F93CF93DF93EC017B01B0
:100DA0008A0188819981009729F02A813B81241743
:100DB000350788F4B8016F5F7F4F0E94761900975E
:100DC00091F0998388831B830A832C813D81232B97
:100DD00011F4FC0110821D830C83B7018881998175
:100DE0000E943C1A0CC088819981009711F00E94E2
:100DF000ED18198218821D821C821B821A82CE0174
:100E0000DF91CF911F910F91FF90EF9008951F9266
:100E10000F920FB60F9211242F933F934F935F932E
:100E20006F937F938F939F93AF93BF93EF93FF93B2
:100E300085E193E00E944502FF91EF91BF91AF9150
:100E40009F918F917F916F915F914F913F912F91E2
:100E50000F900FBE0F901F9018951F920F920FB614
:100E60000F9211242F938F939F93EF93FF93E09111
:100E70002503F09126038081E0912B03F0912C0350
:100E800082FD1BC0908180912E038F5F8F73209114
:100E90002F03821741F0E0912E03F0E0EB5EFC4F50
:100EA000958F80932E03FF91EF919F918F912F91BA
:100EB0000F900FBE0F901F9018958081F4CF1F9256
:100EC0000F920FB60F9211242F933F938F939F93FE
:100ED000AF93BF9380917D0290917E02A0917F029B
:100EE000B091800230917C0223E0230F2D3758F51A
:100EF0000196A11DB11D20937C0280937D029093E9
:100F00007E02A0937F02B093800280918102909133
:100F10008202A0918302B09184020196A11DB11DAD
:100F20008093810290938202A0938302B093840203
:100F3000BF91AF919F918F913F912F910F900FBED5
:100F40000F901F90189526E8230F0296A11DB11D42
:100F5000D2CF1F920F920FB60F9211242F933F936F
:100F60004F935F936F937F938F939F93AF93BF93B1
:100F7000EF93FF93E0910201F09103010995FF9136
:100F8000EF91BF91AF919F918F917F916F915F9101
:100F90004F913F912F910F900FBE0F901F9018957A
:100FA0001F920F920FB60F9211242F933F934F93DE
:100FB0005F936F937F938F939F93AF93BF93EF93C1
:100FC000FF93E0910001F09101010995FF91EF91EC
:100FD000BF91AF919F918F917F916F915F914F9151
:100FE0003F912F910F900FBE0F901F901895FB010E
:100FF00005900020E9F7609570956E0F7F1FCB017B
:101000000895FA01DC012150304030F08D910590B7
:10101000801919F40020B9F7881B990B08950F93D4
:101020001F93CF93DF93CDB7DEB76B970FB6F894CE
:10103000DEBF0FBECDBF109218031092170382E9D6
:1010400091E0909316038093150385EC90E09093C4
:1010500022038093210384EC90E0909324038093F7
:10106000230380EC90E0909326038093250381EC8A
:1010700090E0909328038093270382EC90E0909374
:101080002A038093290386EC90E090932C038093AD
:101090002B0310922E0310922F0310923003109204
:1010A000310385E193E09093B3038093B20384EF1F
:1010B00091E0A0E0B0E08093190390931A03A0930D
:1010C0001B03B0931C0383E090E090931403809380
:1010D000130384E090E0909312038093110382E065
:1010E00090E09093100380930F0361E083E00E94EF
:1010F000840361E0809111030E94840361E0809188
:101100000F030E9484034CE06DE083E093E00E94B3
:1011100061054BE06AE087EF92E00E94610548E0DC
:1011200067E08BEE92E00E94610546E065E08FED9E
:1011300092E00E9461058EE08B8B8FE08C8B80E1CA
:101140008D8B8FEF8E8B8F8B888F898F8A8FFE018F
:10115000739690E080E0219127FD05C001968830CC
:101160009105C9F788E08B8F89E0FE017396DE0157
:101170001A9601900D928A95E1F789E0FE013A9660
:10118000DE01119601900D928A95E1F78FEF809321
:10119000CE0299E0FE013196A0EDB2E001900D92F1
:1011A0009A95E1F791E09093D9028093DA028093C7
:1011B000DB029093DC0281E090E09093DE0280936A
:1011C000DD020EEC12E098012E5C32408091D802D4
:1011D00090E00F5F1F4F2817390734F461E0F801E2
:1011E00081810E948403EFCF91E001C0990F8A951D
:1011F000EAF79093CF028091DB0287FD0EC0813128
:1012000061F09091DC02913019F460E00E942603B5
:1012100060E08091DB020E94840381E18093DB0225
:101220001092DC021092DE021092DD0260E00E9459
:1012300026036091DC028091DB020E9484031092FD
:10124000C9021092C8021092CB021092CA021092E8
:10125000CD021092CC0250E040E061EA71E088ECEF
:1012600092E00E94C8061092C3021092C20210922D
:10127000C5021092C4021092C7021092C60250E03A
:1012800040E061EA71E082EC92E06B960FB6F89470
:10129000DEBF0FBECDBFDF91CF911F910F910C9498
:1012A000C806CF93DF93CDB7DEB7E6970FB6F894B5
:1012B000DEBF0FBECDBF789484B5826084BD84B597
:1012C000816084BD85B5826085BD85B5816085BD41
:1012D00080916E00816080936E00109281008091F9
:1012E0008100826080938100809181008160809381
:1012F0008100809180008160809380008091B100A6
:1013000084608093B1008091B00081608093B000D0
:1013100080917A00846080937A0080917A00826064
:1013200080937A0080917A00816080937A00809126
:101330007A00806880937A001092C10061E08BE0AF
:101340000E9484036FEF70E08BE00E94C00362E0B4
:1013500081E10E94840361E085E10E948403F894A6
:1013600010920A0310920B0310920C0310920D03BB
:101370007894F8941092FE021092FF0210920003EB
:10138000109201037894F8941092F2021092F302F2
:101390001092F4021092F5027894F8941092E602FA
:1013A0001092E7021092E8021092E902789461E04C
:1013B000809111030E94260367E08BE00E940A05DA
:1013C00060E089E00E940A0561E08CE00E940A0565
:1013D00060E08FE00E940A050E9454056FE08AE0F9
:1013E0000E940A050E94540563E08AE00E940A05F3
:1013F0001CA21BA2FE01B5968EE0DF011D928A950C
:10140000E9F7ACEBB1E080EC91E010E000E0B497DC
:101410007F0121E030E04D914E3279F5F8013197AE
:10142000EE0FFF1FEE0DFF1D318320838A179B07F0
:1014300091F70930110514F008E010E047011E0192
:10144000F3E22F0E311C6801510121E0C21AD108CC
:10145000C501821993098017910704F5D4018D9174
:101460009D914D01F50161915F0141E0892B09F4E6
:1014700040E0C6010E943105E8CFE3E2F0E0EC0F66
:10148000FD1FE00FF11F4083F801EE0FFF1FEE0D6F
:10149000FF1D118210820F5F1F4FC8CFE0912503FF
:1014A000F091260382E08083E0912103F0912203F2
:1014B0001082E0912303F091240380E18083109255
:1014C0002D03E0912903F0912A0386E08083E091C7
:1014D0002703F0912803808180618083E0912703B6
:1014E000F0912803808188608083E0912703F09148
:1014F0002803808180688083E0912703F09128038E
:1015000080818F7D808381EC91E09093EF048093C4
:10151000EE041092E5041092E404109281061092F9
:101520008006109283061092820610928506109211
:1015300084061092B40380EF92E00E94E30590933A
:10154000AD028093AC0281ED92E00E94E30590939E
:10155000AB028093AA0281EB92E00E94E305909394
:10156000A7028093A60281E992E00E94E30590938E
:10157000A9028093A80283E792E00E94E30590937A
:10158000A5028093A40285E592E00E94E305909372
:10159000A3028093A20288E392E00E94E305909365
:1015A0009F0280939E028BE192E00E94E30590935C
:1015B000A1028093A00285EF91E00E94E3058FECE9
:1015C00091E00E94E3058DEA91E00E94E30590938B
:1015D0008F0280938E028AE891E00E94E305909347
:1015E00099028093980285E691E00E94E30590932A
:1015F00097028093960281E491E00E94E305909324
:1016000095028093940280E291E00E94E30590931A
:101610009302809392028DEF90E00E94E3059093F5
:101620009102809390020091800610918106043609
:1016300011050CF040C084E290E00E945118FC01BA
:10164000D801AA0FBB1FA051BB4FED93FC93178A83
:10165000168A8DEC91E0958B848B81E090E09383EA
:10166000828340E050E060E87FE3468357836087F1
:10167000718744E650E060E070E0448755876687F4
:1016800077879583848386E892E0918F808F128E8E
:10169000138E148E158E13A212A28FEF9FEF9183DB
:1016A00080830F5F1F4F1093810600938006109276
:1016B00085061092840600918006109181060436FA
:1016C0001105F4F584E290E00E945118FC01D80164
:1016D000AA0FBB1FA051BB4FED93FC93178A168A2C
:1016E00081EF91E0958B848B81E090E093838283FE
:1016F00082E090E0958384838AE892E0918F808FE6
:10170000168E178E10A211A28AE090E0A0E0B0E041
:1017100084879587A687B7871682178210861186D9
:1017200013A212A28FEF9FEF918380830F5F1F4F51
:10173000109381060093800610928506109284060D
:10174000E4E04E2E512C612C712C8091B2039091CB
:10175000B303DC01ED91FC910084F185E02D099546
:101760002091B403892B81F02C3381F08091B20356
:101770009091B303DC01ED91FC910284F385E02D9F
:1017800009958093B403E1CF2C33C9F5C090B2031F
:10179000D090B30375EBA72E73E0B72E10E000E0F6
:1017A0000E947704F6016087718782879387D6014C
:1017B000ED91FC910284F385E02DC601099597FF18
:1017C000DFC70E947704F601208531854285538565
:1017D000621B730B840B950B2481358146815781E5
:1017E000621773078407950710F310934B04009357
:1017F0004A040115110509F06CC01092B4038091E0
:10180000840690918506892B09F45CC442EB53E071
:101810005CAB4BAB1EAA1DAA8091800690918106FD
:10182000ADA9BEA9A817B9070CF4E4C208EB15E0EE
:10183000D12CC12C8091820690918306C816D906BE
:101840000CF040C4D801ED91FC918081918197FD0D
:101850003AC00E947704D801ED91FC918680978070
:10186000A084B184681979098A099B096D32714095
:101870008105910540F18685978597FDF7C30E9404
:10188000FD025C01D801ED91FC9184859585A81637
:10189000B906C9F060817181B1E0AB16B10409F0FD
:1018A000E0C38AE690E00E9456060E947704D801C1
:1018B000ED91FC916683778380879187D801ED91C4
:1018C000FC91B586A486BFEFCB1ADB0A0E5F1F4FD3
:1018D000B1CFF801EE54FC4F2EE323830E5F1F4F70
:1018E00010934B0400934A040E541C4FF8011282CB
:1018F0008091B503813609F44FC074F4833309F441
:1019000099C0843309F4ECC0823309F076CF109289
:10191000E5041092E40471CF853609F4EFC18636F0
:1019200011F1843609F069CFE0EFF4E090E080E057
:101930002091800630918106821793070CF05DCFCD
:10194000A191B19112962D913C911397225031099A
:101950002230310530F421E030E01B963C932E9389
:101960001A970196E5CF2091800630918106E0EF2D
:10197000F4E090E080E0821793070CF077C18436A2
:10198000910509F473C101911191D8014D915C91B8
:1019900057FDFCC00196EFCF8091EE049091EF04CB
:1019A0000097D9F01F922F939F938F931F9280E3FC
:1019B0008F931F928CE38F9322E132E03F932F931A
:1019C0008CE494E09F938F930E94511A0E94CA0561
:1019D0000FB6F894DEBF0FBECDBF21E030E03093EC
:1019E000E5042093E404E0EFF4E090E080E020914F
:1019F00080063091810682179307A4F0E8EBF5E0AA
:101A000090E080E020918206309183068217930750
:101A10000CF0F3CEA191B1912FEF3FEF2D933C93BA
:101A20000196F0CFA191B1914FEF5FEF4D935C9391
:101A30000196DDCF10E000E0809180069091810654
:101A4000081719070CF0D9CEF801EE0FFF1FE0516F
:101A5000FB4FC080D180D60154966D917C91611569
:101A60007105F9F0FB0101900020E9F73197AF0112
:101A7000461B570B89EB93E00E94431A892B71F4A4
:101A8000F60180819181019649F40E947706D60182
:101A90008D939C9300918006109181060F5F1F4FDC
:101AA000CBCFF60186889788092C000CAA08BB08C2
:101AB000C501B4010E94F7079C01B501A40189EB9F
:101AC00093E00E940108892B49F7D6018D919C91E2
:101AD000019621F70E947706F60191838083DACF81
:101AE00010E000E0809182069091830608171907A4
:101AF0000CF083CEF801EE0FFF1FE854FA4FC080C0
:101B0000D180D60112966D917C9161157105F9F025
:101B1000FB0101900020E9F73197AF01461B570BFD
:101B200089EB93E00E94431A892B71F4F6018081BE
:101B30009181019649F40E947706D6018D939C937A
:101B400000918206109183060F5F1F4FCBCFF601E5
:101B500084809580092C000CAA08BB08C501B4013B
:101B60000E94F7079C01B501A40189EB93E00E9454
:101B70000108892B49F7D6018D919C91019621F797
:101B80000E947706F60191838083DACFF801C4883A
:101B9000D58886809780A084B18420E030E048EC2E
:101BA00052E4C501B4010E949A160E94AC17CB0101
:101BB00064E670E00E94E2178BAB9DABC501B401F7
:101BC0000E94AC17D80192962C91929793963C91D3
:101BD000939712968C91129713969C911397C11418
:101BE000D10439F11F924EE34F93DF92CF92BDA9FA
:101BF000BF93EBA9EF937F936F933F932F939F93A3
:101C00008F931F9282E68F931F928CE38F938BE1C9
:101C100092E09F938F932CE434E03F932F930E94A4
:101C2000511A0FB6F894DEBF0FBECDBF0E94CA0591
:101C3000E4CD1F924EE34F9357964C9157974F9395
:101C400056964C914F93BDA9BF93EBA9EF937F9309
:101C50006F933F932F939F938F931F9282E68F935F
:101C60001F928CE38F9387E392E0D3CFA8EBB5E08C
:101C700090E080E0209182063091830682179307DE
:101C80000CF08CC58436910509F488C5ED91FD9161
:101C90002081318137FD02C00196ECCF8281938192
:101CA0000097B1F01F922EE32F939F938F931F9273
:101CB0008DE68F931F928CE38F93A2E1B2E0BF93E6
:101CC000AF932CE434E03F932F930E94511AA9CF95
:101CD0001F928EE38F9385818F9384818F931F92C0
:101CE0008DE68F931F928CE38F9383E592E09F9311
:101CF0008F93ACE4B4E0BF93AF93E7CF0E94770635
:101D00005C0190E080E0209180063091810682178E
:101D100093070CF072CD8C0101561F4F9801220FD2
:101D2000331FA9014E545C4F6A01DA01ED91FC9119
:101D300020813181A216B30609F05AC02281338175
:101D40002D7F2130310509F053C0848195810197A1
:101D500009F5808C918CB091C303BBAB1092C30387
:101D600089EB93E00E941914F401608371838283EC
:101D70009383FBA9F093C303D601ED91FC91A08D51
:101D8000B18D8D919D910D90BC91A02D828F938FDF
:101D9000A48FB58F000F111F0E541C4FD801ED9169
:101DA000FC91848195810297F9F4C08CD18C90903C
:101DB000C3031092C30389EB93E00E94F713F6016B
:101DC00060837183828393839092C303D801ED91E2
:101DD000FC91A08DB18D8D919D910D90BC91A02D08
:101DE000868F978FA0A3B1A38091800690918106E2
:101DF000019689CF0BA91CA9025C1E4FD801ED9159
:101E0000FC918081918197FD0DC082819381029721
:101E1000029740F4848195818130910579F0029791
:101E200009F489C0EDA9FEA93196FEABEDAB2BA953
:101E30003CA92E5F3F4F3CAB2BABEECCA08DB18DC0
:101E40004D915D916D917C91828D938DA48DB58D19
:101E5000481759076A077B0729F30E947704D801BE
:101E6000ED91FC9180889188A288B388AB01BC0178
:101E7000481959096A097B0984859585A685B7851E
:101E800021E0892B8A2B8B2B29F482859385892B42
:101E900009F420E0822F90E0B0E0A0E084179507DD
:101EA000A607B70708F0BECF8081918197FD23C0B8
:101EB0001F92BEE3BF93008CF18DE02D21812F9303
:101EC00020812F939F938F931F92E5E6EF931F92AC
:101ED000FCE3FF9322EA31E03F932F938CE494E0FC
:101EE0009F938F930E94511A0E94CA050FB6F894CF
:101EF000DEBF0FBECDBFD801ED91FC91A08DB18D9D
:101F00008D919D910D90BC91A02D828F938FA48F68
:101F1000B58FF801C080D1800E947704D601509619
:101F20006D937D938D939C935397D801ED91FC9184
:101F30001386128677CFA08DB18D268D378D40A167
:101F400051A16D917D918D919C910E9434168111CA
:101F500070C0D801ED91FC9182859385892B09F49D
:101F600061CFD801ED91FC91C080D180D7FC52C0E7
:101F7000008CF18DE02D80809180A280B3801F9233
:101F8000BEE3BF9320E030E048EC52E4C501B40169
:101F90000E949A160E94AC17CB0164E670E00E9482
:101FA000E21797FF03C09195819591099F938F93B5
:101FB000C501B4010E94AC179B0177FF04C0222722
:101FC0003327261B370B3F932F93DF92CF921F921D
:101FD000E5E6EF931F92FCE3FF932CE532E03F939D
:101FE0002F938CE494E09F938F930E94511A0FB625
:101FF000F894DEBF0FBECDBF20E030E0A901C501DF
:10200000B4010E94341687FF03C0FDE2F09351042F
:102010000E94CA05D801ED91FC91A08DB18D8D91E2
:102020009D910D90BC91A02D868F978FA0A3B1A3F9
:1020300070CF0E947704D801ED91FC91808891883F
:10204000A288B388681979098A099B0984849584D0
:10205000A684B78486169706A806B90608F079CF35
:1020600080CF89E690E00E94560628CCA285B385F1
:10207000109709F428CC8D919C9124853585821781
:10208000930709F420CC6081718118161906BCF4FD
:102090008AE690E00E945606D801ED91FC91A28557
:1020A000B3858D919C91958784870E947704D80190
:1020B000ED91FC91668377838087918704CC89E6D4
:1020C00090E0E8CF8091840690918506892B09F4F1
:1020D0005CC28091C0029091C102892B09F43FC07B
:1020E0001092BF021092BE020091BE021091BF0278
:1020F0000F3F110509F06CF4B8018BE00E94C0039A
:102100000E9442040F5F1F4F1093BF020093BE0254
:10211000EBCF8FEF90E09093BF028093BE020091CF
:10212000BE021091BF0217FD0DC0B8018BE00E94E6
:10213000C0030E944204015011091093BF02009392
:10214000BE02EDCF63E08AE00E940A056FE770E00F
:102150008BE00E94C0031092C1021092C00283E083
:1021600093E00E94D704A30192010E94F61749014F
:102170005A018092BA029092BB02A092BC02B09225
:10218000BD0287EF92E00E94D704A30192010E9452
:10219000F6172093B6023093B7024093B8025093DB
:1021A000B9028BEE92E00E94D704A30192010E9433
:1021B000F6172093B2023093B3024093B4025093C7
:1021C000B5028FED92E00E94D704A30192010E9414
:1021D000F6172093AE023093AF024093B0025093B3
:1021E000B1028091180190911901A0911A01B0914A
:1021F0001B0188169906AA06BB06E1F08815990509
:10220000AA05BB050CF0CEC18091AC029091AD0245
:102210000E941E068091BA029091BB02A091BC025E
:10222000B091BD028093180190931901A0931A01F7
:10223000B0931B014091B6025091B7026091B80271
:102240007091B9028091140190911501A09116012D
:10225000B0911701481759076A077B07E1F0841707
:102260009507A607B7070CF0A2C18091A80290912C
:10227000A9020E941E068091B6029091B702A09119
:10228000B802B091B9028093140190931501A09304
:102290001601B09317014091B2025091B3026091C0
:1022A000B4027091B5028091100190911101A0913A
:1022B0001201B0911301481759076A077B07E1F033
:1022C00084179507A607B7070CF076C18091A40282
:1022D0009091A5020E9454068091B2029091B3029F
:1022E000A091B402B091B5028093100190931101B6
:1022F000A0931201B09313014091AE025091AF022E
:102300006091B0027091B10280910C0190910D0129
:10231000A0910E01B0910F01481759076A077B077A
:10232000E1F084179507A607B7070CF04AC1809122
:10233000A0029091A1020E9454068091AE02909159
:10234000AF02A091B002B091B10280930C019093C2
:102350000D01A0930E01B0930F010E94770400912C
:102360009A0210919B0220919C0230919D02601B69
:10237000710B820B930B653671058105910508F48D
:1023800004C10E94770460939A0270939B02809329
:102390009C0290939D0287E00E94540381E10E9479
:1023A000FD02892B09F012C1E1E0F0E0F093090190
:1023B000E0930801809108019091090120910A01A0
:1023C00030910B012817390791F08130910509F000
:1023D00028C180919802909199020E9454068091A0
:1023E00008019091090190930B0180930A0190E0FC
:1023F00080E00E948404892B31F480918E029091B8
:102400008F020E941E0640918602509187026091C1
:102410008802709189028091040190910501A09138
:102420000601B0910701481759076A077B0709F4AD
:1024300099C01CA21BA21EA21DA218A61FA24AE0A0
:10244000B7018AE090E00E944014F701019000205B
:10245000E9F73197AF014E195F09B701C1010E9439
:10246000C806B10188EC92E00E948F06C1010E946B
:102470008706609186027091870280918802909110
:1024800089021CA21BA21EA21DA218A61FA22AE03E
:10249000A7010E944B14F70101900020E9F7319742
:1024A000AF014E195F09B701C1010E94C806B10111
:1024B00082EC92E00E948F06C1010E948706809103
:1024C000860290918702A0918802B0918902883E8D
:1024D000F3E09F07A105B1050CF4C3C070E060E014
:1024E00082EC92E00E94B40140E0DC016C9183E058
:1024F00090E00E94310561E070E082EC92E00E9481
:10250000B40140E0FC01608182E090E00E9431056E
:1025100062E070E082EC92E00E94B40140E0DC01F5
:102520006C9181E090E00E94310563E070E082EC04
:1025300092E00E94B40140E0FC01608190E080E004
:102540000E9431058091860290918702A0918802B5
:10255000B09189028093040190930501A093060134
:10256000B093070120E030E0A90160918A027091E8
:102570008B0280918C0290918D020E9434168823E8
:1025800021F061E085E10E94260380E090E0892B44
:1025900009F4DBC80E943102882309F4D6C80E94DE
:1025A0000000D3C88091AA029091AB0231CE8091F5
:1025B000A6029091A7025DCE8091A2029091A30203
:1025C00089CE80919E0290919F02B5CE86E090E0E8
:1025D0000E948404892B39F482E090E090930901F1
:1025E00080930801E7CE85E090E00E948404892B67
:1025F00019F483E090E0F2CF84E090E00E9484043C
:10260000892B19F484E090E0E9CF83E00E94540321
:1026100081E10E94FD02892B09F0CCCE85E090E09B
:10262000DDCF8230910529F4809196029091970236
:10263000D4CE8330910529F4809194029091950233
:10264000CCCE8430910529F480919202909193022E
:10265000C4CE059709F0C3CE80919002909191026B
:10266000BCCEAC01BD014456510961097109443821
:1026700053406105710550F561E070E088EC92E02F
:102680000E94B40140E0DC016C9183E090E00E9484
:10269000310570E060E082EC92E00E94B40140E01D
:1026A000FC01608182E090E00E94310561E070E011
:1026B00082EC92E00E94B40140E0DC016C9181E088
:1026C00090E00E94310562E070E031CF0A97A109E5
:1026D000B10961E070E08A359105A105B10540F5C9
:1026E00088EC92E00E94B40140E0DC016C9183E050
:1026F00090E00E94310561E070E088EC92E00E9479
:10270000B40140E0FC01608182E090E00E9431056C
:1027100070E060E082EC92E00E94B40140E0DC01F5
:102720006C9181E090E00E94310561E070E0FFCEA5
:1027300088EC92E00E94B40140E0DC016C9183E0FF
:1027400090E00E94310561E070E088EC92E00E9428
:10275000B40140E0FC01608182E090E00E9431051C
:1027600061E070E088EC92E00E94B40140E0DC019E
:102770006C9181E090E00E94310570E060E0D7CE7E
:102780008E33910509F431C8D5018D935D010F5F3A
:102790001F4F0539110509F003C827C821E030E0B3
:1027A00030938506209384061F928EE38F931F92A9
:1027B00083E68F931F928CE38F9381E792E09F9340
:1027C0008F934CE454E05F934F930E94511A0E9400
:1027D000CA050FB6F894DEBF0FBECDBF0EC882EC9F
:1027E00092E00E94870688EC92E00C9487066627A8
:1027F00077270C94B314FC0188279927E89421913A
:102800002032E9F3293010F02E30C8F32B3241F09A
:102810002D3239F4689404C00E946F14820F911D08
:10282000219120532A30C0F31EF4909581959F4F3B
:1028300008951F93FC0199278827BC01E894119102
:102840001032E9F3193010F01E30C8F31B3251F08A
:102850001D3249F4689406C00E945A14610F711D1C
:10286000811D911D119110531A30B0F33EF49095D3
:102870008095709561957F4F8F4F9F4F1F91089561
:10288000BB274A3031F4992322F4BDE2909581951B
:102890009F4F0C949A14BB272A3051F4992342F489
:1028A000BDE290958095709561957F4F8F4F9F4FBA
:1028B0000C947814592F482F372F262F660F771F27
:1028C000881F991F660F771F881F991F620F731F3C
:1028D000841F951F660F771F881F991F08957AE040
:1028E000979F902D879F802D910D11240895BB27D0
:1028F000FA01A62F6217710581059105330B30FB94
:1029000066F0AA27660F771F881F991FAA1FA217B4
:1029100010F0A21B63953850A9F7A05DAA3308F008
:10292000A95DA19336F7B111B1931082CA010C943D
:102930002416BB27FB015527AA27880F991FAA1F1A
:10294000A41710F0A41B83955051B9F7A05DAA33CA
:1029500008F0A95DA193009779F7B111B193119295
:10296000CB010C942416B0E0A0E0E9EBF4E10C9468
:102970006C175C017B016115710519F0DB018D930A
:102980009C9385010F5F1F4FF501D0818D2F90E043
:102990000E9403166C01892BB9F5DD32B9F50F5F82
:1029A0001F4FD5011196DC91C1E05801F1E0AF1A3B
:1029B000B10843E050E060E770E0C5010E940C16EA
:1029C000892B69F5680182E0C80ED11C45E050E012
:1029D0006BE670E0C6010E940C16892B21F4680199
:1029E00097E0C90ED11CE114F10419F0D701CD9282
:1029F000DC9260E070E080E89FEFC111FFC060E012
:102A000070E080E89FE7FAC05801BBCFDB3229F4C1
:102A100085010E5F1F4FF501D181C0E0C6CF43E0B5
:102A200050E068E670E0C5010E940C16892BE9F0C1
:102A3000F80110E000E020E030E0A9015F01B0ED16
:102A40008B2E8D0E89E08815C8F19C2E689491F824
:102A50008C2F8870C2FF16C0811102C00F5F1F4FFC
:102A60003196D501DC91C92DE9CFE114F10429F0AB
:102A70000E5F1F4FF7011183008360E070E080EC70
:102A80009FE7BCC0882311F001501109A5E0B0E018
:102A90000E945B179B01AC01220F331F441F551F7F
:102AA000280D311D411D511D283999E93907490764
:102AB00099E15907A8F2C6609C2ED2CFAEEF8A12D8
:102AC00006C0C3FD3CC09C2E689493F8C9CFDF7D3F
:102AD000D534A9F580818D3239F4C061DF011296B9
:102AE000818162E070E006C0DF018B32C1F3119694
:102AF00061E070E080535D01A61AB70A8A30F8F4ED
:102B0000E0E8CE16ECE0DE065CF4B601660F771F57
:102B1000660F771FC60ED71ECC0CDD1CC80ED11C4D
:102B20005D01FFEFAF1ABF0A8C9180538A30A8F184
:102B3000C4FF03C0D194C194D1080C0D1D1DC1FF69
:102B400009C0E114F10431F081E0A81AB108D701FD
:102B5000AD92BC92CA01B9010E943916C370C3304C
:102B600009F490584B015C0120E030E0A9010E947B
:102B70003416882309F440C0CFE9D0E017FF05C020
:102B8000119501951109C7E8D0E06E01B8E1CB1AA3
:102B9000D10880E2E82EF12C0FC0D501B1CFFE01A3
:102BA00025913591459154910E191F09C501B40124
:102BB0000E949A164B015C01D501C4010E151F0538
:102BC00074F72497F594E794CC16DD06A9F78A2FBD
:102BD000880F8B2F881F8F3F49F020E030E0A9013C
:102BE000C501B4010E943416811106C082E290E052
:102BF0009093870680938606C501B401CDB7DEB7F2
:102C0000ECE00C94881791110C940717803219F09E
:102C100089508550C8F70895FB01DC0141505040B0
:102C200088F08D9181341CF08B350CF4805E6591B9
:102C300061341CF06B350CF4605E861B611171F31E
:102C4000990B0895881BFCCFDC01FC01672F719163
:102C50007723E1F7329704C07C916D937083629182
:102C6000AE17BF07C8F308950E94761608F481E0F6
:102C70000895E89409C097FB3EF49095809570956F
:102C800061957F4F8F4F9F4F9923A9F0F92F96E9B8
:102C9000BB279395F695879577956795B795F1112D
:102CA000F8CFFAF4BB0F11F460FF1BC06F5F7F4FCA
:102CB0008F4F9F4F16C0882311F096E911C07723DC
:102CC00021F09EE8872F762F05C0662371F096E8E5
:102CD000862F70E060E02AF09A95660F771F881FB4
:102CE000DAF7880F9695879597F90895990F000858
:102CF000550FAA0BE0E8FEEF16161706E807F907CE
:102D0000C0F012161306E407F50798F0621B730B68
:102D1000840B950B39F40A2661F0232B242B252BE9
:102D200021F408950A2609F4A140A6958FEF811D8C
:102D3000811D08950E94AD160C9421170E9413174F
:102D400038F00E941A1720F0952311F00C940A17FE
:102D50000C94101711240C9455170E94321770F31D
:102D6000959FC1F3950F50E0551F629FF001729F30
:102D7000BB27F00DB11D639FAA27F00DB11DAA1F3F
:102D8000649F6627B00DA11D661F829F2227B00D8C
:102D9000A11D621F739FB00DA11D621F839FA00D17
:102DA000611D221F749F3327A00D611D231F849F67
:102DB000600D211D822F762F6A2F11249F575040BE
:102DC0009AF0F1F088234AF0EE0FFF1FBB1F661F39
:102DD000771F881F91505040A9F79E3F510580F002
:102DE0000C940A170C9455175F3FE4F3983ED4F304
:102DF000869577956795B795F795E7959F5FC1F7A6
:102E0000FE2B880F911D9695879597F90895992720
:102E10008827089597F99F6780E870E060E008953B
:102E20009FEF80EC089500240A94161617061806E2
:102E30000906089500240A941216130614060506BE
:102E40000895092E0394000C11F4882352F0BB0F4F
:102E500040F4BF2B11F460FF04C06F5F7F4F8F4FB2
:102E60009F4F089557FD9058440F551F59F05F3FED
:102E700071F04795880F97FB991F61F09F3F79F09C
:102E800087950895121613061406551FF2CF46951E
:102E9000F1DF08C0161617061806991FF1CF8695A0
:102EA0007105610508940895E894BB276627772784
:102EB000CB0197F908950E949D17A59F900DB49F8F
:102EC000900DA49F800D911D112408952F923F9283
:102ED0004F925F926F927F928F929F92AF92BF922A
:102EE000CF92DF92EF92FF920F931F93CF93DF93D6
:102EF000CDB7DEB7CA1BDB0B0FB6F894DEBF0FBE33
:102F0000CDBF09942A88398848885F846E847D847F
:102F10008C849B84AA84B984C884DF80EE80FD8081
:102F20000C811B81AA81B981CE0FD11D0FB6F894F7
:102F3000DEBF0FBECDBFED010895A29FB001B39FCC
:102F4000C001A39F700D811D1124911DB29F700DB2
:102F5000811D1124911D08950E94B3176894B11129
:102F60000C94551708950E943A1788F09F5798F0CF
:102F7000B92F9927B751B0F0E1F0660F771F881F7E
:102F8000991F1AF0BA95C9F714C0B13091F00E9498
:102F90005417B1E008950C945417672F782F8827A1
:102FA000B85F39F0B93FCCF3869577956795B395BF
:102FB000D9F73EF490958095709561957F4F8F4F2E
:102FC0009F4F089597FB072E16F4009407D077FDC6
:102FD00009D00E94151807FC05D03EF49095819504
:102FE0009F4F0895709561957F4F0895052E97FB2B
:102FF0001EF400940E940D1857FD07D00E94291856
:1030000007FC03D04EF40C940D1850954095309564
:1030100021953F4F4F4F5F4F089590958095709544
:1030200061957F4F8F4F9F4F0895AA1BBB1B51E1A6
:1030300007C0AA1FBB1FA617B70710F0A61BB70B28
:10304000881F991F5A95A9F780959095BC01CD01CD
:103050000895A1E21A2EAA1BBB1BFD010DC0AA1FD9
:10306000BB1FEE1FFF1FA217B307E407F50720F0F1
:10307000A21BB30BE40BF50B661F771F881F991F6C
:103080001A9469F760957095809590959B01AC01B5
:10309000BD01CF010895EE0FFF1F0590F491E02DC3
:1030A00009940F931F93CF93DF938230910510F40F
:1030B00082E090E0E0918A06F0918B0630E020E01B
:1030C000B0E0A0E0309799F42115310509F44AC029
:1030D000281B390B24303105D8F58A819B81611575
:1030E000710589F1FB0193838283FE0111C0408148
:1030F00051810281138148175907E0F04817590799
:1031000099F4109761F012960C93129713961C93F2
:103110003296CF01DF91CF911F910F9108950093C7
:103120008A0610938B06F4CF2115310551F0421712
:10313000530738F0A901DB019A01BD01DF01F80155
:10314000C1CFEF01F9CF90938B0680938A06CDCF44
:10315000FE01E20FF31F81939193225031093983CD
:103160002883D7CF2091880630918906232B41F4FC
:1031700020911E0130911F0130938906209388060B
:1031800020911C0130911D012115310541F42DB70D
:103190003EB74091200150912101241B350BE09155
:1031A0008806F0918906E217F307A0F42E1B3F0B67
:1031B0002817390778F0AC014E5F5F4F24173507A9
:1031C00048F04E0F5F1F5093890640938806819305
:1031D00091939FCFF0E0E0E09CCFCF93DF930097F7
:1031E000E9F0FC01329713821282A0918A06B09115
:1031F0008B06ED0130E020E01097A1F420813181B1
:10320000820F931F2091880630918906281739076D
:1032100009F061C0F0938906E0938806DF91CF91B1
:103220000895EA01CE17DF07E8F54A815B819E0128
:1032300041155105B1F7E901FB83EA8349915991A1
:10324000C40FD51FEC17FD0761F4808191810296B0
:10325000840F951FE90199838883828193819B83E1
:103260008A83F0E0E0E012968D919C91139700978D
:10327000B9F52D913C911197CD010296820F931FC4
:1032800020918806309189062817390739F630973A
:1032900051F510928B0610928A06B0938906A0937E
:1032A0008806BCCFD383C28340815181840F951F90
:1032B000C817D90761F44E5F5F4F88819981480F25
:1032C000591F518340838A819B8193838283211577
:1032D000310509F0B0CFF0938B06E0938A069ECFBC
:1032E000FD01DC01C0CF13821282D7CFB0E0A0E095
:1032F000ECE7F9E10C9468178C01009751F4CB01CD
:103300000E9451188C01C801CDB7DEB7E0E10C94E2
:103310008417FC01E60FF71F9C0122503109E217C8
:10332000F30708F49DC0D901CD91DC911197C61720
:10333000D70798F0C530D10530F3CE010497861732
:10334000970708F3C61BD70B2297C193D1936D93B0
:103350007C93CF010E94ED18D6CF5B01AC1ABD0A59
:103360004C018C0E9D1EA0918A06B0918B06512CAB
:10337000412CF12CE12C109731F580918806909129
:1033800089068815990509F05CC04616570608F0AD
:1033900058C080911C0190911D01009741F48DB798
:1033A0009EB74091200150912101841B950BE81795
:1033B000F90708F055C0F0938906E0938806F901F3
:1033C00071836083A0CF8D919C91119712966C9020
:1033D000129713967C901397A815B90559F56C01AF
:1033E00042E0C40ED11CCA14DB0420F1AC014A191E
:1033F0005B09DA011296159780F06282738251831D
:103400004083D9016D937C93E114F10471F0D701ED
:103410001396FC93EE93129776CF22968C0F9D1FF6
:10342000F90191838083F301EFCFF0938B06E09352
:103430008A0669CF4816590608F42C017D01D3018C
:103440009ACFCB010E9451187C01009749F0AE0140
:10345000B8010E94331AC8010E94ED18870153CFAA
:1034600010E000E050CFFB01DC0102C001900D92A2
:1034700041505040D8F70895FB01DC0101900D92B6
:103480000020E1F70895FB01DC014150504030F08D
:103490008D910190801919F40020B9F7881B990BC0
:1034A0000895AEE0B0E0E7E5FAE10C9474170D89F9
:1034B0001E8986E08C831A8309838FEF9FE79E83A2
:1034C0008D83AE01475E5F4F6F89788DCE01019687
:1034D0000E94741A2F813885020F131FF801108281
:1034E0002E96E4E00C949017ABE0B0E0EAE7FAE146
:1034F0000C9466177C013B018A01FC01178216823D
:10350000838181FFC8C1CE0101965C01F7019381DF
:10351000F30193FD859193FF81913F01882309F485
:1035200053C1853239F493FD859193FF81913F0119
:10353000853229F4B70190E00E94641CE7CF912CFA
:10354000212C312CFFE1F31538F08B3211F190F47E
:10355000803209F1833229F137FC3CC020ED280F7D
:103560002A3050F536FE20C08AE0989E200D1124A6
:10357000922E06C08D3291F0803371F7689430F846
:10358000F30193FD859193FF81913F018111DACF82
:1035900021C0689431F8689432F8F2CF689433F817
:1035A000EFCF689434F8ECCFEAE02E9E200D112482
:1035B000222E689435F8E4CF8E3229F436FC04C10B
:1035C000689436F8DDCF8C3619F4689437F8D8CF84
:1035D0008836B1F2982F9F7D95549330E0F0833672
:1035E000A1F18337C1F1833509F063C02801F2E00E
:1035F0004F0E511CF801C080D180692D70E036FC5F
:1036000002C06FEF7FEFC6010E944E1C4C01689410
:1036100037F882010AC00C5F1F4FFFE3F98388244B
:103620008394912C6501E89437F833FE2DC0522C19
:103630008114910471F5552009F468CFB70180E237
:1036400090E00E94641C5A94F6CFF801808189832F
:103650000E5F1F4FE4CF2801F2E04F0E511CF8011E
:10366000C080D180692D70E036FC02C06FEF7FEF23
:10367000C6010E94591C4C018201D5CFB70180E2DE
:1036800090E00E94641C2A942814190409F0B0F7F1
:10369000CECFF60137FC859137FE81916F01B701DE
:1036A00090E00E94641C51105A94F1E08F1A910826
:1036B000BFCF843619F0893609F077C0F80137FE9C
:1036C0006BC060817181828193810C5F1F4FF32DEC
:1036D000FF763F2E97FF09C0909580957095619574
:1036E0007F4F8F4F9F4F689437F82AE030E0A50155
:1036F0000E94941CC82ECA188C2C432C36FE0CC079
:10370000E89440F8C91440F434FE05C032FC03C00C
:10371000F32DFE7E4F2E892C44FE95C0FE01EC0D4C
:10372000F11D8081803309F087C0242D297E422E2F
:10373000842D8870582E43FC95C040FE8FC09C2C71
:10374000821418F42C0C922C981844FE91C0B701E6
:1037500080E390E00E94641C42FE09C088E790E08C
:1037600041FE02C088E590E0B7010E94641CC914C4
:1037700008F48AC0CA94D12C9FEFC91AD90ACA0C7E
:10378000DB1CF60182916F01B70190E00E94641C7E
:10379000AC14BD04B1F74FCF60817181072E000CCE
:1037A000880B990B0E5F1F4F92CFD32CE894D4F85F
:1037B0002AE030E0853739F1232D297FD22E8F364C
:1037C00001F148F48835A9F0F701868197812B969D
:1037D000E2E10C948217803749F08837A9F7D4FECC
:1037E00002C06894D2F820E130E00DC06894D4F8AB
:1037F000F6CF34FE03C0822F8660D82E20E132E05F
:1038000002C028E030E0F801D7FE0FC0608171816E
:10381000828193810C5F1F4FA5010E94941CC82ECA
:10382000CA183D2CE89437F867CF6081718190E029
:1038300080E00E5F1F4FF0CF42FC02C0839478CF30
:103840008394839475CF842D867809F471CFF6CF55
:10385000B70180E290E00E94641C83948214C0F35C
:10386000512C73CF522C5818821408F46ECFF8CF15
:10387000842D867809F47BCF8BE241FE80E247FC01
:103880008DE2B70190E071CFB70180E390E00E9434
:10389000641C9A946CCF8FEF9FEF99CFFC01059039
:1038A000615070400110D8F7809590958E0F9F1F42
:1038B0000895FC016150704001900110D8F7809587
:1038C00090958E0F9F1F08950F931F93CF93DF93B3
:1038D000182F092FEB018B8181FD09C01FEF0FEF1E
:1038E000812F902FDF91CF911F910F91089582FF2B
:1038F00014C02E813F818C819D81281739073CF4AB
:10390000E881F981CF0101969983888310838E81A4
:103910009F8101969F838E83E3CFE885F985812F70
:103920000995892BA1F3DACFFA01AA27283051F1A2
:10393000203181F1E8946F936E7F6E5F7F4F8F4FE0
:103940009F4FAF4FB1E03ED0B4E03CD0670F781F3F
:10395000891F9A1FA11D680F791F8A1F911DA11D24
:103960006A0F711D811D911DA11D20D009F468945D
:103970003F912AE0269F11243019305D3193DEF605
:10398000CF010895462F4770405D4193B3E00FD0BB
:10399000C9F7F6CF462F4F70405D4A3318F0495DA6
:1039A00031FD4052419302D0A9F7EACFB4E0A69589
:1039B0009795879577956795BA95C9F700976105AB
:1039C000710508959B01AC010A2E06945795479501
:1039D00037952795BA95C9F7620F731F841F951FF6
:1039E000A01D089511E0C9E8D1E004C0FE010E94C5
:0E39F0004B182196CA38D107C9F7F894FFCFBB
:1039FE0083048304FFFFFFFF0200FFFFFFFFFFFFB3
:103A0E00FFFFFFFFFFFFFFFFFFFFFFFF00008C0622
:103A1E0080004177427F434E447E454F4647475E86
:103A2E00483749304A3C4C0E4E764F7E5067520511
:103A3E00535B540F553E59275B4E5D785F08617797
:103A4E00621F630D643D654F6647675E68176910B8
:103A5E006A3C6C0E6E156F7E70677205735B740F29
:103A6E00751C79272D012000307E3130326D33796F
:103A7E003433355B365F3770387F397B300000006A
:103A8E0000006702C701F401B40225020302170207
:103A9E0020002563256325332E33692569256300B0
:103AAE002563256325332E3369256300434F524525
:103ABE0000434F5245204154435F76320073696D87
:103ACE002F636F636B7069742F726164696F732FEC
:103ADE007472616E73706F6E6465725F636F64652E
:103AEE000073696D2F6F7065726174696F6E2F66EA
:103AFE0061696C757265732F72656C5F78706E6438
:103B0E0072002563256325732563002563256325D0
:103B1E00312E316925322E3269253035692E253008
:103B2E00326925732563002563256325312E31699E
:103B3E0025322E3269253035692E253032692553CE
:103B4E0025630025632563255325630025632563BF
:103B5E0025332E3369253037692E2530326925639A
:083B6E000025632563256300B7
:00000001FF
